{
	"experiences/0006/TransactionFunder.sol": {
		"TransactionFunder": {
			"abi": [
				{
					"inputs": [],
					"stateMutability": "nonpayable",
					"type": "constructor"
				},
				{
					"inputs": [],
					"name": "fund",
					"outputs": [],
					"stateMutability": "payable",
					"type": "function"
				},
				{
					"inputs": [
						{
							"internalType": "address",
							"name": "",
							"type": "address"
						}
					],
					"name": "funderMoney",
					"outputs": [
						{
							"internalType": "uint256",
							"name": "",
							"type": "uint256"
						}
					],
					"stateMutability": "view",
					"type": "function"
				},
				{
					"inputs": [
						{
							"internalType": "uint256",
							"name": "",
							"type": "uint256"
						}
					],
					"name": "funders",
					"outputs": [
						{
							"internalType": "address",
							"name": "",
							"type": "address"
						}
					],
					"stateMutability": "view",
					"type": "function"
				},
				{
					"inputs": [],
					"name": "owner",
					"outputs": [
						{
							"internalType": "address",
							"name": "",
							"type": "address"
						}
					],
					"stateMutability": "view",
					"type": "function"
				},
				{
					"inputs": [],
					"name": "withdraw",
					"outputs": [],
					"stateMutability": "payable",
					"type": "function"
				}
			],
			"devdoc": {
				"kind": "dev",
				"methods": {},
				"version": 1
			},
			"evm": {
				"assembly": "    /* \"experiences/0006/TransactionFunder.sol\":60:849  contract TransactionFunder {... */\n  mstore(0x40, 0x80)\n    /* \"experiences/0006/TransactionFunder.sol\":207:258  constructor() {... */\n  callvalue\n  dup1\n  iszero\n  tag_1\n  jumpi\n  0x00\n  dup1\n  revert\ntag_1:\n  pop\n    /* \"experiences/0006/TransactionFunder.sol\":240:250  msg.sender */\n  caller\n    /* \"experiences/0006/TransactionFunder.sol\":232:237  owner */\n  0x02\n  0x00\n    /* \"experiences/0006/TransactionFunder.sol\":232:250  owner = msg.sender */\n  0x0100\n  exp\n  dup2\n  sload\n  dup2\n  0xffffffffffffffffffffffffffffffffffffffff\n  mul\n  not\n  and\n  swap1\n  dup4\n  0xffffffffffffffffffffffffffffffffffffffff\n  and\n  mul\n  or\n  swap1\n  sstore\n  pop\n    /* \"experiences/0006/TransactionFunder.sol\":60:849  contract TransactionFunder {... */\n  dataSize(sub_0)\n  dup1\n  dataOffset(sub_0)\n  0x00\n  codecopy\n  0x00\n  return\nstop\n\nsub_0: assembly {\n        /* \"experiences/0006/TransactionFunder.sol\":60:849  contract TransactionFunder {... */\n      mstore(0x40, 0x80)\n      jumpi(tag_1, lt(calldatasize, 0x04))\n      shr(0xe0, calldataload(0x00))\n      dup1\n      0x0e038441\n      eq\n      tag_2\n      jumpi\n      dup1\n      0x3ccfd60b\n      eq\n      tag_3\n      jumpi\n      dup1\n      0x8da5cb5b\n      eq\n      tag_4\n      jumpi\n      dup1\n      0xb60d4288\n      eq\n      tag_5\n      jumpi\n      dup1\n      0xdc0d3dff\n      eq\n      tag_6\n      jumpi\n    tag_1:\n      0x00\n      dup1\n      revert\n        /* \"experiences/0006/TransactionFunder.sol\":94:140  mapping(address => uint256) public funderMoney */\n    tag_2:\n      callvalue\n      dup1\n      iszero\n      tag_7\n      jumpi\n      0x00\n      dup1\n      revert\n    tag_7:\n      pop\n      tag_8\n      0x04\n      dup1\n      calldatasize\n      sub\n      dup2\n      add\n      swap1\n      tag_9\n      swap2\n      swap1\n      tag_10\n      jump\t// in\n    tag_9:\n      tag_11\n      jump\t// in\n    tag_8:\n      mload(0x40)\n      tag_12\n      swap2\n      swap1\n      tag_13\n      jump\t// in\n    tag_12:\n      mload(0x40)\n      dup1\n      swap2\n      sub\n      swap1\n      return\n        /* \"experiences/0006/TransactionFunder.sol\":512:846  function withdraw() public onlyOwner payable {... */\n    tag_3:\n      tag_14\n      tag_15\n      jump\t// in\n    tag_14:\n      stop\n        /* \"experiences/0006/TransactionFunder.sol\":178:198  address public owner */\n    tag_4:\n      callvalue\n      dup1\n      iszero\n      tag_16\n      jumpi\n      0x00\n      dup1\n      revert\n    tag_16:\n      pop\n      tag_17\n      tag_18\n      jump\t// in\n    tag_17:\n      mload(0x40)\n      tag_19\n      swap2\n      swap1\n      tag_20\n      jump\t// in\n    tag_19:\n      mload(0x40)\n      dup1\n      swap2\n      sub\n      swap1\n      return\n        /* \"experiences/0006/TransactionFunder.sol\":379:500  function fund() public payable {... */\n    tag_5:\n      tag_21\n      tag_22\n      jump\t// in\n    tag_21:\n      stop\n        /* \"experiences/0006/TransactionFunder.sol\":147:171  address[] public funders */\n    tag_6:\n      callvalue\n      dup1\n      iszero\n      tag_23\n      jumpi\n      0x00\n      dup1\n      revert\n    tag_23:\n      pop\n      tag_24\n      0x04\n      dup1\n      calldatasize\n      sub\n      dup2\n      add\n      swap1\n      tag_25\n      swap2\n      swap1\n      tag_26\n      jump\t// in\n    tag_25:\n      tag_27\n      jump\t// in\n    tag_24:\n      mload(0x40)\n      tag_28\n      swap2\n      swap1\n      tag_20\n      jump\t// in\n    tag_28:\n      mload(0x40)\n      dup1\n      swap2\n      sub\n      swap1\n      return\n        /* \"experiences/0006/TransactionFunder.sol\":94:140  mapping(address => uint256) public funderMoney */\n    tag_11:\n      mstore(0x20, 0x00)\n      dup1\n      0x00\n      mstore\n      keccak256(0x00, 0x40)\n      0x00\n      swap2\n      pop\n      swap1\n      pop\n      sload\n      dup2\n      jump\t// out\n        /* \"experiences/0006/TransactionFunder.sol\":512:846  function withdraw() public onlyOwner payable {... */\n    tag_15:\n        /* \"experiences/0006/TransactionFunder.sol\":318:323  owner */\n      0x02\n      0x00\n      swap1\n      sload\n      swap1\n      0x0100\n      exp\n      swap1\n      div\n      0xffffffffffffffffffffffffffffffffffffffff\n      and\n        /* \"experiences/0006/TransactionFunder.sol\":304:323  msg.sender == owner */\n      0xffffffffffffffffffffffffffffffffffffffff\n      and\n        /* \"experiences/0006/TransactionFunder.sol\":304:314  msg.sender */\n      caller\n        /* \"experiences/0006/TransactionFunder.sol\":304:323  msg.sender == owner */\n      0xffffffffffffffffffffffffffffffffffffffff\n      and\n      eq\n        /* \"experiences/0006/TransactionFunder.sol\":296:351  require(msg.sender == owner, \"Only owner can do that!\") */\n      tag_30\n      jumpi\n      mload(0x40)\n      0x08c379a000000000000000000000000000000000000000000000000000000000\n      dup2\n      mstore\n      0x04\n      add\n      tag_31\n      swap1\n      tag_32\n      jump\t// in\n    tag_31:\n      mload(0x40)\n      dup1\n      swap2\n      sub\n      swap1\n      revert\n    tag_30:\n        /* \"experiences/0006/TransactionFunder.sol\":576:581  owner */\n      0x02\n      0x00\n      swap1\n      sload\n      swap1\n      0x0100\n      exp\n      swap1\n      div\n      0xffffffffffffffffffffffffffffffffffffffff\n      and\n        /* \"experiences/0006/TransactionFunder.sol\":568:591  payable(owner).transfer */\n      0xffffffffffffffffffffffffffffffffffffffff\n      and\n        /* \"experiences/0006/TransactionFunder.sol\":568:614  payable(owner).transfer(address(this).balance) */\n      0x08fc\n        /* \"experiences/0006/TransactionFunder.sol\":592:613  address(this).balance */\n      selfbalance\n        /* \"experiences/0006/TransactionFunder.sol\":568:614  payable(owner).transfer(address(this).balance) */\n      swap1\n      dup2\n      iszero\n      mul\n      swap1\n      mload(0x40)\n      0x00\n      mload(0x40)\n      dup1\n      dup4\n      sub\n      dup2\n      dup6\n      dup9\n      dup9\n      call\n      swap4\n      pop\n      pop\n      pop\n      pop\n      iszero\n      dup1\n      iszero\n      tag_35\n      jumpi\n      returndatasize\n      0x00\n      dup1\n      returndatacopy\n      revert(0x00, returndatasize)\n    tag_35:\n      pop\n        /* \"experiences/0006/TransactionFunder.sol\":630:649  uint256 funderIndex */\n      0x00\n        /* \"experiences/0006/TransactionFunder.sol\":625:802  for (uint256 funderIndex = 0; funderIndex < funders.length; funderIndex++) {... */\n    tag_36:\n        /* \"experiences/0006/TransactionFunder.sol\":669:676  funders */\n      0x01\n        /* \"experiences/0006/TransactionFunder.sol\":669:683  funders.length */\n      dup1\n      sload\n      swap1\n      pop\n        /* \"experiences/0006/TransactionFunder.sol\":655:666  funderIndex */\n      dup2\n        /* \"experiences/0006/TransactionFunder.sol\":655:683  funderIndex < funders.length */\n      lt\n        /* \"experiences/0006/TransactionFunder.sol\":625:802  for (uint256 funderIndex = 0; funderIndex < funders.length; funderIndex++) {... */\n      iszero\n      tag_37\n      jumpi\n        /* \"experiences/0006/TransactionFunder.sol\":715:729  address funder */\n      0x00\n        /* \"experiences/0006/TransactionFunder.sol\":732:739  funders */\n      0x01\n        /* \"experiences/0006/TransactionFunder.sol\":740:751  funderIndex */\n      dup3\n        /* \"experiences/0006/TransactionFunder.sol\":732:752  funders[funderIndex] */\n      dup2\n      sload\n      dup2\n      lt\n      tag_39\n      jumpi\n      tag_40\n      tag_41\n      jump\t// in\n    tag_40:\n    tag_39:\n      swap1\n      0x00\n      mstore\n      keccak256(0x00, 0x20)\n      add\n      0x00\n      swap1\n      sload\n      swap1\n      0x0100\n      exp\n      swap1\n      div\n      0xffffffffffffffffffffffffffffffffffffffff\n      and\n        /* \"experiences/0006/TransactionFunder.sol\":715:752  address funder = funders[funderIndex] */\n      swap1\n      pop\n        /* \"experiences/0006/TransactionFunder.sol\":789:790  0 */\n      0x00\n        /* \"experiences/0006/TransactionFunder.sol\":767:778  funderMoney */\n      dup1\n        /* \"experiences/0006/TransactionFunder.sol\":767:786  funderMoney[funder] */\n      0x00\n        /* \"experiences/0006/TransactionFunder.sol\":779:785  funder */\n      dup4\n        /* \"experiences/0006/TransactionFunder.sol\":767:786  funderMoney[funder] */\n      0xffffffffffffffffffffffffffffffffffffffff\n      and\n      0xffffffffffffffffffffffffffffffffffffffff\n      and\n      dup2\n      mstore\n      0x20\n      add\n      swap1\n      dup2\n      mstore\n      0x20\n      add\n      0x00\n      keccak256\n        /* \"experiences/0006/TransactionFunder.sol\":767:790  funderMoney[funder] = 0 */\n      dup2\n      swap1\n      sstore\n      pop\n        /* \"experiences/0006/TransactionFunder.sol\":700:802  {... */\n      pop\n        /* \"experiences/0006/TransactionFunder.sol\":685:698  funderIndex++ */\n      dup1\n      dup1\n      tag_43\n      swap1\n      tag_44\n      jump\t// in\n    tag_43:\n      swap2\n      pop\n      pop\n        /* \"experiences/0006/TransactionFunder.sol\":625:802  for (uint256 funderIndex = 0; funderIndex < funders.length; funderIndex++) {... */\n      jump(tag_36)\n    tag_37:\n      pop\n        /* \"experiences/0006/TransactionFunder.sol\":836:837  0 */\n      0x00\n        /* \"experiences/0006/TransactionFunder.sol\":822:838  new address[](0) */\n      0xffffffffffffffff\n      dup2\n      gt\n      iszero\n      tag_45\n      jumpi\n      tag_46\n      tag_47\n      jump\t// in\n    tag_46:\n    tag_45:\n      mload(0x40)\n      swap1\n      dup1\n      dup3\n      mstore\n      dup1\n      0x20\n      mul\n      0x20\n      add\n      dup3\n      add\n      0x40\n      mstore\n      dup1\n      iszero\n      tag_48\n      jumpi\n      dup2\n      0x20\n      add\n      0x20\n      dup3\n      mul\n      dup1\n      calldatasize\n      dup4\n      calldatacopy\n      dup1\n      dup3\n      add\n      swap2\n      pop\n      pop\n      swap1\n      pop\n    tag_48:\n      pop\n        /* \"experiences/0006/TransactionFunder.sol\":812:819  funders */\n      0x01\n        /* \"experiences/0006/TransactionFunder.sol\":812:838  funders = new address[](0) */\n      swap1\n      dup1\n      mload\n      swap1\n      0x20\n      add\n      swap1\n      tag_49\n      swap3\n      swap2\n      swap1\n      tag_50\n      jump\t// in\n    tag_49:\n      pop\n        /* \"experiences/0006/TransactionFunder.sol\":512:846  function withdraw() public onlyOwner payable {... */\n      jump\t// out\n        /* \"experiences/0006/TransactionFunder.sol\":178:198  address public owner */\n    tag_18:\n      0x02\n      0x00\n      swap1\n      sload\n      swap1\n      0x0100\n      exp\n      swap1\n      div\n      0xffffffffffffffffffffffffffffffffffffffff\n      and\n      dup2\n      jump\t// out\n        /* \"experiences/0006/TransactionFunder.sol\":379:500  function fund() public payable {... */\n    tag_22:\n        /* \"experiences/0006/TransactionFunder.sol\":448:457  msg.value */\n      callvalue\n        /* \"experiences/0006/TransactionFunder.sol\":421:432  funderMoney */\n      0x00\n        /* \"experiences/0006/TransactionFunder.sol\":421:444  funderMoney[msg.sender] */\n      dup1\n        /* \"experiences/0006/TransactionFunder.sol\":433:443  msg.sender */\n      caller\n        /* \"experiences/0006/TransactionFunder.sol\":421:444  funderMoney[msg.sender] */\n      0xffffffffffffffffffffffffffffffffffffffff\n      and\n      0xffffffffffffffffffffffffffffffffffffffff\n      and\n      dup2\n      mstore\n      0x20\n      add\n      swap1\n      dup2\n      mstore\n      0x20\n      add\n      0x00\n      keccak256\n      0x00\n        /* \"experiences/0006/TransactionFunder.sol\":421:457  funderMoney[msg.sender] += msg.value */\n      dup3\n      dup3\n      sload\n      tag_52\n      swap2\n      swap1\n      tag_53\n      jump\t// in\n    tag_52:\n      swap3\n      pop\n      pop\n      dup2\n      swap1\n      sstore\n      pop\n        /* \"experiences/0006/TransactionFunder.sol\":468:475  funders */\n      0x01\n        /* \"experiences/0006/TransactionFunder.sol\":481:491  msg.sender */\n      caller\n        /* \"experiences/0006/TransactionFunder.sol\":468:492  funders.push(msg.sender) */\n      swap1\n      dup1\n      0x01\n      dup2\n      sload\n      add\n      dup1\n      dup3\n      sstore\n      dup1\n      swap2\n      pop\n      pop\n      0x01\n      swap1\n      sub\n      swap1\n      0x00\n      mstore\n      keccak256(0x00, 0x20)\n      add\n      0x00\n      swap1\n      swap2\n      swap1\n      swap2\n      swap1\n      swap2\n      0x0100\n      exp\n      dup2\n      sload\n      dup2\n      0xffffffffffffffffffffffffffffffffffffffff\n      mul\n      not\n      and\n      swap1\n      dup4\n      0xffffffffffffffffffffffffffffffffffffffff\n      and\n      mul\n      or\n      swap1\n      sstore\n      pop\n        /* \"experiences/0006/TransactionFunder.sol\":379:500  function fund() public payable {... */\n      jump\t// out\n        /* \"experiences/0006/TransactionFunder.sol\":147:171  address[] public funders */\n    tag_27:\n      0x01\n      dup2\n      dup2\n      sload\n      dup2\n      lt\n      tag_55\n      jumpi\n      0x00\n      dup1\n      revert\n    tag_55:\n      swap1\n      0x00\n      mstore\n      keccak256(0x00, 0x20)\n      add\n      0x00\n      swap2\n      pop\n      sload\n      swap1\n      0x0100\n      exp\n      swap1\n      div\n      0xffffffffffffffffffffffffffffffffffffffff\n      and\n      dup2\n      jump\t// out\n    tag_50:\n      dup3\n      dup1\n      sload\n      dup3\n      dup3\n      sstore\n      swap1\n      0x00\n      mstore\n      keccak256(0x00, 0x20)\n      swap1\n      dup2\n      add\n      swap3\n      dup3\n      iszero\n      tag_57\n      jumpi\n      swap2\n      0x20\n      mul\n      dup3\n      add\n    tag_58:\n      dup3\n      dup2\n      gt\n      iszero\n      tag_59\n      jumpi\n      dup3\n      mload\n      dup3\n      exp(0x0100, 0x00)\n      dup2\n      sload\n      dup2\n      0xffffffffffffffffffffffffffffffffffffffff\n      mul\n      not\n      and\n      swap1\n      dup4\n      0xffffffffffffffffffffffffffffffffffffffff\n      and\n      mul\n      or\n      swap1\n      sstore\n      pop\n      swap2\n      0x20\n      add\n      swap2\n      swap1\n      0x01\n      add\n      swap1\n      jump(tag_58)\n    tag_59:\n    tag_57:\n      pop\n      swap1\n      pop\n      tag_60\n      swap2\n      swap1\n      tag_61\n      jump\t// in\n    tag_60:\n      pop\n      swap1\n      jump\t// out\n    tag_61:\n    tag_62:\n      dup1\n      dup3\n      gt\n      iszero\n      tag_63\n      jumpi\n      0x00\n      dup2\n      0x00\n      swap1\n      sstore\n      pop\n      0x01\n      add\n      jump(tag_62)\n    tag_63:\n      pop\n      swap1\n      jump\t// out\n        /* \"#utility.yul\":88:205   */\n    tag_65:\n        /* \"#utility.yul\":197:198   */\n      0x00\n        /* \"#utility.yul\":194:195   */\n      dup1\n        /* \"#utility.yul\":187:199   */\n      revert\n        /* \"#utility.yul\":334:460   */\n    tag_67:\n        /* \"#utility.yul\":371:378   */\n      0x00\n        /* \"#utility.yul\":411:453   */\n      0xffffffffffffffffffffffffffffffffffffffff\n        /* \"#utility.yul\":404:409   */\n      dup3\n        /* \"#utility.yul\":400:454   */\n      and\n        /* \"#utility.yul\":389:454   */\n      swap1\n      pop\n        /* \"#utility.yul\":334:460   */\n      swap2\n      swap1\n      pop\n      jump\t// out\n        /* \"#utility.yul\":466:562   */\n    tag_68:\n        /* \"#utility.yul\":503:510   */\n      0x00\n        /* \"#utility.yul\":532:556   */\n      tag_86\n        /* \"#utility.yul\":550:555   */\n      dup3\n        /* \"#utility.yul\":532:556   */\n      tag_67\n      jump\t// in\n    tag_86:\n        /* \"#utility.yul\":521:556   */\n      swap1\n      pop\n        /* \"#utility.yul\":466:562   */\n      swap2\n      swap1\n      pop\n      jump\t// out\n        /* \"#utility.yul\":568:690   */\n    tag_69:\n        /* \"#utility.yul\":641:665   */\n      tag_88\n        /* \"#utility.yul\":659:664   */\n      dup2\n        /* \"#utility.yul\":641:665   */\n      tag_68\n      jump\t// in\n    tag_88:\n        /* \"#utility.yul\":634:639   */\n      dup2\n        /* \"#utility.yul\":631:666   */\n      eq\n        /* \"#utility.yul\":621:684   */\n      tag_89\n      jumpi\n        /* \"#utility.yul\":680:681   */\n      0x00\n        /* \"#utility.yul\":677:678   */\n      dup1\n        /* \"#utility.yul\":670:682   */\n      revert\n        /* \"#utility.yul\":621:684   */\n    tag_89:\n        /* \"#utility.yul\":568:690   */\n      pop\n      jump\t// out\n        /* \"#utility.yul\":696:835   */\n    tag_70:\n        /* \"#utility.yul\":742:747   */\n      0x00\n        /* \"#utility.yul\":780:786   */\n      dup2\n        /* \"#utility.yul\":767:787   */\n      calldataload\n        /* \"#utility.yul\":758:787   */\n      swap1\n      pop\n        /* \"#utility.yul\":796:829   */\n      tag_91\n        /* \"#utility.yul\":823:828   */\n      dup2\n        /* \"#utility.yul\":796:829   */\n      tag_69\n      jump\t// in\n    tag_91:\n        /* \"#utility.yul\":696:835   */\n      swap3\n      swap2\n      pop\n      pop\n      jump\t// out\n        /* \"#utility.yul\":841:1170   */\n    tag_10:\n        /* \"#utility.yul\":900:906   */\n      0x00\n        /* \"#utility.yul\":949:951   */\n      0x20\n        /* \"#utility.yul\":937:946   */\n      dup3\n        /* \"#utility.yul\":928:935   */\n      dup5\n        /* \"#utility.yul\":924:947   */\n      sub\n        /* \"#utility.yul\":920:952   */\n      slt\n        /* \"#utility.yul\":917:1036   */\n      iszero\n      tag_93\n      jumpi\n        /* \"#utility.yul\":955:1034   */\n      tag_94\n      tag_65\n      jump\t// in\n    tag_94:\n        /* \"#utility.yul\":917:1036   */\n    tag_93:\n        /* \"#utility.yul\":1075:1076   */\n      0x00\n        /* \"#utility.yul\":1100:1153   */\n      tag_95\n        /* \"#utility.yul\":1145:1152   */\n      dup5\n        /* \"#utility.yul\":1136:1142   */\n      dup3\n        /* \"#utility.yul\":1125:1134   */\n      dup6\n        /* \"#utility.yul\":1121:1143   */\n      add\n        /* \"#utility.yul\":1100:1153   */\n      tag_70\n      jump\t// in\n    tag_95:\n        /* \"#utility.yul\":1090:1153   */\n      swap2\n      pop\n        /* \"#utility.yul\":1046:1163   */\n      pop\n        /* \"#utility.yul\":841:1170   */\n      swap3\n      swap2\n      pop\n      pop\n      jump\t// out\n        /* \"#utility.yul\":1176:1253   */\n    tag_71:\n        /* \"#utility.yul\":1213:1220   */\n      0x00\n        /* \"#utility.yul\":1242:1247   */\n      dup2\n        /* \"#utility.yul\":1231:1247   */\n      swap1\n      pop\n        /* \"#utility.yul\":1176:1253   */\n      swap2\n      swap1\n      pop\n      jump\t// out\n        /* \"#utility.yul\":1259:1377   */\n    tag_72:\n        /* \"#utility.yul\":1346:1370   */\n      tag_98\n        /* \"#utility.yul\":1364:1369   */\n      dup2\n        /* \"#utility.yul\":1346:1370   */\n      tag_71\n      jump\t// in\n    tag_98:\n        /* \"#utility.yul\":1341:1344   */\n      dup3\n        /* \"#utility.yul\":1334:1371   */\n      mstore\n        /* \"#utility.yul\":1259:1377   */\n      pop\n      pop\n      jump\t// out\n        /* \"#utility.yul\":1383:1605   */\n    tag_13:\n        /* \"#utility.yul\":1476:1480   */\n      0x00\n        /* \"#utility.yul\":1514:1516   */\n      0x20\n        /* \"#utility.yul\":1503:1512   */\n      dup3\n        /* \"#utility.yul\":1499:1517   */\n      add\n        /* \"#utility.yul\":1491:1517   */\n      swap1\n      pop\n        /* \"#utility.yul\":1527:1598   */\n      tag_100\n        /* \"#utility.yul\":1595:1596   */\n      0x00\n        /* \"#utility.yul\":1584:1593   */\n      dup4\n        /* \"#utility.yul\":1580:1597   */\n      add\n        /* \"#utility.yul\":1571:1577   */\n      dup5\n        /* \"#utility.yul\":1527:1598   */\n      tag_72\n      jump\t// in\n    tag_100:\n        /* \"#utility.yul\":1383:1605   */\n      swap3\n      swap2\n      pop\n      pop\n      jump\t// out\n        /* \"#utility.yul\":1611:1729   */\n    tag_73:\n        /* \"#utility.yul\":1698:1722   */\n      tag_102\n        /* \"#utility.yul\":1716:1721   */\n      dup2\n        /* \"#utility.yul\":1698:1722   */\n      tag_68\n      jump\t// in\n    tag_102:\n        /* \"#utility.yul\":1693:1696   */\n      dup3\n        /* \"#utility.yul\":1686:1723   */\n      mstore\n        /* \"#utility.yul\":1611:1729   */\n      pop\n      pop\n      jump\t// out\n        /* \"#utility.yul\":1735:1957   */\n    tag_20:\n        /* \"#utility.yul\":1828:1832   */\n      0x00\n        /* \"#utility.yul\":1866:1868   */\n      0x20\n        /* \"#utility.yul\":1855:1864   */\n      dup3\n        /* \"#utility.yul\":1851:1869   */\n      add\n        /* \"#utility.yul\":1843:1869   */\n      swap1\n      pop\n        /* \"#utility.yul\":1879:1950   */\n      tag_104\n        /* \"#utility.yul\":1947:1948   */\n      0x00\n        /* \"#utility.yul\":1936:1945   */\n      dup4\n        /* \"#utility.yul\":1932:1949   */\n      add\n        /* \"#utility.yul\":1923:1929   */\n      dup5\n        /* \"#utility.yul\":1879:1950   */\n      tag_73\n      jump\t// in\n    tag_104:\n        /* \"#utility.yul\":1735:1957   */\n      swap3\n      swap2\n      pop\n      pop\n      jump\t// out\n        /* \"#utility.yul\":1963:2085   */\n    tag_74:\n        /* \"#utility.yul\":2036:2060   */\n      tag_106\n        /* \"#utility.yul\":2054:2059   */\n      dup2\n        /* \"#utility.yul\":2036:2060   */\n      tag_71\n      jump\t// in\n    tag_106:\n        /* \"#utility.yul\":2029:2034   */\n      dup2\n        /* \"#utility.yul\":2026:2061   */\n      eq\n        /* \"#utility.yul\":2016:2079   */\n      tag_107\n      jumpi\n        /* \"#utility.yul\":2075:2076   */\n      0x00\n        /* \"#utility.yul\":2072:2073   */\n      dup1\n        /* \"#utility.yul\":2065:2077   */\n      revert\n        /* \"#utility.yul\":2016:2079   */\n    tag_107:\n        /* \"#utility.yul\":1963:2085   */\n      pop\n      jump\t// out\n        /* \"#utility.yul\":2091:2230   */\n    tag_75:\n        /* \"#utility.yul\":2137:2142   */\n      0x00\n        /* \"#utility.yul\":2175:2181   */\n      dup2\n        /* \"#utility.yul\":2162:2182   */\n      calldataload\n        /* \"#utility.yul\":2153:2182   */\n      swap1\n      pop\n        /* \"#utility.yul\":2191:2224   */\n      tag_109\n        /* \"#utility.yul\":2218:2223   */\n      dup2\n        /* \"#utility.yul\":2191:2224   */\n      tag_74\n      jump\t// in\n    tag_109:\n        /* \"#utility.yul\":2091:2230   */\n      swap3\n      swap2\n      pop\n      pop\n      jump\t// out\n        /* \"#utility.yul\":2236:2565   */\n    tag_26:\n        /* \"#utility.yul\":2295:2301   */\n      0x00\n        /* \"#utility.yul\":2344:2346   */\n      0x20\n        /* \"#utility.yul\":2332:2341   */\n      dup3\n        /* \"#utility.yul\":2323:2330   */\n      dup5\n        /* \"#utility.yul\":2319:2342   */\n      sub\n        /* \"#utility.yul\":2315:2347   */\n      slt\n        /* \"#utility.yul\":2312:2431   */\n      iszero\n      tag_111\n      jumpi\n        /* \"#utility.yul\":2350:2429   */\n      tag_112\n      tag_65\n      jump\t// in\n    tag_112:\n        /* \"#utility.yul\":2312:2431   */\n    tag_111:\n        /* \"#utility.yul\":2470:2471   */\n      0x00\n        /* \"#utility.yul\":2495:2548   */\n      tag_113\n        /* \"#utility.yul\":2540:2547   */\n      dup5\n        /* \"#utility.yul\":2531:2537   */\n      dup3\n        /* \"#utility.yul\":2520:2529   */\n      dup6\n        /* \"#utility.yul\":2516:2538   */\n      add\n        /* \"#utility.yul\":2495:2548   */\n      tag_75\n      jump\t// in\n    tag_113:\n        /* \"#utility.yul\":2485:2548   */\n      swap2\n      pop\n        /* \"#utility.yul\":2441:2558   */\n      pop\n        /* \"#utility.yul\":2236:2565   */\n      swap3\n      swap2\n      pop\n      pop\n      jump\t// out\n        /* \"#utility.yul\":2571:2740   */\n    tag_76:\n        /* \"#utility.yul\":2655:2666   */\n      0x00\n        /* \"#utility.yul\":2689:2695   */\n      dup3\n        /* \"#utility.yul\":2684:2687   */\n      dup3\n        /* \"#utility.yul\":2677:2696   */\n      mstore\n        /* \"#utility.yul\":2729:2733   */\n      0x20\n        /* \"#utility.yul\":2724:2727   */\n      dup3\n        /* \"#utility.yul\":2720:2734   */\n      add\n        /* \"#utility.yul\":2705:2734   */\n      swap1\n      pop\n        /* \"#utility.yul\":2571:2740   */\n      swap3\n      swap2\n      pop\n      pop\n      jump\t// out\n        /* \"#utility.yul\":2746:2919   */\n    tag_77:\n        /* \"#utility.yul\":2886:2911   */\n      0x4f6e6c79206f776e65722063616e20646f207468617421000000000000000000\n        /* \"#utility.yul\":2882:2883   */\n      0x00\n        /* \"#utility.yul\":2874:2880   */\n      dup3\n        /* \"#utility.yul\":2870:2884   */\n      add\n        /* \"#utility.yul\":2863:2912   */\n      mstore\n        /* \"#utility.yul\":2746:2919   */\n      pop\n      jump\t// out\n        /* \"#utility.yul\":2925:3291   */\n    tag_78:\n        /* \"#utility.yul\":3067:3070   */\n      0x00\n        /* \"#utility.yul\":3088:3155   */\n      tag_117\n        /* \"#utility.yul\":3152:3154   */\n      0x17\n        /* \"#utility.yul\":3147:3150   */\n      dup4\n        /* \"#utility.yul\":3088:3155   */\n      tag_76\n      jump\t// in\n    tag_117:\n        /* \"#utility.yul\":3081:3155   */\n      swap2\n      pop\n        /* \"#utility.yul\":3164:3257   */\n      tag_118\n        /* \"#utility.yul\":3253:3256   */\n      dup3\n        /* \"#utility.yul\":3164:3257   */\n      tag_77\n      jump\t// in\n    tag_118:\n        /* \"#utility.yul\":3282:3284   */\n      0x20\n        /* \"#utility.yul\":3277:3280   */\n      dup3\n        /* \"#utility.yul\":3273:3285   */\n      add\n        /* \"#utility.yul\":3266:3285   */\n      swap1\n      pop\n        /* \"#utility.yul\":2925:3291   */\n      swap2\n      swap1\n      pop\n      jump\t// out\n        /* \"#utility.yul\":3297:3716   */\n    tag_32:\n        /* \"#utility.yul\":3463:3467   */\n      0x00\n        /* \"#utility.yul\":3501:3503   */\n      0x20\n        /* \"#utility.yul\":3490:3499   */\n      dup3\n        /* \"#utility.yul\":3486:3504   */\n      add\n        /* \"#utility.yul\":3478:3504   */\n      swap1\n      pop\n        /* \"#utility.yul\":3550:3559   */\n      dup2\n        /* \"#utility.yul\":3544:3548   */\n      dup2\n        /* \"#utility.yul\":3540:3560   */\n      sub\n        /* \"#utility.yul\":3536:3537   */\n      0x00\n        /* \"#utility.yul\":3525:3534   */\n      dup4\n        /* \"#utility.yul\":3521:3538   */\n      add\n        /* \"#utility.yul\":3514:3561   */\n      mstore\n        /* \"#utility.yul\":3578:3709   */\n      tag_120\n        /* \"#utility.yul\":3704:3708   */\n      dup2\n        /* \"#utility.yul\":3578:3709   */\n      tag_78\n      jump\t// in\n    tag_120:\n        /* \"#utility.yul\":3570:3709   */\n      swap1\n      pop\n        /* \"#utility.yul\":3297:3716   */\n      swap2\n      swap1\n      pop\n      jump\t// out\n        /* \"#utility.yul\":3722:3902   */\n    tag_41:\n        /* \"#utility.yul\":3770:3847   */\n      0x4e487b7100000000000000000000000000000000000000000000000000000000\n        /* \"#utility.yul\":3767:3768   */\n      0x00\n        /* \"#utility.yul\":3760:3848   */\n      mstore\n        /* \"#utility.yul\":3867:3871   */\n      0x32\n        /* \"#utility.yul\":3864:3865   */\n      0x04\n        /* \"#utility.yul\":3857:3872   */\n      mstore\n        /* \"#utility.yul\":3891:3895   */\n      0x24\n        /* \"#utility.yul\":3888:3889   */\n      0x00\n        /* \"#utility.yul\":3881:3896   */\n      revert\n        /* \"#utility.yul\":3908:4088   */\n    tag_79:\n        /* \"#utility.yul\":3956:4033   */\n      0x4e487b7100000000000000000000000000000000000000000000000000000000\n        /* \"#utility.yul\":3953:3954   */\n      0x00\n        /* \"#utility.yul\":3946:4034   */\n      mstore\n        /* \"#utility.yul\":4053:4057   */\n      0x11\n        /* \"#utility.yul\":4050:4051   */\n      0x04\n        /* \"#utility.yul\":4043:4058   */\n      mstore\n        /* \"#utility.yul\":4077:4081   */\n      0x24\n        /* \"#utility.yul\":4074:4075   */\n      0x00\n        /* \"#utility.yul\":4067:4082   */\n      revert\n        /* \"#utility.yul\":4094:4327   */\n    tag_44:\n        /* \"#utility.yul\":4133:4136   */\n      0x00\n        /* \"#utility.yul\":4156:4180   */\n      tag_124\n        /* \"#utility.yul\":4174:4179   */\n      dup3\n        /* \"#utility.yul\":4156:4180   */\n      tag_71\n      jump\t// in\n    tag_124:\n        /* \"#utility.yul\":4147:4180   */\n      swap2\n      pop\n        /* \"#utility.yul\":4202:4268   */\n      0xffffffffffffffffffffffffffffffffffffffffffffffffffffffffffffffff\n        /* \"#utility.yul\":4195:4200   */\n      dup3\n        /* \"#utility.yul\":4192:4269   */\n      sub\n        /* \"#utility.yul\":4189:4292   */\n      tag_125\n      jumpi\n        /* \"#utility.yul\":4272:4290   */\n      tag_126\n      tag_79\n      jump\t// in\n    tag_126:\n        /* \"#utility.yul\":4189:4292   */\n    tag_125:\n        /* \"#utility.yul\":4319:4320   */\n      0x01\n        /* \"#utility.yul\":4312:4317   */\n      dup3\n        /* \"#utility.yul\":4308:4321   */\n      add\n        /* \"#utility.yul\":4301:4321   */\n      swap1\n      pop\n        /* \"#utility.yul\":4094:4327   */\n      swap2\n      swap1\n      pop\n      jump\t// out\n        /* \"#utility.yul\":4333:4513   */\n    tag_47:\n        /* \"#utility.yul\":4381:4458   */\n      0x4e487b7100000000000000000000000000000000000000000000000000000000\n        /* \"#utility.yul\":4378:4379   */\n      0x00\n        /* \"#utility.yul\":4371:4459   */\n      mstore\n        /* \"#utility.yul\":4478:4482   */\n      0x41\n        /* \"#utility.yul\":4475:4476   */\n      0x04\n        /* \"#utility.yul\":4468:4483   */\n      mstore\n        /* \"#utility.yul\":4502:4506   */\n      0x24\n        /* \"#utility.yul\":4499:4500   */\n      0x00\n        /* \"#utility.yul\":4492:4507   */\n      revert\n        /* \"#utility.yul\":4519:4710   */\n    tag_53:\n        /* \"#utility.yul\":4559:4562   */\n      0x00\n        /* \"#utility.yul\":4578:4598   */\n      tag_129\n        /* \"#utility.yul\":4596:4597   */\n      dup3\n        /* \"#utility.yul\":4578:4598   */\n      tag_71\n      jump\t// in\n    tag_129:\n        /* \"#utility.yul\":4573:4598   */\n      swap2\n      pop\n        /* \"#utility.yul\":4612:4632   */\n      tag_130\n        /* \"#utility.yul\":4630:4631   */\n      dup4\n        /* \"#utility.yul\":4612:4632   */\n      tag_71\n      jump\t// in\n    tag_130:\n        /* \"#utility.yul\":4607:4632   */\n      swap3\n      pop\n        /* \"#utility.yul\":4655:4656   */\n      dup3\n        /* \"#utility.yul\":4652:4653   */\n      dup3\n        /* \"#utility.yul\":4648:4657   */\n      add\n        /* \"#utility.yul\":4641:4657   */\n      swap1\n      pop\n        /* \"#utility.yul\":4676:4679   */\n      dup1\n        /* \"#utility.yul\":4673:4674   */\n      dup3\n        /* \"#utility.yul\":4670:4680   */\n      gt\n        /* \"#utility.yul\":4667:4703   */\n      iszero\n      tag_131\n      jumpi\n        /* \"#utility.yul\":4683:4701   */\n      tag_132\n      tag_79\n      jump\t// in\n    tag_132:\n        /* \"#utility.yul\":4667:4703   */\n    tag_131:\n        /* \"#utility.yul\":4519:4710   */\n      swap3\n      swap2\n      pop\n      pop\n      jump\t// out\n\n    auxdata: 0xa26469706673582212201e278b027fd097b5c7df86154586eb1238ea75291a75d545c14dd364800b7ec864736f6c63430008140033\n}\n",
				"bytecode": {
					"linkReferences": {},
					"object": "608060405234801561000f575f80fd5b503360025f6101000a81548173ffffffffffffffffffffffffffffffffffffffff021916908373ffffffffffffffffffffffffffffffffffffffff1602179055506107ac8061005d5f395ff3fe608060405260043610610049575f3560e01c80630e0384411461004d5780633ccfd60b146100895780638da5cb5b14610093578063b60d4288146100bd578063dc0d3dff146100c7575b5f80fd5b348015610058575f80fd5b50610073600480360381019061006e9190610524565b610103565b6040516100809190610567565b60405180910390f35b610091610117565b005b34801561009e575f80fd5b506100a7610310565b6040516100b4919061058f565b60405180910390f35b6100c5610335565b005b3480156100d2575f80fd5b506100ed60048036038101906100e891906105d2565b6103e9565b6040516100fa919061058f565b60405180910390f35b5f602052805f5260405f205f915090505481565b60025f9054906101000a900473ffffffffffffffffffffffffffffffffffffffff1673ffffffffffffffffffffffffffffffffffffffff163373ffffffffffffffffffffffffffffffffffffffff16146101a6576040517f08c379a000000000000000000000000000000000000000000000000000000000815260040161019d90610657565b60405180910390fd5b60025f9054906101000a900473ffffffffffffffffffffffffffffffffffffffff1673ffffffffffffffffffffffffffffffffffffffff166108fc4790811502906040515f60405180830381858888f1935050505015801561020a573d5f803e3d5ffd5b505f5b6001805490508110156102ae575f6001828154811061022f5761022e610675565b5b905f5260205f20015f9054906101000a900473ffffffffffffffffffffffffffffffffffffffff1690505f805f8373ffffffffffffffffffffffffffffffffffffffff1673ffffffffffffffffffffffffffffffffffffffff1681526020019081526020015f20819055505080806102a6906106cf565b91505061020d565b505f67ffffffffffffffff8111156102c9576102c8610716565b5b6040519080825280602002602001820160405280156102f75781602001602082028036833780820191505090505b506001908051906020019061030d929190610424565b50565b60025f9054906101000a900473ffffffffffffffffffffffffffffffffffffffff1681565b345f803373ffffffffffffffffffffffffffffffffffffffff1673ffffffffffffffffffffffffffffffffffffffff1681526020019081526020015f205f8282546103809190610743565b92505081905550600133908060018154018082558091505060019003905f5260205f20015f9091909190916101000a81548173ffffffffffffffffffffffffffffffffffffffff021916908373ffffffffffffffffffffffffffffffffffffffff160217905550565b600181815481106103f8575f80fd5b905f5260205f20015f915054906101000a900473ffffffffffffffffffffffffffffffffffffffff1681565b828054828255905f5260205f2090810192821561049a579160200282015b82811115610499578251825f6101000a81548173ffffffffffffffffffffffffffffffffffffffff021916908373ffffffffffffffffffffffffffffffffffffffff16021790555091602001919060010190610442565b5b5090506104a791906104ab565b5090565b5b808211156104c2575f815f9055506001016104ac565b5090565b5f80fd5b5f73ffffffffffffffffffffffffffffffffffffffff82169050919050565b5f6104f3826104ca565b9050919050565b610503816104e9565b811461050d575f80fd5b50565b5f8135905061051e816104fa565b92915050565b5f60208284031215610539576105386104c6565b5b5f61054684828501610510565b91505092915050565b5f819050919050565b6105618161054f565b82525050565b5f60208201905061057a5f830184610558565b92915050565b610589816104e9565b82525050565b5f6020820190506105a25f830184610580565b92915050565b6105b18161054f565b81146105bb575f80fd5b50565b5f813590506105cc816105a8565b92915050565b5f602082840312156105e7576105e66104c6565b5b5f6105f4848285016105be565b91505092915050565b5f82825260208201905092915050565b7f4f6e6c79206f776e65722063616e20646f2074686174210000000000000000005f82015250565b5f6106416017836105fd565b915061064c8261060d565b602082019050919050565b5f6020820190508181035f83015261066e81610635565b9050919050565b7f4e487b71000000000000000000000000000000000000000000000000000000005f52603260045260245ffd5b7f4e487b71000000000000000000000000000000000000000000000000000000005f52601160045260245ffd5b5f6106d98261054f565b91507fffffffffffffffffffffffffffffffffffffffffffffffffffffffffffffffff820361070b5761070a6106a2565b5b600182019050919050565b7f4e487b71000000000000000000000000000000000000000000000000000000005f52604160045260245ffd5b5f61074d8261054f565b91506107588361054f565b92508282019050808211156107705761076f6106a2565b5b9291505056fea26469706673582212201e278b027fd097b5c7df86154586eb1238ea75291a75d545c14dd364800b7ec864736f6c63430008140033",
					"opcodes": "PUSH1 0x80 PUSH1 0x40 MSTORE CALLVALUE DUP1 ISZERO PUSH2 0xF JUMPI PUSH0 DUP1 REVERT JUMPDEST POP CALLER PUSH1 0x2 PUSH0 PUSH2 0x100 EXP DUP2 SLOAD DUP2 PUSH20 0xFFFFFFFFFFFFFFFFFFFFFFFFFFFFFFFFFFFFFFFF MUL NOT AND SWAP1 DUP4 PUSH20 0xFFFFFFFFFFFFFFFFFFFFFFFFFFFFFFFFFFFFFFFF AND MUL OR SWAP1 SSTORE POP PUSH2 0x7AC DUP1 PUSH2 0x5D PUSH0 CODECOPY PUSH0 RETURN INVALID PUSH1 0x80 PUSH1 0x40 MSTORE PUSH1 0x4 CALLDATASIZE LT PUSH2 0x49 JUMPI PUSH0 CALLDATALOAD PUSH1 0xE0 SHR DUP1 PUSH4 0xE038441 EQ PUSH2 0x4D JUMPI DUP1 PUSH4 0x3CCFD60B EQ PUSH2 0x89 JUMPI DUP1 PUSH4 0x8DA5CB5B EQ PUSH2 0x93 JUMPI DUP1 PUSH4 0xB60D4288 EQ PUSH2 0xBD JUMPI DUP1 PUSH4 0xDC0D3DFF EQ PUSH2 0xC7 JUMPI JUMPDEST PUSH0 DUP1 REVERT JUMPDEST CALLVALUE DUP1 ISZERO PUSH2 0x58 JUMPI PUSH0 DUP1 REVERT JUMPDEST POP PUSH2 0x73 PUSH1 0x4 DUP1 CALLDATASIZE SUB DUP2 ADD SWAP1 PUSH2 0x6E SWAP2 SWAP1 PUSH2 0x524 JUMP JUMPDEST PUSH2 0x103 JUMP JUMPDEST PUSH1 0x40 MLOAD PUSH2 0x80 SWAP2 SWAP1 PUSH2 0x567 JUMP JUMPDEST PUSH1 0x40 MLOAD DUP1 SWAP2 SUB SWAP1 RETURN JUMPDEST PUSH2 0x91 PUSH2 0x117 JUMP JUMPDEST STOP JUMPDEST CALLVALUE DUP1 ISZERO PUSH2 0x9E JUMPI PUSH0 DUP1 REVERT JUMPDEST POP PUSH2 0xA7 PUSH2 0x310 JUMP JUMPDEST PUSH1 0x40 MLOAD PUSH2 0xB4 SWAP2 SWAP1 PUSH2 0x58F JUMP JUMPDEST PUSH1 0x40 MLOAD DUP1 SWAP2 SUB SWAP1 RETURN JUMPDEST PUSH2 0xC5 PUSH2 0x335 JUMP JUMPDEST STOP JUMPDEST CALLVALUE DUP1 ISZERO PUSH2 0xD2 JUMPI PUSH0 DUP1 REVERT JUMPDEST POP PUSH2 0xED PUSH1 0x4 DUP1 CALLDATASIZE SUB DUP2 ADD SWAP1 PUSH2 0xE8 SWAP2 SWAP1 PUSH2 0x5D2 JUMP JUMPDEST PUSH2 0x3E9 JUMP JUMPDEST PUSH1 0x40 MLOAD PUSH2 0xFA SWAP2 SWAP1 PUSH2 0x58F JUMP JUMPDEST PUSH1 0x40 MLOAD DUP1 SWAP2 SUB SWAP1 RETURN JUMPDEST PUSH0 PUSH1 0x20 MSTORE DUP1 PUSH0 MSTORE PUSH1 0x40 PUSH0 KECCAK256 PUSH0 SWAP2 POP SWAP1 POP SLOAD DUP2 JUMP JUMPDEST PUSH1 0x2 PUSH0 SWAP1 SLOAD SWAP1 PUSH2 0x100 EXP SWAP1 DIV PUSH20 0xFFFFFFFFFFFFFFFFFFFFFFFFFFFFFFFFFFFFFFFF AND PUSH20 0xFFFFFFFFFFFFFFFFFFFFFFFFFFFFFFFFFFFFFFFF AND CALLER PUSH20 0xFFFFFFFFFFFFFFFFFFFFFFFFFFFFFFFFFFFFFFFF AND EQ PUSH2 0x1A6 JUMPI PUSH1 0x40 MLOAD PUSH32 0x8C379A000000000000000000000000000000000000000000000000000000000 DUP2 MSTORE PUSH1 0x4 ADD PUSH2 0x19D SWAP1 PUSH2 0x657 JUMP JUMPDEST PUSH1 0x40 MLOAD DUP1 SWAP2 SUB SWAP1 REVERT JUMPDEST PUSH1 0x2 PUSH0 SWAP1 SLOAD SWAP1 PUSH2 0x100 EXP SWAP1 DIV PUSH20 0xFFFFFFFFFFFFFFFFFFFFFFFFFFFFFFFFFFFFFFFF AND PUSH20 0xFFFFFFFFFFFFFFFFFFFFFFFFFFFFFFFFFFFFFFFF AND PUSH2 0x8FC SELFBALANCE SWAP1 DUP2 ISZERO MUL SWAP1 PUSH1 0x40 MLOAD PUSH0 PUSH1 0x40 MLOAD DUP1 DUP4 SUB DUP2 DUP6 DUP9 DUP9 CALL SWAP4 POP POP POP POP ISZERO DUP1 ISZERO PUSH2 0x20A JUMPI RETURNDATASIZE PUSH0 DUP1 RETURNDATACOPY RETURNDATASIZE PUSH0 REVERT JUMPDEST POP PUSH0 JUMPDEST PUSH1 0x1 DUP1 SLOAD SWAP1 POP DUP2 LT ISZERO PUSH2 0x2AE JUMPI PUSH0 PUSH1 0x1 DUP3 DUP2 SLOAD DUP2 LT PUSH2 0x22F JUMPI PUSH2 0x22E PUSH2 0x675 JUMP JUMPDEST JUMPDEST SWAP1 PUSH0 MSTORE PUSH1 0x20 PUSH0 KECCAK256 ADD PUSH0 SWAP1 SLOAD SWAP1 PUSH2 0x100 EXP SWAP1 DIV PUSH20 0xFFFFFFFFFFFFFFFFFFFFFFFFFFFFFFFFFFFFFFFF AND SWAP1 POP PUSH0 DUP1 PUSH0 DUP4 PUSH20 0xFFFFFFFFFFFFFFFFFFFFFFFFFFFFFFFFFFFFFFFF AND PUSH20 0xFFFFFFFFFFFFFFFFFFFFFFFFFFFFFFFFFFFFFFFF AND DUP2 MSTORE PUSH1 0x20 ADD SWAP1 DUP2 MSTORE PUSH1 0x20 ADD PUSH0 KECCAK256 DUP2 SWAP1 SSTORE POP POP DUP1 DUP1 PUSH2 0x2A6 SWAP1 PUSH2 0x6CF JUMP JUMPDEST SWAP2 POP POP PUSH2 0x20D JUMP JUMPDEST POP PUSH0 PUSH8 0xFFFFFFFFFFFFFFFF DUP2 GT ISZERO PUSH2 0x2C9 JUMPI PUSH2 0x2C8 PUSH2 0x716 JUMP JUMPDEST JUMPDEST PUSH1 0x40 MLOAD SWAP1 DUP1 DUP3 MSTORE DUP1 PUSH1 0x20 MUL PUSH1 0x20 ADD DUP3 ADD PUSH1 0x40 MSTORE DUP1 ISZERO PUSH2 0x2F7 JUMPI DUP2 PUSH1 0x20 ADD PUSH1 0x20 DUP3 MUL DUP1 CALLDATASIZE DUP4 CALLDATACOPY DUP1 DUP3 ADD SWAP2 POP POP SWAP1 POP JUMPDEST POP PUSH1 0x1 SWAP1 DUP1 MLOAD SWAP1 PUSH1 0x20 ADD SWAP1 PUSH2 0x30D SWAP3 SWAP2 SWAP1 PUSH2 0x424 JUMP JUMPDEST POP JUMP JUMPDEST PUSH1 0x2 PUSH0 SWAP1 SLOAD SWAP1 PUSH2 0x100 EXP SWAP1 DIV PUSH20 0xFFFFFFFFFFFFFFFFFFFFFFFFFFFFFFFFFFFFFFFF AND DUP2 JUMP JUMPDEST CALLVALUE PUSH0 DUP1 CALLER PUSH20 0xFFFFFFFFFFFFFFFFFFFFFFFFFFFFFFFFFFFFFFFF AND PUSH20 0xFFFFFFFFFFFFFFFFFFFFFFFFFFFFFFFFFFFFFFFF AND DUP2 MSTORE PUSH1 0x20 ADD SWAP1 DUP2 MSTORE PUSH1 0x20 ADD PUSH0 KECCAK256 PUSH0 DUP3 DUP3 SLOAD PUSH2 0x380 SWAP2 SWAP1 PUSH2 0x743 JUMP JUMPDEST SWAP3 POP POP DUP2 SWAP1 SSTORE POP PUSH1 0x1 CALLER SWAP1 DUP1 PUSH1 0x1 DUP2 SLOAD ADD DUP1 DUP3 SSTORE DUP1 SWAP2 POP POP PUSH1 0x1 SWAP1 SUB SWAP1 PUSH0 MSTORE PUSH1 0x20 PUSH0 KECCAK256 ADD PUSH0 SWAP1 SWAP2 SWAP1 SWAP2 SWAP1 SWAP2 PUSH2 0x100 EXP DUP2 SLOAD DUP2 PUSH20 0xFFFFFFFFFFFFFFFFFFFFFFFFFFFFFFFFFFFFFFFF MUL NOT AND SWAP1 DUP4 PUSH20 0xFFFFFFFFFFFFFFFFFFFFFFFFFFFFFFFFFFFFFFFF AND MUL OR SWAP1 SSTORE POP JUMP JUMPDEST PUSH1 0x1 DUP2 DUP2 SLOAD DUP2 LT PUSH2 0x3F8 JUMPI PUSH0 DUP1 REVERT JUMPDEST SWAP1 PUSH0 MSTORE PUSH1 0x20 PUSH0 KECCAK256 ADD PUSH0 SWAP2 POP SLOAD SWAP1 PUSH2 0x100 EXP SWAP1 DIV PUSH20 0xFFFFFFFFFFFFFFFFFFFFFFFFFFFFFFFFFFFFFFFF AND DUP2 JUMP JUMPDEST DUP3 DUP1 SLOAD DUP3 DUP3 SSTORE SWAP1 PUSH0 MSTORE PUSH1 0x20 PUSH0 KECCAK256 SWAP1 DUP2 ADD SWAP3 DUP3 ISZERO PUSH2 0x49A JUMPI SWAP2 PUSH1 0x20 MUL DUP3 ADD JUMPDEST DUP3 DUP2 GT ISZERO PUSH2 0x499 JUMPI DUP3 MLOAD DUP3 PUSH0 PUSH2 0x100 EXP DUP2 SLOAD DUP2 PUSH20 0xFFFFFFFFFFFFFFFFFFFFFFFFFFFFFFFFFFFFFFFF MUL NOT AND SWAP1 DUP4 PUSH20 0xFFFFFFFFFFFFFFFFFFFFFFFFFFFFFFFFFFFFFFFF AND MUL OR SWAP1 SSTORE POP SWAP2 PUSH1 0x20 ADD SWAP2 SWAP1 PUSH1 0x1 ADD SWAP1 PUSH2 0x442 JUMP JUMPDEST JUMPDEST POP SWAP1 POP PUSH2 0x4A7 SWAP2 SWAP1 PUSH2 0x4AB JUMP JUMPDEST POP SWAP1 JUMP JUMPDEST JUMPDEST DUP1 DUP3 GT ISZERO PUSH2 0x4C2 JUMPI PUSH0 DUP2 PUSH0 SWAP1 SSTORE POP PUSH1 0x1 ADD PUSH2 0x4AC JUMP JUMPDEST POP SWAP1 JUMP JUMPDEST PUSH0 DUP1 REVERT JUMPDEST PUSH0 PUSH20 0xFFFFFFFFFFFFFFFFFFFFFFFFFFFFFFFFFFFFFFFF DUP3 AND SWAP1 POP SWAP2 SWAP1 POP JUMP JUMPDEST PUSH0 PUSH2 0x4F3 DUP3 PUSH2 0x4CA JUMP JUMPDEST SWAP1 POP SWAP2 SWAP1 POP JUMP JUMPDEST PUSH2 0x503 DUP2 PUSH2 0x4E9 JUMP JUMPDEST DUP2 EQ PUSH2 0x50D JUMPI PUSH0 DUP1 REVERT JUMPDEST POP JUMP JUMPDEST PUSH0 DUP2 CALLDATALOAD SWAP1 POP PUSH2 0x51E DUP2 PUSH2 0x4FA JUMP JUMPDEST SWAP3 SWAP2 POP POP JUMP JUMPDEST PUSH0 PUSH1 0x20 DUP3 DUP5 SUB SLT ISZERO PUSH2 0x539 JUMPI PUSH2 0x538 PUSH2 0x4C6 JUMP JUMPDEST JUMPDEST PUSH0 PUSH2 0x546 DUP5 DUP3 DUP6 ADD PUSH2 0x510 JUMP JUMPDEST SWAP2 POP POP SWAP3 SWAP2 POP POP JUMP JUMPDEST PUSH0 DUP2 SWAP1 POP SWAP2 SWAP1 POP JUMP JUMPDEST PUSH2 0x561 DUP2 PUSH2 0x54F JUMP JUMPDEST DUP3 MSTORE POP POP JUMP JUMPDEST PUSH0 PUSH1 0x20 DUP3 ADD SWAP1 POP PUSH2 0x57A PUSH0 DUP4 ADD DUP5 PUSH2 0x558 JUMP JUMPDEST SWAP3 SWAP2 POP POP JUMP JUMPDEST PUSH2 0x589 DUP2 PUSH2 0x4E9 JUMP JUMPDEST DUP3 MSTORE POP POP JUMP JUMPDEST PUSH0 PUSH1 0x20 DUP3 ADD SWAP1 POP PUSH2 0x5A2 PUSH0 DUP4 ADD DUP5 PUSH2 0x580 JUMP JUMPDEST SWAP3 SWAP2 POP POP JUMP JUMPDEST PUSH2 0x5B1 DUP2 PUSH2 0x54F JUMP JUMPDEST DUP2 EQ PUSH2 0x5BB JUMPI PUSH0 DUP1 REVERT JUMPDEST POP JUMP JUMPDEST PUSH0 DUP2 CALLDATALOAD SWAP1 POP PUSH2 0x5CC DUP2 PUSH2 0x5A8 JUMP JUMPDEST SWAP3 SWAP2 POP POP JUMP JUMPDEST PUSH0 PUSH1 0x20 DUP3 DUP5 SUB SLT ISZERO PUSH2 0x5E7 JUMPI PUSH2 0x5E6 PUSH2 0x4C6 JUMP JUMPDEST JUMPDEST PUSH0 PUSH2 0x5F4 DUP5 DUP3 DUP6 ADD PUSH2 0x5BE JUMP JUMPDEST SWAP2 POP POP SWAP3 SWAP2 POP POP JUMP JUMPDEST PUSH0 DUP3 DUP3 MSTORE PUSH1 0x20 DUP3 ADD SWAP1 POP SWAP3 SWAP2 POP POP JUMP JUMPDEST PUSH32 0x4F6E6C79206F776E65722063616E20646F207468617421000000000000000000 PUSH0 DUP3 ADD MSTORE POP JUMP JUMPDEST PUSH0 PUSH2 0x641 PUSH1 0x17 DUP4 PUSH2 0x5FD JUMP JUMPDEST SWAP2 POP PUSH2 0x64C DUP3 PUSH2 0x60D JUMP JUMPDEST PUSH1 0x20 DUP3 ADD SWAP1 POP SWAP2 SWAP1 POP JUMP JUMPDEST PUSH0 PUSH1 0x20 DUP3 ADD SWAP1 POP DUP2 DUP2 SUB PUSH0 DUP4 ADD MSTORE PUSH2 0x66E DUP2 PUSH2 0x635 JUMP JUMPDEST SWAP1 POP SWAP2 SWAP1 POP JUMP JUMPDEST PUSH32 0x4E487B7100000000000000000000000000000000000000000000000000000000 PUSH0 MSTORE PUSH1 0x32 PUSH1 0x4 MSTORE PUSH1 0x24 PUSH0 REVERT JUMPDEST PUSH32 0x4E487B7100000000000000000000000000000000000000000000000000000000 PUSH0 MSTORE PUSH1 0x11 PUSH1 0x4 MSTORE PUSH1 0x24 PUSH0 REVERT JUMPDEST PUSH0 PUSH2 0x6D9 DUP3 PUSH2 0x54F JUMP JUMPDEST SWAP2 POP PUSH32 0xFFFFFFFFFFFFFFFFFFFFFFFFFFFFFFFFFFFFFFFFFFFFFFFFFFFFFFFFFFFFFFFF DUP3 SUB PUSH2 0x70B JUMPI PUSH2 0x70A PUSH2 0x6A2 JUMP JUMPDEST JUMPDEST PUSH1 0x1 DUP3 ADD SWAP1 POP SWAP2 SWAP1 POP JUMP JUMPDEST PUSH32 0x4E487B7100000000000000000000000000000000000000000000000000000000 PUSH0 MSTORE PUSH1 0x41 PUSH1 0x4 MSTORE PUSH1 0x24 PUSH0 REVERT JUMPDEST PUSH0 PUSH2 0x74D DUP3 PUSH2 0x54F JUMP JUMPDEST SWAP2 POP PUSH2 0x758 DUP4 PUSH2 0x54F JUMP JUMPDEST SWAP3 POP DUP3 DUP3 ADD SWAP1 POP DUP1 DUP3 GT ISZERO PUSH2 0x770 JUMPI PUSH2 0x76F PUSH2 0x6A2 JUMP JUMPDEST JUMPDEST SWAP3 SWAP2 POP POP JUMP INVALID LOG2 PUSH5 0x6970667358 0x22 SLT KECCAK256 0x1E 0x27 DUP12 MUL PUSH32 0xD097B5C7DF86154586EB1238EA75291A75D545C14DD364800B7EC864736F6C63 NUMBER STOP ADDMOD EQ STOP CALLER "
				},
				"gasEstimates": {
					"creation": {
						"codeDepositCost": "392800",
						"executionCost": "24693",
						"totalCost": "417493"
					},
					"external": {
						"fund()": "infinite",
						"funderMoney(address)": "2779",
						"funders(uint256)": "5010",
						"owner()": "2530",
						"withdraw()": "infinite"
					}
				},
				"methodIdentifiers": {
					"fund()": "b60d4288",
					"funderMoney(address)": "0e038441",
					"funders(uint256)": "dc0d3dff",
					"owner()": "8da5cb5b",
					"withdraw()": "3ccfd60b"
				}
			},
			"storageLayout": {
				"storage": [
					{
						"astId": 5,
						"contract": "experiences/0006/TransactionFunder.sol:TransactionFunder",
						"label": "funderMoney",
						"offset": 0,
						"slot": "0",
						"type": "t_mapping(t_address,t_uint256)"
					},
					{
						"astId": 8,
						"contract": "experiences/0006/TransactionFunder.sol:TransactionFunder",
						"label": "funders",
						"offset": 0,
						"slot": "1",
						"type": "t_array(t_address)dyn_storage"
					},
					{
						"astId": 10,
						"contract": "experiences/0006/TransactionFunder.sol:TransactionFunder",
						"label": "owner",
						"offset": 0,
						"slot": "2",
						"type": "t_address"
					}
				],
				"types": {
					"t_address": {
						"encoding": "inplace",
						"label": "address",
						"numberOfBytes": "20"
					},
					"t_array(t_address)dyn_storage": {
						"base": "t_address",
						"encoding": "dynamic_array",
						"label": "address[]",
						"numberOfBytes": "32"
					},
					"t_mapping(t_address,t_uint256)": {
						"encoding": "mapping",
						"key": "t_address",
						"label": "mapping(address => uint256)",
						"numberOfBytes": "32",
						"value": "t_uint256"
					},
					"t_uint256": {
						"encoding": "inplace",
						"label": "uint256",
						"numberOfBytes": "32"
					}
				}
			},
			"userdoc": {
				"kind": "user",
				"methods": {},
				"version": 1
			}
		}
	}
}