{
	"experiences/0007/ImmutableConstant.sol": {
		"ImmutableConstant": {
			"abi": [
				{
					"inputs": [],
					"stateMutability": "nonpayable",
					"type": "constructor"
				},
				{
					"inputs": [],
					"name": "NUMBER",
					"outputs": [
						{
							"internalType": "uint256",
							"name": "",
							"type": "uint256"
						}
					],
					"stateMutability": "view",
					"type": "function"
				},
				{
					"inputs": [],
					"name": "NUMBER_NOT_CONSTANT",
					"outputs": [
						{
							"internalType": "uint256",
							"name": "",
							"type": "uint256"
						}
					],
					"stateMutability": "view",
					"type": "function"
				},
				{
					"inputs": [],
					"name": "NUMBER_SMALL",
					"outputs": [
						{
							"internalType": "uint8",
							"name": "",
							"type": "uint8"
						}
					],
					"stateMutability": "view",
					"type": "function"
				},
				{
					"inputs": [],
					"name": "getNumber",
					"outputs": [
						{
							"internalType": "uint256",
							"name": "",
							"type": "uint256"
						}
					],
					"stateMutability": "pure",
					"type": "function"
				},
				{
					"inputs": [],
					"name": "getNumber2",
					"outputs": [
						{
							"internalType": "uint256",
							"name": "",
							"type": "uint256"
						}
					],
					"stateMutability": "pure",
					"type": "function"
				},
				{
					"inputs": [],
					"name": "getNumber3",
					"outputs": [
						{
							"internalType": "uint8",
							"name": "",
							"type": "uint8"
						}
					],
					"stateMutability": "pure",
					"type": "function"
				},
				{
					"inputs": [],
					"name": "getNumber4",
					"outputs": [
						{
							"internalType": "uint256",
							"name": "",
							"type": "uint256"
						}
					],
					"stateMutability": "pure",
					"type": "function"
				},
				{
					"inputs": [],
					"name": "getNumberNotConstant",
					"outputs": [
						{
							"internalType": "uint256",
							"name": "",
							"type": "uint256"
						}
					],
					"stateMutability": "view",
					"type": "function"
				},
				{
					"inputs": [],
					"name": "getTheSameNumberWithAVeryLongNameForTheFunction",
					"outputs": [
						{
							"internalType": "uint256",
							"name": "",
							"type": "uint256"
						}
					],
					"stateMutability": "pure",
					"type": "function"
				},
				{
					"inputs": [],
					"name": "iOwner",
					"outputs": [
						{
							"internalType": "address",
							"name": "",
							"type": "address"
						}
					],
					"stateMutability": "view",
					"type": "function"
				},
				{
					"inputs": [],
					"name": "owner",
					"outputs": [
						{
							"internalType": "address",
							"name": "",
							"type": "address"
						}
					],
					"stateMutability": "view",
					"type": "function"
				}
			],
			"devdoc": {
				"kind": "dev",
				"methods": {},
				"version": 1
			},
			"evm": {
				"assembly": "    /* \"experiences/0007/ImmutableConstant.sol\":60:1591  contract ImmutableConstant {... */\n  mstore(0x40, 0xa0)\n    /* \"experiences/0007/ImmutableConstant.sol\":268:270  50 */\n  0x32\n    /* \"experiences/0007/ImmutableConstant.sol\":231:270  uint256 public NUMBER_NOT_CONSTANT = 50 */\n  0x00\n  sstore\n    /* \"experiences/0007/ImmutableConstant.sol\":777:858  constructor() {... */\n  callvalue\n  dup1\n  iszero\n  tag_1\n  jumpi\n  0x00\n  dup1\n  revert\ntag_1:\n  pop\n    /* \"experiences/0007/ImmutableConstant.sol\":811:821  msg.sender */\n  caller\n    /* \"experiences/0007/ImmutableConstant.sol\":802:821  iOwner = msg.sender */\n  0xffffffffffffffffffffffffffffffffffffffff\n  and\n  0x80\n  dup2\n  0xffffffffffffffffffffffffffffffffffffffff\n  and\n  dup2\n  mstore\n  pop\n  pop\n    /* \"experiences/0007/ImmutableConstant.sol\":840:850  msg.sender */\n  caller\n    /* \"experiences/0007/ImmutableConstant.sol\":832:837  owner */\n  0x01\n  0x00\n    /* \"experiences/0007/ImmutableConstant.sol\":832:850  owner = msg.sender */\n  0x0100\n  exp\n  dup2\n  sload\n  dup2\n  0xffffffffffffffffffffffffffffffffffffffff\n  mul\n  not\n  and\n  swap1\n  dup4\n  0xffffffffffffffffffffffffffffffffffffffff\n  and\n  mul\n  or\n  swap1\n  sstore\n  pop\n    /* \"experiences/0007/ImmutableConstant.sol\":60:1591  contract ImmutableConstant {... */\n  mload(0x80)\n  codecopy(0x00, dataOffset(sub_0), dataSize(sub_0))\n  0x00\n  assignImmutable(\"0x7f8b6b088b6d74c2852fc86c796dca07b44eed6fb3daf5e6b59f7c364db14528\")\n  return(0x00, dataSize(sub_0))\nstop\n\nsub_0: assembly {\n        /* \"experiences/0007/ImmutableConstant.sol\":60:1591  contract ImmutableConstant {... */\n      mstore(0x40, 0x80)\n      callvalue\n      dup1\n      iszero\n      tag_1\n      jumpi\n      0x00\n      dup1\n      revert\n    tag_1:\n      pop\n      jumpi(tag_2, lt(calldatasize, 0x04))\n      shr(0xe0, calldataload(0x00))\n      dup1\n      0x77c9dd4b\n      gt\n      tag_14\n      jumpi\n      dup1\n      0x77c9dd4b\n      eq\n      tag_8\n      jumpi\n      dup1\n      0x8da5cb5b\n      eq\n      tag_9\n      jumpi\n      dup1\n      0x94e52ae9\n      eq\n      tag_10\n      jumpi\n      dup1\n      0x984d0f90\n      eq\n      tag_11\n      jumpi\n      dup1\n      0xbeb20864\n      eq\n      tag_12\n      jumpi\n      dup1\n      0xf2c9ecd8\n      eq\n      tag_13\n      jumpi\n      jump(tag_2)\n    tag_14:\n      dup1\n      0x40775a3e\n      eq\n      tag_3\n      jumpi\n      dup1\n      0x485cc7f5\n      eq\n      tag_4\n      jumpi\n      dup1\n      0x522edebe\n      eq\n      tag_5\n      jumpi\n      dup1\n      0x6e2a432a\n      eq\n      tag_6\n      jumpi\n      dup1\n      0x76f81bbf\n      eq\n      tag_7\n      jumpi\n    tag_2:\n      0x00\n      dup1\n      revert\n        /* \"experiences/0007/ImmutableConstant.sol\":140:175  uint256 public constant NUMBER = 50 */\n    tag_3:\n      tag_15\n      tag_16\n      jump\t// in\n    tag_15:\n      mload(0x40)\n      tag_17\n      swap2\n      swap1\n      tag_18\n      jump\t// in\n    tag_17:\n      mload(0x40)\n      dup1\n      swap2\n      sub\n      swap1\n      return\n        /* \"experiences/0007/ImmutableConstant.sol\":1103:1191  function getNumber3() public pure returns (uint8) {... */\n    tag_4:\n      tag_19\n      tag_20\n      jump\t// in\n    tag_19:\n      mload(0x40)\n      tag_21\n      swap2\n      swap1\n      tag_22\n      jump\t// in\n    tag_21:\n      mload(0x40)\n      dup1\n      swap2\n      sub\n      swap1\n      return\n        /* \"experiences/0007/ImmutableConstant.sol\":94:133  uint8 public constant NUMBER_SMALL = 50 */\n    tag_5:\n      tag_23\n      tag_24\n      jump\t// in\n    tag_23:\n      mload(0x40)\n      tag_25\n      swap2\n      swap1\n      tag_22\n      jump\t// in\n    tag_25:\n      mload(0x40)\n      dup1\n      swap2\n      sub\n      swap1\n      return\n        /* \"experiences/0007/ImmutableConstant.sol\":1481:1588  function getNumberNotConstant() public view returns (uint256) {... */\n    tag_6:\n      tag_26\n      tag_27\n      jump\t// in\n    tag_26:\n      mload(0x40)\n      tag_28\n      swap2\n      swap1\n      tag_18\n      jump\t// in\n    tag_28:\n      mload(0x40)\n      dup1\n      swap2\n      sub\n      swap1\n      return\n        /* \"experiences/0007/ImmutableConstant.sol\":1215:1305  function getNumber4() public pure returns (uint256) {... */\n    tag_7:\n      tag_29\n      tag_30\n      jump\t// in\n    tag_29:\n      mload(0x40)\n      tag_31\n      swap2\n      swap1\n      tag_18\n      jump\t// in\n    tag_31:\n      mload(0x40)\n      dup1\n      swap2\n      sub\n      swap1\n      return\n        /* \"experiences/0007/ImmutableConstant.sol\":691:722  address public immutable iOwner */\n    tag_8:\n      tag_32\n      tag_33\n      jump\t// in\n    tag_32:\n      mload(0x40)\n      tag_34\n      swap2\n      swap1\n      tag_35\n      jump\t// in\n    tag_34:\n      mload(0x40)\n      dup1\n      swap2\n      sub\n      swap1\n      return\n        /* \"experiences/0007/ImmutableConstant.sol\":748:768  address public owner */\n    tag_9:\n      tag_36\n      tag_37\n      jump\t// in\n    tag_36:\n      mload(0x40)\n      tag_38\n      swap2\n      swap1\n      tag_35\n      jump\t// in\n    tag_38:\n      mload(0x40)\n      dup1\n      swap2\n      sub\n      swap1\n      return\n        /* \"experiences/0007/ImmutableConstant.sol\":1329:1456  function getTheSameNumberWithAVeryLongNameForTheFunction() public pure returns (uint256) {... */\n    tag_10:\n      tag_39\n      tag_40\n      jump\t// in\n    tag_39:\n      mload(0x40)\n      tag_41\n      swap2\n      swap1\n      tag_18\n      jump\t// in\n    tag_41:\n      mload(0x40)\n      dup1\n      swap2\n      sub\n      swap1\n      return\n        /* \"experiences/0007/ImmutableConstant.sol\":989:1079  function getNumber2() public pure returns (uint256) {... */\n    tag_11:\n      tag_42\n      tag_43\n      jump\t// in\n    tag_42:\n      mload(0x40)\n      tag_44\n      swap2\n      swap1\n      tag_18\n      jump\t// in\n    tag_44:\n      mload(0x40)\n      dup1\n      swap2\n      sub\n      swap1\n      return\n        /* \"experiences/0007/ImmutableConstant.sol\":231:270  uint256 public NUMBER_NOT_CONSTANT = 50 */\n    tag_12:\n      tag_45\n      tag_46\n      jump\t// in\n    tag_45:\n      mload(0x40)\n      tag_47\n      swap2\n      swap1\n      tag_18\n      jump\t// in\n    tag_47:\n      mload(0x40)\n      dup1\n      swap2\n      sub\n      swap1\n      return\n        /* \"experiences/0007/ImmutableConstant.sol\":882:965  function getNumber() public pure returns (uint256) {... */\n    tag_13:\n      tag_48\n      tag_49\n      jump\t// in\n    tag_48:\n      mload(0x40)\n      tag_50\n      swap2\n      swap1\n      tag_18\n      jump\t// in\n    tag_50:\n      mload(0x40)\n      dup1\n      swap2\n      sub\n      swap1\n      return\n        /* \"experiences/0007/ImmutableConstant.sol\":140:175  uint256 public constant NUMBER = 50 */\n    tag_16:\n        /* \"experiences/0007/ImmutableConstant.sol\":173:175  50 */\n      0x32\n        /* \"experiences/0007/ImmutableConstant.sol\":140:175  uint256 public constant NUMBER = 50 */\n      dup2\n      jump\t// out\n        /* \"experiences/0007/ImmutableConstant.sol\":1103:1191  function getNumber3() public pure returns (uint8) {... */\n    tag_20:\n        /* \"experiences/0007/ImmutableConstant.sol\":1146:1151  uint8 */\n      0x00\n        /* \"experiences/0007/ImmutableConstant.sol\":131:133  50 */\n      0x32\n        /* \"experiences/0007/ImmutableConstant.sol\":1164:1183  return NUMBER_SMALL */\n      swap1\n      pop\n        /* \"experiences/0007/ImmutableConstant.sol\":1103:1191  function getNumber3() public pure returns (uint8) {... */\n      swap1\n      jump\t// out\n        /* \"experiences/0007/ImmutableConstant.sol\":94:133  uint8 public constant NUMBER_SMALL = 50 */\n    tag_24:\n        /* \"experiences/0007/ImmutableConstant.sol\":131:133  50 */\n      0x32\n        /* \"experiences/0007/ImmutableConstant.sol\":94:133  uint8 public constant NUMBER_SMALL = 50 */\n      dup2\n      jump\t// out\n        /* \"experiences/0007/ImmutableConstant.sol\":1481:1588  function getNumberNotConstant() public view returns (uint256) {... */\n    tag_27:\n        /* \"experiences/0007/ImmutableConstant.sol\":1534:1541  uint256 */\n      0x00\n        /* \"experiences/0007/ImmutableConstant.sol\":1561:1580  NUMBER_NOT_CONSTANT */\n      dup1\n      sload\n        /* \"experiences/0007/ImmutableConstant.sol\":1554:1580  return NUMBER_NOT_CONSTANT */\n      swap1\n      pop\n        /* \"experiences/0007/ImmutableConstant.sol\":1481:1588  function getNumberNotConstant() public view returns (uint256) {... */\n      swap1\n      jump\t// out\n        /* \"experiences/0007/ImmutableConstant.sol\":1215:1305  function getNumber4() public pure returns (uint256) {... */\n    tag_30:\n        /* \"experiences/0007/ImmutableConstant.sol\":1258:1265  uint256 */\n      0x00\n        /* \"experiences/0007/ImmutableConstant.sol\":131:133  50 */\n      0x32\n        /* \"experiences/0007/ImmutableConstant.sol\":1278:1297  return NUMBER_SMALL */\n      0xff\n      and\n      swap1\n      pop\n        /* \"experiences/0007/ImmutableConstant.sol\":1215:1305  function getNumber4() public pure returns (uint256) {... */\n      swap1\n      jump\t// out\n        /* \"experiences/0007/ImmutableConstant.sol\":691:722  address public immutable iOwner */\n    tag_33:\n      immutable(\"0x7f8b6b088b6d74c2852fc86c796dca07b44eed6fb3daf5e6b59f7c364db14528\")\n      dup2\n      jump\t// out\n        /* \"experiences/0007/ImmutableConstant.sol\":748:768  address public owner */\n    tag_37:\n      0x01\n      0x00\n      swap1\n      sload\n      swap1\n      0x0100\n      exp\n      swap1\n      div\n      0xffffffffffffffffffffffffffffffffffffffff\n      and\n      dup2\n      jump\t// out\n        /* \"experiences/0007/ImmutableConstant.sol\":1329:1456  function getTheSameNumberWithAVeryLongNameForTheFunction() public pure returns (uint256) {... */\n    tag_40:\n        /* \"experiences/0007/ImmutableConstant.sol\":1409:1416  uint256 */\n      0x00\n        /* \"experiences/0007/ImmutableConstant.sol\":131:133  50 */\n      0x32\n        /* \"experiences/0007/ImmutableConstant.sol\":1429:1448  return NUMBER_SMALL */\n      0xff\n      and\n      swap1\n      pop\n        /* \"experiences/0007/ImmutableConstant.sol\":1329:1456  function getTheSameNumberWithAVeryLongNameForTheFunction() public pure returns (uint256) {... */\n      swap1\n      jump\t// out\n        /* \"experiences/0007/ImmutableConstant.sol\":989:1079  function getNumber2() public pure returns (uint256) {... */\n    tag_43:\n        /* \"experiences/0007/ImmutableConstant.sol\":1032:1039  uint256 */\n      0x00\n        /* \"experiences/0007/ImmutableConstant.sol\":131:133  50 */\n      0x32\n        /* \"experiences/0007/ImmutableConstant.sol\":1052:1071  return NUMBER_SMALL */\n      0xff\n      and\n      swap1\n      pop\n        /* \"experiences/0007/ImmutableConstant.sol\":989:1079  function getNumber2() public pure returns (uint256) {... */\n      swap1\n      jump\t// out\n        /* \"experiences/0007/ImmutableConstant.sol\":231:270  uint256 public NUMBER_NOT_CONSTANT = 50 */\n    tag_46:\n      sload(0x00)\n      dup2\n      jump\t// out\n        /* \"experiences/0007/ImmutableConstant.sol\":882:965  function getNumber() public pure returns (uint256) {... */\n    tag_49:\n        /* \"experiences/0007/ImmutableConstant.sol\":924:931  uint256 */\n      0x00\n        /* \"experiences/0007/ImmutableConstant.sol\":173:175  50 */\n      0x32\n        /* \"experiences/0007/ImmutableConstant.sol\":944:957  return NUMBER */\n      swap1\n      pop\n        /* \"experiences/0007/ImmutableConstant.sol\":882:965  function getNumber() public pure returns (uint256) {... */\n      swap1\n      jump\t// out\n        /* \"#utility.yul\":7:84   */\n    tag_57:\n        /* \"#utility.yul\":44:51   */\n      0x00\n        /* \"#utility.yul\":73:78   */\n      dup2\n        /* \"#utility.yul\":62:78   */\n      swap1\n      pop\n        /* \"#utility.yul\":7:84   */\n      swap2\n      swap1\n      pop\n      jump\t// out\n        /* \"#utility.yul\":90:208   */\n    tag_58:\n        /* \"#utility.yul\":177:201   */\n      tag_67\n        /* \"#utility.yul\":195:200   */\n      dup2\n        /* \"#utility.yul\":177:201   */\n      tag_57\n      jump\t// in\n    tag_67:\n        /* \"#utility.yul\":172:175   */\n      dup3\n        /* \"#utility.yul\":165:202   */\n      mstore\n        /* \"#utility.yul\":90:208   */\n      pop\n      pop\n      jump\t// out\n        /* \"#utility.yul\":214:436   */\n    tag_18:\n        /* \"#utility.yul\":307:311   */\n      0x00\n        /* \"#utility.yul\":345:347   */\n      0x20\n        /* \"#utility.yul\":334:343   */\n      dup3\n        /* \"#utility.yul\":330:348   */\n      add\n        /* \"#utility.yul\":322:348   */\n      swap1\n      pop\n        /* \"#utility.yul\":358:429   */\n      tag_69\n        /* \"#utility.yul\":426:427   */\n      0x00\n        /* \"#utility.yul\":415:424   */\n      dup4\n        /* \"#utility.yul\":411:428   */\n      add\n        /* \"#utility.yul\":402:408   */\n      dup5\n        /* \"#utility.yul\":358:429   */\n      tag_58\n      jump\t// in\n    tag_69:\n        /* \"#utility.yul\":214:436   */\n      swap3\n      swap2\n      pop\n      pop\n      jump\t// out\n        /* \"#utility.yul\":442:528   */\n    tag_59:\n        /* \"#utility.yul\":477:484   */\n      0x00\n        /* \"#utility.yul\":517:521   */\n      0xff\n        /* \"#utility.yul\":510:515   */\n      dup3\n        /* \"#utility.yul\":506:522   */\n      and\n        /* \"#utility.yul\":495:522   */\n      swap1\n      pop\n        /* \"#utility.yul\":442:528   */\n      swap2\n      swap1\n      pop\n      jump\t// out\n        /* \"#utility.yul\":534:646   */\n    tag_60:\n        /* \"#utility.yul\":617:639   */\n      tag_72\n        /* \"#utility.yul\":633:638   */\n      dup2\n        /* \"#utility.yul\":617:639   */\n      tag_59\n      jump\t// in\n    tag_72:\n        /* \"#utility.yul\":612:615   */\n      dup3\n        /* \"#utility.yul\":605:640   */\n      mstore\n        /* \"#utility.yul\":534:646   */\n      pop\n      pop\n      jump\t// out\n        /* \"#utility.yul\":652:866   */\n    tag_22:\n        /* \"#utility.yul\":741:745   */\n      0x00\n        /* \"#utility.yul\":779:781   */\n      0x20\n        /* \"#utility.yul\":768:777   */\n      dup3\n        /* \"#utility.yul\":764:782   */\n      add\n        /* \"#utility.yul\":756:782   */\n      swap1\n      pop\n        /* \"#utility.yul\":792:859   */\n      tag_74\n        /* \"#utility.yul\":856:857   */\n      0x00\n        /* \"#utility.yul\":845:854   */\n      dup4\n        /* \"#utility.yul\":841:858   */\n      add\n        /* \"#utility.yul\":832:838   */\n      dup5\n        /* \"#utility.yul\":792:859   */\n      tag_60\n      jump\t// in\n    tag_74:\n        /* \"#utility.yul\":652:866   */\n      swap3\n      swap2\n      pop\n      pop\n      jump\t// out\n        /* \"#utility.yul\":872:998   */\n    tag_61:\n        /* \"#utility.yul\":909:916   */\n      0x00\n        /* \"#utility.yul\":949:991   */\n      0xffffffffffffffffffffffffffffffffffffffff\n        /* \"#utility.yul\":942:947   */\n      dup3\n        /* \"#utility.yul\":938:992   */\n      and\n        /* \"#utility.yul\":927:992   */\n      swap1\n      pop\n        /* \"#utility.yul\":872:998   */\n      swap2\n      swap1\n      pop\n      jump\t// out\n        /* \"#utility.yul\":1004:1100   */\n    tag_62:\n        /* \"#utility.yul\":1041:1048   */\n      0x00\n        /* \"#utility.yul\":1070:1094   */\n      tag_77\n        /* \"#utility.yul\":1088:1093   */\n      dup3\n        /* \"#utility.yul\":1070:1094   */\n      tag_61\n      jump\t// in\n    tag_77:\n        /* \"#utility.yul\":1059:1094   */\n      swap1\n      pop\n        /* \"#utility.yul\":1004:1100   */\n      swap2\n      swap1\n      pop\n      jump\t// out\n        /* \"#utility.yul\":1106:1224   */\n    tag_63:\n        /* \"#utility.yul\":1193:1217   */\n      tag_79\n        /* \"#utility.yul\":1211:1216   */\n      dup2\n        /* \"#utility.yul\":1193:1217   */\n      tag_62\n      jump\t// in\n    tag_79:\n        /* \"#utility.yul\":1188:1191   */\n      dup3\n        /* \"#utility.yul\":1181:1218   */\n      mstore\n        /* \"#utility.yul\":1106:1224   */\n      pop\n      pop\n      jump\t// out\n        /* \"#utility.yul\":1230:1452   */\n    tag_35:\n        /* \"#utility.yul\":1323:1327   */\n      0x00\n        /* \"#utility.yul\":1361:1363   */\n      0x20\n        /* \"#utility.yul\":1350:1359   */\n      dup3\n        /* \"#utility.yul\":1346:1364   */\n      add\n        /* \"#utility.yul\":1338:1364   */\n      swap1\n      pop\n        /* \"#utility.yul\":1374:1445   */\n      tag_81\n        /* \"#utility.yul\":1442:1443   */\n      0x00\n        /* \"#utility.yul\":1431:1440   */\n      dup4\n        /* \"#utility.yul\":1427:1444   */\n      add\n        /* \"#utility.yul\":1418:1424   */\n      dup5\n        /* \"#utility.yul\":1374:1445   */\n      tag_63\n      jump\t// in\n    tag_81:\n        /* \"#utility.yul\":1230:1452   */\n      swap3\n      swap2\n      pop\n      pop\n      jump\t// out\n\n    auxdata: 0xa2646970667358221220e67e752ad343d5fc7043540c2125abd8748b34b4aa731565510d9d06e6bd76f864736f6c63430008160033\n}\n",
				"bytecode": {
					"linkReferences": {},
					"object": "60a060405260325f55348015610013575f80fd5b503373ffffffffffffffffffffffffffffffffffffffff1660808173ffffffffffffffffffffffffffffffffffffffff16815250503360015f6101000a81548173ffffffffffffffffffffffffffffffffffffffff021916908373ffffffffffffffffffffffffffffffffffffffff1602179055506080516103796100a05f395f61021c01526103795ff3fe608060405234801561000f575f80fd5b50600436106100a7575f3560e01c806377c9dd4b1161006f57806377c9dd4b146101415780638da5cb5b1461015f57806394e52ae91461017d578063984d0f901461019b578063beb20864146101b9578063f2c9ecd8146101d7576100a7565b806340775a3e146100ab578063485cc7f5146100c9578063522edebe146100e75780636e2a432a1461010557806376f81bbf14610123575b5f80fd5b6100b36101f5565b6040516100c0919061029e565b60405180910390f35b6100d16101fa565b6040516100de91906102d2565b60405180910390f35b6100ef610202565b6040516100fc91906102d2565b60405180910390f35b61010d610207565b60405161011a919061029e565b60405180910390f35b61012b61020f565b604051610138919061029e565b60405180910390f35b61014961021a565b604051610156919061032a565b60405180910390f35b61016761023e565b604051610174919061032a565b60405180910390f35b610185610263565b604051610192919061029e565b60405180910390f35b6101a361026e565b6040516101b0919061029e565b60405180910390f35b6101c1610279565b6040516101ce919061029e565b60405180910390f35b6101df61027e565b6040516101ec919061029e565b60405180910390f35b603281565b5f6032905090565b603281565b5f8054905090565b5f603260ff16905090565b7f000000000000000000000000000000000000000000000000000000000000000081565b60015f9054906101000a900473ffffffffffffffffffffffffffffffffffffffff1681565b5f603260ff16905090565b5f603260ff16905090565b5f5481565b5f6032905090565b5f819050919050565b61029881610286565b82525050565b5f6020820190506102b15f83018461028f565b92915050565b5f60ff82169050919050565b6102cc816102b7565b82525050565b5f6020820190506102e55f8301846102c3565b92915050565b5f73ffffffffffffffffffffffffffffffffffffffff82169050919050565b5f610314826102eb565b9050919050565b6103248161030a565b82525050565b5f60208201905061033d5f83018461031b565b9291505056fea2646970667358221220e67e752ad343d5fc7043540c2125abd8748b34b4aa731565510d9d06e6bd76f864736f6c63430008160033",
					"opcodes": "PUSH1 0xA0 PUSH1 0x40 MSTORE PUSH1 0x32 PUSH0 SSTORE CALLVALUE DUP1 ISZERO PUSH2 0x13 JUMPI PUSH0 DUP1 REVERT JUMPDEST POP CALLER PUSH20 0xFFFFFFFFFFFFFFFFFFFFFFFFFFFFFFFFFFFFFFFF AND PUSH1 0x80 DUP2 PUSH20 0xFFFFFFFFFFFFFFFFFFFFFFFFFFFFFFFFFFFFFFFF AND DUP2 MSTORE POP POP CALLER PUSH1 0x1 PUSH0 PUSH2 0x100 EXP DUP2 SLOAD DUP2 PUSH20 0xFFFFFFFFFFFFFFFFFFFFFFFFFFFFFFFFFFFFFFFF MUL NOT AND SWAP1 DUP4 PUSH20 0xFFFFFFFFFFFFFFFFFFFFFFFFFFFFFFFFFFFFFFFF AND MUL OR SWAP1 SSTORE POP PUSH1 0x80 MLOAD PUSH2 0x379 PUSH2 0xA0 PUSH0 CODECOPY PUSH0 PUSH2 0x21C ADD MSTORE PUSH2 0x379 PUSH0 RETURN INVALID PUSH1 0x80 PUSH1 0x40 MSTORE CALLVALUE DUP1 ISZERO PUSH2 0xF JUMPI PUSH0 DUP1 REVERT JUMPDEST POP PUSH1 0x4 CALLDATASIZE LT PUSH2 0xA7 JUMPI PUSH0 CALLDATALOAD PUSH1 0xE0 SHR DUP1 PUSH4 0x77C9DD4B GT PUSH2 0x6F JUMPI DUP1 PUSH4 0x77C9DD4B EQ PUSH2 0x141 JUMPI DUP1 PUSH4 0x8DA5CB5B EQ PUSH2 0x15F JUMPI DUP1 PUSH4 0x94E52AE9 EQ PUSH2 0x17D JUMPI DUP1 PUSH4 0x984D0F90 EQ PUSH2 0x19B JUMPI DUP1 PUSH4 0xBEB20864 EQ PUSH2 0x1B9 JUMPI DUP1 PUSH4 0xF2C9ECD8 EQ PUSH2 0x1D7 JUMPI PUSH2 0xA7 JUMP JUMPDEST DUP1 PUSH4 0x40775A3E EQ PUSH2 0xAB JUMPI DUP1 PUSH4 0x485CC7F5 EQ PUSH2 0xC9 JUMPI DUP1 PUSH4 0x522EDEBE EQ PUSH2 0xE7 JUMPI DUP1 PUSH4 0x6E2A432A EQ PUSH2 0x105 JUMPI DUP1 PUSH4 0x76F81BBF EQ PUSH2 0x123 JUMPI JUMPDEST PUSH0 DUP1 REVERT JUMPDEST PUSH2 0xB3 PUSH2 0x1F5 JUMP JUMPDEST PUSH1 0x40 MLOAD PUSH2 0xC0 SWAP2 SWAP1 PUSH2 0x29E JUMP JUMPDEST PUSH1 0x40 MLOAD DUP1 SWAP2 SUB SWAP1 RETURN JUMPDEST PUSH2 0xD1 PUSH2 0x1FA JUMP JUMPDEST PUSH1 0x40 MLOAD PUSH2 0xDE SWAP2 SWAP1 PUSH2 0x2D2 JUMP JUMPDEST PUSH1 0x40 MLOAD DUP1 SWAP2 SUB SWAP1 RETURN JUMPDEST PUSH2 0xEF PUSH2 0x202 JUMP JUMPDEST PUSH1 0x40 MLOAD PUSH2 0xFC SWAP2 SWAP1 PUSH2 0x2D2 JUMP JUMPDEST PUSH1 0x40 MLOAD DUP1 SWAP2 SUB SWAP1 RETURN JUMPDEST PUSH2 0x10D PUSH2 0x207 JUMP JUMPDEST PUSH1 0x40 MLOAD PUSH2 0x11A SWAP2 SWAP1 PUSH2 0x29E JUMP JUMPDEST PUSH1 0x40 MLOAD DUP1 SWAP2 SUB SWAP1 RETURN JUMPDEST PUSH2 0x12B PUSH2 0x20F JUMP JUMPDEST PUSH1 0x40 MLOAD PUSH2 0x138 SWAP2 SWAP1 PUSH2 0x29E JUMP JUMPDEST PUSH1 0x40 MLOAD DUP1 SWAP2 SUB SWAP1 RETURN JUMPDEST PUSH2 0x149 PUSH2 0x21A JUMP JUMPDEST PUSH1 0x40 MLOAD PUSH2 0x156 SWAP2 SWAP1 PUSH2 0x32A JUMP JUMPDEST PUSH1 0x40 MLOAD DUP1 SWAP2 SUB SWAP1 RETURN JUMPDEST PUSH2 0x167 PUSH2 0x23E JUMP JUMPDEST PUSH1 0x40 MLOAD PUSH2 0x174 SWAP2 SWAP1 PUSH2 0x32A JUMP JUMPDEST PUSH1 0x40 MLOAD DUP1 SWAP2 SUB SWAP1 RETURN JUMPDEST PUSH2 0x185 PUSH2 0x263 JUMP JUMPDEST PUSH1 0x40 MLOAD PUSH2 0x192 SWAP2 SWAP1 PUSH2 0x29E JUMP JUMPDEST PUSH1 0x40 MLOAD DUP1 SWAP2 SUB SWAP1 RETURN JUMPDEST PUSH2 0x1A3 PUSH2 0x26E JUMP JUMPDEST PUSH1 0x40 MLOAD PUSH2 0x1B0 SWAP2 SWAP1 PUSH2 0x29E JUMP JUMPDEST PUSH1 0x40 MLOAD DUP1 SWAP2 SUB SWAP1 RETURN JUMPDEST PUSH2 0x1C1 PUSH2 0x279 JUMP JUMPDEST PUSH1 0x40 MLOAD PUSH2 0x1CE SWAP2 SWAP1 PUSH2 0x29E JUMP JUMPDEST PUSH1 0x40 MLOAD DUP1 SWAP2 SUB SWAP1 RETURN JUMPDEST PUSH2 0x1DF PUSH2 0x27E JUMP JUMPDEST PUSH1 0x40 MLOAD PUSH2 0x1EC SWAP2 SWAP1 PUSH2 0x29E JUMP JUMPDEST PUSH1 0x40 MLOAD DUP1 SWAP2 SUB SWAP1 RETURN JUMPDEST PUSH1 0x32 DUP2 JUMP JUMPDEST PUSH0 PUSH1 0x32 SWAP1 POP SWAP1 JUMP JUMPDEST PUSH1 0x32 DUP2 JUMP JUMPDEST PUSH0 DUP1 SLOAD SWAP1 POP SWAP1 JUMP JUMPDEST PUSH0 PUSH1 0x32 PUSH1 0xFF AND SWAP1 POP SWAP1 JUMP JUMPDEST PUSH32 0x0 DUP2 JUMP JUMPDEST PUSH1 0x1 PUSH0 SWAP1 SLOAD SWAP1 PUSH2 0x100 EXP SWAP1 DIV PUSH20 0xFFFFFFFFFFFFFFFFFFFFFFFFFFFFFFFFFFFFFFFF AND DUP2 JUMP JUMPDEST PUSH0 PUSH1 0x32 PUSH1 0xFF AND SWAP1 POP SWAP1 JUMP JUMPDEST PUSH0 PUSH1 0x32 PUSH1 0xFF AND SWAP1 POP SWAP1 JUMP JUMPDEST PUSH0 SLOAD DUP2 JUMP JUMPDEST PUSH0 PUSH1 0x32 SWAP1 POP SWAP1 JUMP JUMPDEST PUSH0 DUP2 SWAP1 POP SWAP2 SWAP1 POP JUMP JUMPDEST PUSH2 0x298 DUP2 PUSH2 0x286 JUMP JUMPDEST DUP3 MSTORE POP POP JUMP JUMPDEST PUSH0 PUSH1 0x20 DUP3 ADD SWAP1 POP PUSH2 0x2B1 PUSH0 DUP4 ADD DUP5 PUSH2 0x28F JUMP JUMPDEST SWAP3 SWAP2 POP POP JUMP JUMPDEST PUSH0 PUSH1 0xFF DUP3 AND SWAP1 POP SWAP2 SWAP1 POP JUMP JUMPDEST PUSH2 0x2CC DUP2 PUSH2 0x2B7 JUMP JUMPDEST DUP3 MSTORE POP POP JUMP JUMPDEST PUSH0 PUSH1 0x20 DUP3 ADD SWAP1 POP PUSH2 0x2E5 PUSH0 DUP4 ADD DUP5 PUSH2 0x2C3 JUMP JUMPDEST SWAP3 SWAP2 POP POP JUMP JUMPDEST PUSH0 PUSH20 0xFFFFFFFFFFFFFFFFFFFFFFFFFFFFFFFFFFFFFFFF DUP3 AND SWAP1 POP SWAP2 SWAP1 POP JUMP JUMPDEST PUSH0 PUSH2 0x314 DUP3 PUSH2 0x2EB JUMP JUMPDEST SWAP1 POP SWAP2 SWAP1 POP JUMP JUMPDEST PUSH2 0x324 DUP2 PUSH2 0x30A JUMP JUMPDEST DUP3 MSTORE POP POP JUMP JUMPDEST PUSH0 PUSH1 0x20 DUP3 ADD SWAP1 POP PUSH2 0x33D PUSH0 DUP4 ADD DUP5 PUSH2 0x31B JUMP JUMPDEST SWAP3 SWAP2 POP POP JUMP INVALID LOG2 PUSH5 0x6970667358 0x22 SLT KECCAK256 0xE6 PUSH31 0x752AD343D5FC7043540C2125ABD8748B34B4AA731565510D9D06E6BD76F864 PUSH20 0x6F6C634300081600330000000000000000000000 "
				},
				"gasEstimates": {
					"creation": {
						"codeDepositCost": "177800",
						"executionCost": "infinite",
						"totalCost": "infinite"
					},
					"external": {
						"NUMBER()": "326",
						"NUMBER_NOT_CONSTANT()": "2512",
						"NUMBER_SMALL()": "376",
						"getNumber()": "442",
						"getNumber2()": "404",
						"getNumber3()": "361",
						"getNumber4()": "427",
						"getNumberNotConstant()": "2499",
						"getTheSameNumberWithAVeryLongNameForTheFunction()": "382",
						"iOwner()": "infinite",
						"owner()": "2530"
					}
				},
				"methodIdentifiers": {
					"NUMBER()": "40775a3e",
					"NUMBER_NOT_CONSTANT()": "beb20864",
					"NUMBER_SMALL()": "522edebe",
					"getNumber()": "f2c9ecd8",
					"getNumber2()": "984d0f90",
					"getNumber3()": "485cc7f5",
					"getNumber4()": "76f81bbf",
					"getNumberNotConstant()": "6e2a432a",
					"getTheSameNumberWithAVeryLongNameForTheFunction()": "94e52ae9",
					"iOwner()": "77c9dd4b",
					"owner()": "8da5cb5b"
				}
			},
			"storageLayout": {
				"storage": [
					{
						"astId": 10,
						"contract": "experiences/0007/ImmutableConstant.sol:ImmutableConstant",
						"label": "NUMBER_NOT_CONSTANT",
						"offset": 0,
						"slot": "0",
						"type": "t_uint256"
					},
					{
						"astId": 14,
						"contract": "experiences/0007/ImmutableConstant.sol:ImmutableConstant",
						"label": "owner",
						"offset": 0,
						"slot": "1",
						"type": "t_address"
					}
				],
				"types": {
					"t_address": {
						"encoding": "inplace",
						"label": "address",
						"numberOfBytes": "20"
					},
					"t_uint256": {
						"encoding": "inplace",
						"label": "uint256",
						"numberOfBytes": "32"
					}
				}
			},
			"userdoc": {
				"kind": "user",
				"methods": {},
				"version": 1
			}
		}
	}
}