{
	"experiences/0003/FundMe.sol": {
		"FundMe": {
			"abi": [
				{
					"inputs": [
						{
							"internalType": "address",
							"name": "",
							"type": "address"
						}
					],
					"name": "addressToAmountFunded",
					"outputs": [
						{
							"internalType": "uint256",
							"name": "",
							"type": "uint256"
						}
					],
					"stateMutability": "view",
					"type": "function"
				},
				{
					"inputs": [],
					"name": "fund",
					"outputs": [],
					"stateMutability": "payable",
					"type": "function"
				},
				{
					"inputs": [
						{
							"internalType": "uint256",
							"name": "ethAmount",
							"type": "uint256"
						}
					],
					"name": "getConversionRate",
					"outputs": [
						{
							"internalType": "uint256",
							"name": "",
							"type": "uint256"
						}
					],
					"stateMutability": "view",
					"type": "function"
				},
				{
					"inputs": [],
					"name": "getPrice",
					"outputs": [
						{
							"internalType": "uint256",
							"name": "",
							"type": "uint256"
						}
					],
					"stateMutability": "view",
					"type": "function"
				}
			],
			"devdoc": {
				"methods": {}
			},
			"evm": {
				"assembly": "    /* \"experiences/0003/FundMe.sol\":148:856  contract FundMe {\r... */\n  mstore(0x40, 0x80)\n  callvalue\n  dup1\n  iszero\n  tag_1\n  jumpi\n  0x00\n  dup1\n  revert\ntag_1:\n  pop\n  dataSize(sub_0)\n  dup1\n  dataOffset(sub_0)\n  0x00\n  codecopy\n  0x00\n  return\nstop\n\nsub_0: assembly {\n        /* \"experiences/0003/FundMe.sol\":148:856  contract FundMe {\r... */\n      mstore(0x40, 0x80)\n      jumpi(tag_1, lt(calldatasize, 0x04))\n      shr(0xe0, calldataload(0x00))\n      dup1\n      0x3e47d6f3\n      eq\n      tag_2\n      jumpi\n      dup1\n      0x6e5b6b28\n      eq\n      tag_3\n      jumpi\n      dup1\n      0x98d5fdca\n      eq\n      tag_4\n      jumpi\n      dup1\n      0xb60d4288\n      eq\n      tag_5\n      jumpi\n    tag_1:\n      0x00\n      dup1\n      revert\n        /* \"experiences/0003/FundMe.sol\":173:229  mapping(address => uint256) public addressToAmountFunded */\n    tag_2:\n      callvalue\n      dup1\n      iszero\n      tag_6\n      jumpi\n      0x00\n      dup1\n      revert\n    tag_6:\n      pop\n      tag_7\n      0x04\n      dup1\n      calldatasize\n      sub\n      0x20\n      dup2\n      lt\n      iszero\n      tag_8\n      jumpi\n      0x00\n      dup1\n      revert\n    tag_8:\n      dup2\n      add\n      swap1\n      dup1\n      dup1\n      calldataload\n      0xffffffffffffffffffffffffffffffffffffffff\n      and\n      swap1\n      0x20\n      add\n      swap1\n      swap3\n      swap2\n      swap1\n      pop\n      pop\n      pop\n      tag_9\n      jump\t// in\n    tag_7:\n      mload(0x40)\n      dup1\n      dup3\n      dup2\n      mstore\n      0x20\n      add\n      swap2\n      pop\n      pop\n      mload(0x40)\n      dup1\n      swap2\n      sub\n      swap1\n      return\n        /* \"experiences/0003/FundMe.sol\":625:853  function getConversionRate(uint256 ethAmount) public view returns (uint256) {\r... */\n    tag_3:\n      callvalue\n      dup1\n      iszero\n      tag_10\n      jumpi\n      0x00\n      dup1\n      revert\n    tag_10:\n      pop\n      tag_11\n      0x04\n      dup1\n      calldatasize\n      sub\n      0x20\n      dup2\n      lt\n      iszero\n      tag_12\n      jumpi\n      0x00\n      dup1\n      revert\n    tag_12:\n      dup2\n      add\n      swap1\n      dup1\n      dup1\n      calldataload\n      swap1\n      0x20\n      add\n      swap1\n      swap3\n      swap2\n      swap1\n      pop\n      pop\n      pop\n      tag_13\n      jump\t// in\n    tag_11:\n      mload(0x40)\n      dup1\n      dup3\n      dup2\n      mstore\n      0x20\n      add\n      swap2\n      pop\n      pop\n      mload(0x40)\n      dup1\n      swap2\n      sub\n      swap1\n      return\n        /* \"experiences/0003/FundMe.sol\":342:617  function getPrice() public view returns (uint256) {\r... */\n    tag_4:\n      callvalue\n      dup1\n      iszero\n      tag_14\n      jumpi\n      0x00\n      dup1\n      revert\n    tag_14:\n      pop\n      tag_15\n      tag_16\n      jump\t// in\n    tag_15:\n      mload(0x40)\n      dup1\n      dup3\n      dup2\n      mstore\n      0x20\n      add\n      swap2\n      pop\n      pop\n      mload(0x40)\n      dup1\n      swap2\n      sub\n      swap1\n      return\n        /* \"experiences/0003/FundMe.sol\":238:334  function fund() public payable {\r... */\n    tag_5:\n      tag_17\n      tag_18\n      jump\t// in\n    tag_17:\n      stop\n        /* \"experiences/0003/FundMe.sol\":173:229  mapping(address => uint256) public addressToAmountFunded */\n    tag_9:\n      mstore(0x20, 0x00)\n      dup1\n      0x00\n      mstore\n      keccak256(0x00, 0x40)\n      0x00\n      swap2\n      pop\n      swap1\n      pop\n      sload\n      dup2\n      jump\t// out\n        /* \"experiences/0003/FundMe.sol\":625:853  function getConversionRate(uint256 ethAmount) public view returns (uint256) {\r... */\n    tag_13:\n        /* \"experiences/0003/FundMe.sol\":692:699  uint256 */\n      0x00\n        /* \"experiences/0003/FundMe.sol\":712:728  uint256 ethPrice */\n      dup1\n        /* \"experiences/0003/FundMe.sol\":731:741  getPrice() */\n      tag_20\n        /* \"experiences/0003/FundMe.sol\":731:739  getPrice */\n      tag_16\n        /* \"experiences/0003/FundMe.sol\":731:741  getPrice() */\n      jump\t// in\n    tag_20:\n        /* \"experiences/0003/FundMe.sol\":712:741  uint256 ethPrice = getPrice() */\n      swap1\n      pop\n        /* \"experiences/0003/FundMe.sol\":752:774  uint256 ethAmountInUsd */\n      0x00\n        /* \"experiences/0003/FundMe.sol\":802:813  10000000000 */\n      0x02540be400\n        /* \"experiences/0003/FundMe.sol\":789:798  ethAmount */\n      dup5\n        /* \"experiences/0003/FundMe.sol\":778:786  ethPrice */\n      dup4\n        /* \"experiences/0003/FundMe.sol\":778:798  ethPrice * ethAmount */\n      mul\n        /* \"experiences/0003/FundMe.sol\":777:813  (ethPrice * ethAmount) / 10000000000 */\n      dup2\n      tag_21\n      jumpi\n      invalid\n    tag_21:\n      div\n        /* \"experiences/0003/FundMe.sol\":752:813  uint256 ethAmountInUsd = (ethPrice * ethAmount) / 10000000000 */\n      swap1\n      pop\n        /* \"experiences/0003/FundMe.sol\":831:845  ethAmountInUsd */\n      dup1\n        /* \"experiences/0003/FundMe.sol\":824:845  return ethAmountInUsd */\n      swap3\n      pop\n      pop\n      pop\n        /* \"experiences/0003/FundMe.sol\":625:853  function getConversionRate(uint256 ethAmount) public view returns (uint256) {\r... */\n      swap2\n      swap1\n      pop\n      jump\t// out\n        /* \"experiences/0003/FundMe.sol\":342:617  function getPrice() public view returns (uint256) {\r... */\n    tag_16:\n        /* \"experiences/0003/FundMe.sol\":383:390  uint256 */\n      0x00\n        /* \"experiences/0003/FundMe.sol\":403:434  AggregatorV3Interface priceFeed */\n      dup1\n        /* \"experiences/0003/FundMe.sol\":459:501  0x72AFAECF99C9d9C8215fF44C77B94B99C28741e8 */\n      0x72afaecf99c9d9c8215ff44c77b94b99c28741e8\n        /* \"experiences/0003/FundMe.sol\":403:502  AggregatorV3Interface priceFeed = AggregatorV3Interface(0x72AFAECF99C9d9C8215fF44C77B94B99C28741e8) */\n      swap1\n      pop\n        /* \"experiences/0003/FundMe.sol\":515:528  int256 answer */\n      0x00\n        /* \"experiences/0003/FundMe.sol\":535:544  priceFeed */\n      dup2\n        /* \"experiences/0003/FundMe.sol\":535:560  priceFeed.latestRoundData */\n      0xffffffffffffffffffffffffffffffffffffffff\n      and\n      0xfeaf968c\n        /* \"experiences/0003/FundMe.sol\":535:562  priceFeed.latestRoundData() */\n      mload(0x40)\n      dup2\n      0xffffffff\n      and\n      0xe0\n      shl\n      dup2\n      mstore\n      0x04\n      add\n      0xa0\n      mload(0x40)\n      dup1\n      dup4\n      sub\n      dup2\n      dup7\n      dup1\n      extcodesize\n      iszero\n      dup1\n      iszero\n      tag_23\n      jumpi\n      0x00\n      dup1\n      revert\n    tag_23:\n      pop\n      gas\n      staticcall\n      iszero\n      dup1\n      iszero\n      tag_25\n      jumpi\n      returndatasize\n      0x00\n      dup1\n      returndatacopy\n      revert(0x00, returndatasize)\n    tag_25:\n      pop\n      pop\n      pop\n      pop\n      mload(0x40)\n      returndatasize\n      0xa0\n      dup2\n      lt\n      iszero\n      tag_26\n      jumpi\n      0x00\n      dup1\n      revert\n    tag_26:\n      dup2\n      add\n      swap1\n      dup1\n      dup1\n      mload\n      swap1\n      0x20\n      add\n      swap1\n      swap3\n      swap2\n      swap1\n      dup1\n      mload\n      swap1\n      0x20\n      add\n      swap1\n      swap3\n      swap2\n      swap1\n      dup1\n      mload\n      swap1\n      0x20\n      add\n      swap1\n      swap3\n      swap2\n      swap1\n      dup1\n      mload\n      swap1\n      0x20\n      add\n      swap1\n      swap3\n      swap2\n      swap1\n      dup1\n      mload\n      swap1\n      0x20\n      add\n      swap1\n      swap3\n      swap2\n      swap1\n      pop\n      pop\n      pop\n        /* \"experiences/0003/FundMe.sol\":513:562  (,int256 answer,,,) = priceFeed.latestRoundData() */\n      pop\n      pop\n      pop\n      swap2\n      pop\n      pop\n        /* \"experiences/0003/FundMe.sol\":597:608  10000000000 */\n      0x02540be400\n        /* \"experiences/0003/FundMe.sol\":588:594  answer */\n      dup2\n        /* \"experiences/0003/FundMe.sol\":588:608  answer * 10000000000 */\n      mul\n        /* \"experiences/0003/FundMe.sol\":573:609  return uint256(answer * 10000000000) */\n      swap3\n      pop\n      pop\n      pop\n        /* \"experiences/0003/FundMe.sol\":342:617  function getPrice() public view returns (uint256) {\r... */\n      swap1\n      jump\t// out\n        /* \"experiences/0003/FundMe.sol\":238:334  function fund() public payable {\r... */\n    tag_18:\n        /* \"experiences/0003/FundMe.sol\":317:326  msg.value */\n      callvalue\n        /* \"experiences/0003/FundMe.sol\":280:301  addressToAmountFunded */\n      0x00\n        /* \"experiences/0003/FundMe.sol\":280:313  addressToAmountFunded[msg.sender] */\n      dup1\n        /* \"experiences/0003/FundMe.sol\":302:312  msg.sender */\n      caller\n        /* \"experiences/0003/FundMe.sol\":280:313  addressToAmountFunded[msg.sender] */\n      0xffffffffffffffffffffffffffffffffffffffff\n      and\n      0xffffffffffffffffffffffffffffffffffffffff\n      and\n      dup2\n      mstore\n      0x20\n      add\n      swap1\n      dup2\n      mstore\n      0x20\n      add\n      0x00\n      keccak256\n      0x00\n        /* \"experiences/0003/FundMe.sol\":280:326  addressToAmountFunded[msg.sender] += msg.value */\n      dup3\n      dup3\n      sload\n      add\n      swap3\n      pop\n      pop\n      dup2\n      swap1\n      sstore\n      pop\n        /* \"experiences/0003/FundMe.sol\":238:334  function fund() public payable {\r... */\n      jump\t// out\n\n    auxdata: 0xa2646970667358221220d80bb3f2bdaf4f0f7bffad609b5dab46bc6862c5ac973720e2522fe4c3a550a564736f6c634300060a0033\n}\n",
				"bytecode": {
					"linkReferences": {},
					"object": "608060405234801561001057600080fd5b506102cf806100206000396000f3fe60806040526004361061003f5760003560e01c80633e47d6f3146100445780636e5b6b28146100a957806398d5fdca146100f8578063b60d428814610123575b600080fd5b34801561005057600080fd5b506100936004803603602081101561006757600080fd5b81019080803573ffffffffffffffffffffffffffffffffffffffff16906020019092919050505061012d565b6040518082815260200191505060405180910390f35b3480156100b557600080fd5b506100e2600480360360208110156100cc57600080fd5b8101908080359060200190929190505050610145565b6040518082815260200191505060405180910390f35b34801561010457600080fd5b5061010d610171565b6040518082815260200191505060405180910390f35b61012b61024b565b005b60006020528060005260406000206000915090505481565b600080610150610171565b905060006402540be4008483028161016457fe5b0490508092505050919050565b6000807372afaecf99c9d9c8215ff44c77b94b99c28741e8905060008173ffffffffffffffffffffffffffffffffffffffff1663feaf968c6040518163ffffffff1660e01b815260040160a06040518083038186803b1580156101d357600080fd5b505afa1580156101e7573d6000803e3d6000fd5b505050506040513d60a08110156101fd57600080fd5b8101908080519060200190929190805190602001909291908051906020019092919080519060200190929190805190602001909291905050505050509150506402540be40081029250505090565b346000803373ffffffffffffffffffffffffffffffffffffffff1673ffffffffffffffffffffffffffffffffffffffff1681526020019081526020016000206000828254019250508190555056fea2646970667358221220d80bb3f2bdaf4f0f7bffad609b5dab46bc6862c5ac973720e2522fe4c3a550a564736f6c634300060a0033",
					"opcodes": "PUSH1 0x80 PUSH1 0x40 MSTORE CALLVALUE DUP1 ISZERO PUSH2 0x10 JUMPI PUSH1 0x0 DUP1 REVERT JUMPDEST POP PUSH2 0x2CF DUP1 PUSH2 0x20 PUSH1 0x0 CODECOPY PUSH1 0x0 RETURN INVALID PUSH1 0x80 PUSH1 0x40 MSTORE PUSH1 0x4 CALLDATASIZE LT PUSH2 0x3F JUMPI PUSH1 0x0 CALLDATALOAD PUSH1 0xE0 SHR DUP1 PUSH4 0x3E47D6F3 EQ PUSH2 0x44 JUMPI DUP1 PUSH4 0x6E5B6B28 EQ PUSH2 0xA9 JUMPI DUP1 PUSH4 0x98D5FDCA EQ PUSH2 0xF8 JUMPI DUP1 PUSH4 0xB60D4288 EQ PUSH2 0x123 JUMPI JUMPDEST PUSH1 0x0 DUP1 REVERT JUMPDEST CALLVALUE DUP1 ISZERO PUSH2 0x50 JUMPI PUSH1 0x0 DUP1 REVERT JUMPDEST POP PUSH2 0x93 PUSH1 0x4 DUP1 CALLDATASIZE SUB PUSH1 0x20 DUP2 LT ISZERO PUSH2 0x67 JUMPI PUSH1 0x0 DUP1 REVERT JUMPDEST DUP2 ADD SWAP1 DUP1 DUP1 CALLDATALOAD PUSH20 0xFFFFFFFFFFFFFFFFFFFFFFFFFFFFFFFFFFFFFFFF AND SWAP1 PUSH1 0x20 ADD SWAP1 SWAP3 SWAP2 SWAP1 POP POP POP PUSH2 0x12D JUMP JUMPDEST PUSH1 0x40 MLOAD DUP1 DUP3 DUP2 MSTORE PUSH1 0x20 ADD SWAP2 POP POP PUSH1 0x40 MLOAD DUP1 SWAP2 SUB SWAP1 RETURN JUMPDEST CALLVALUE DUP1 ISZERO PUSH2 0xB5 JUMPI PUSH1 0x0 DUP1 REVERT JUMPDEST POP PUSH2 0xE2 PUSH1 0x4 DUP1 CALLDATASIZE SUB PUSH1 0x20 DUP2 LT ISZERO PUSH2 0xCC JUMPI PUSH1 0x0 DUP1 REVERT JUMPDEST DUP2 ADD SWAP1 DUP1 DUP1 CALLDATALOAD SWAP1 PUSH1 0x20 ADD SWAP1 SWAP3 SWAP2 SWAP1 POP POP POP PUSH2 0x145 JUMP JUMPDEST PUSH1 0x40 MLOAD DUP1 DUP3 DUP2 MSTORE PUSH1 0x20 ADD SWAP2 POP POP PUSH1 0x40 MLOAD DUP1 SWAP2 SUB SWAP1 RETURN JUMPDEST CALLVALUE DUP1 ISZERO PUSH2 0x104 JUMPI PUSH1 0x0 DUP1 REVERT JUMPDEST POP PUSH2 0x10D PUSH2 0x171 JUMP JUMPDEST PUSH1 0x40 MLOAD DUP1 DUP3 DUP2 MSTORE PUSH1 0x20 ADD SWAP2 POP POP PUSH1 0x40 MLOAD DUP1 SWAP2 SUB SWAP1 RETURN JUMPDEST PUSH2 0x12B PUSH2 0x24B JUMP JUMPDEST STOP JUMPDEST PUSH1 0x0 PUSH1 0x20 MSTORE DUP1 PUSH1 0x0 MSTORE PUSH1 0x40 PUSH1 0x0 KECCAK256 PUSH1 0x0 SWAP2 POP SWAP1 POP SLOAD DUP2 JUMP JUMPDEST PUSH1 0x0 DUP1 PUSH2 0x150 PUSH2 0x171 JUMP JUMPDEST SWAP1 POP PUSH1 0x0 PUSH5 0x2540BE400 DUP5 DUP4 MUL DUP2 PUSH2 0x164 JUMPI INVALID JUMPDEST DIV SWAP1 POP DUP1 SWAP3 POP POP POP SWAP2 SWAP1 POP JUMP JUMPDEST PUSH1 0x0 DUP1 PUSH20 0x72AFAECF99C9D9C8215FF44C77B94B99C28741E8 SWAP1 POP PUSH1 0x0 DUP2 PUSH20 0xFFFFFFFFFFFFFFFFFFFFFFFFFFFFFFFFFFFFFFFF AND PUSH4 0xFEAF968C PUSH1 0x40 MLOAD DUP2 PUSH4 0xFFFFFFFF AND PUSH1 0xE0 SHL DUP2 MSTORE PUSH1 0x4 ADD PUSH1 0xA0 PUSH1 0x40 MLOAD DUP1 DUP4 SUB DUP2 DUP7 DUP1 EXTCODESIZE ISZERO DUP1 ISZERO PUSH2 0x1D3 JUMPI PUSH1 0x0 DUP1 REVERT JUMPDEST POP GAS STATICCALL ISZERO DUP1 ISZERO PUSH2 0x1E7 JUMPI RETURNDATASIZE PUSH1 0x0 DUP1 RETURNDATACOPY RETURNDATASIZE PUSH1 0x0 REVERT JUMPDEST POP POP POP POP PUSH1 0x40 MLOAD RETURNDATASIZE PUSH1 0xA0 DUP2 LT ISZERO PUSH2 0x1FD JUMPI PUSH1 0x0 DUP1 REVERT JUMPDEST DUP2 ADD SWAP1 DUP1 DUP1 MLOAD SWAP1 PUSH1 0x20 ADD SWAP1 SWAP3 SWAP2 SWAP1 DUP1 MLOAD SWAP1 PUSH1 0x20 ADD SWAP1 SWAP3 SWAP2 SWAP1 DUP1 MLOAD SWAP1 PUSH1 0x20 ADD SWAP1 SWAP3 SWAP2 SWAP1 DUP1 MLOAD SWAP1 PUSH1 0x20 ADD SWAP1 SWAP3 SWAP2 SWAP1 DUP1 MLOAD SWAP1 PUSH1 0x20 ADD SWAP1 SWAP3 SWAP2 SWAP1 POP POP POP POP POP POP SWAP2 POP POP PUSH5 0x2540BE400 DUP2 MUL SWAP3 POP POP POP SWAP1 JUMP JUMPDEST CALLVALUE PUSH1 0x0 DUP1 CALLER PUSH20 0xFFFFFFFFFFFFFFFFFFFFFFFFFFFFFFFFFFFFFFFF AND PUSH20 0xFFFFFFFFFFFFFFFFFFFFFFFFFFFFFFFFFFFFFFFF AND DUP2 MSTORE PUSH1 0x20 ADD SWAP1 DUP2 MSTORE PUSH1 0x20 ADD PUSH1 0x0 KECCAK256 PUSH1 0x0 DUP3 DUP3 SLOAD ADD SWAP3 POP POP DUP2 SWAP1 SSTORE POP JUMP INVALID LOG2 PUSH5 0x6970667358 0x22 SLT KECCAK256 0xD8 SIGNEXTEND 0xB3 CALLCODE 0xBD 0xAF 0x4F 0xF PUSH28 0xFFAD609B5DAB46BC6862C5AC973720E2522FE4C3A550A564736F6C63 NUMBER STOP MOD EXP STOP CALLER "
				},
				"gasEstimates": {
					"creation": {
						"codeDepositCost": "143800",
						"executionCost": "190",
						"totalCost": "143990"
					},
					"external": {
						"addressToAmountFunded(address)": "1147",
						"fund()": "21085",
						"getConversionRate(uint256)": "infinite",
						"getPrice()": "infinite"
					}
				},
				"methodIdentifiers": {
					"addressToAmountFunded(address)": "3e47d6f3",
					"fund()": "b60d4288",
					"getConversionRate(uint256)": "6e5b6b28",
					"getPrice()": "98d5fdca"
				}
			},
			"storageLayout": {
				"storage": [
					{
						"astId": 52,
						"contract": "experiences/0003/FundMe.sol:FundMe",
						"label": "addressToAmountFunded",
						"offset": 0,
						"slot": "0",
						"type": "t_mapping(t_address,t_uint256)"
					}
				],
				"types": {
					"t_address": {
						"encoding": "inplace",
						"label": "address",
						"numberOfBytes": "20"
					},
					"t_mapping(t_address,t_uint256)": {
						"encoding": "mapping",
						"key": "t_address",
						"label": "mapping(address => uint256)",
						"numberOfBytes": "32",
						"value": "t_uint256"
					},
					"t_uint256": {
						"encoding": "inplace",
						"label": "uint256",
						"numberOfBytes": "32"
					}
				}
			},
			"userdoc": {
				"methods": {}
			}
		}
	}
}