{
	"experiences/0004/Overflow.sol": {
		"Overflow": {
			"abi": [
				{
					"inputs": [],
					"stateMutability": "nonpayable",
					"type": "constructor"
				},
				{
					"anonymous": false,
					"inputs": [
						{
							"indexed": false,
							"internalType": "string",
							"name": "message",
							"type": "string"
						}
					],
					"name": "Log",
					"type": "event"
				},
				{
					"inputs": [],
					"name": "mathSpecial",
					"outputs": [
						{
							"internalType": "contract MathSpecial",
							"name": "",
							"type": "address"
						}
					],
					"stateMutability": "view",
					"type": "function"
				},
				{
					"inputs": [
						{
							"internalType": "uint8",
							"name": "y",
							"type": "uint8"
						}
					],
					"name": "overflow",
					"outputs": [],
					"stateMutability": "nonpayable",
					"type": "function"
				}
			],
			"devdoc": {
				"kind": "dev",
				"methods": {},
				"version": 1
			},
			"evm": {
				"assembly": "    /* \"experiences/0004/Overflow.sol\":179:519  contract Overflow {... */\n  mstore(0x40, 0x80)\n    /* \"experiences/0004/Overflow.sol\":275:339  constructor() {... */\n  callvalue\n  dup1\n  iszero\n  tag_1\n  jumpi\n  0x00\n  dup1\n  revert\ntag_1:\n  pop\n    /* \"experiences/0004/Overflow.sol\":314:331  new MathSpecial() */\n  mload(0x40)\n  tag_4\n  swap1\n  tag_5\n  jump\t// in\ntag_4:\n  mload(0x40)\n  dup1\n  swap2\n  sub\n  swap1\n  0x00\n  create\n  dup1\n  iszero\n  dup1\n  iszero\n  tag_6\n  jumpi\n  returndatasize\n  0x00\n  dup1\n  returndatacopy\n  revert(0x00, returndatasize)\ntag_6:\n  pop\n    /* \"experiences/0004/Overflow.sol\":300:311  mathSpecial */\n  0x00\n  dup1\n    /* \"experiences/0004/Overflow.sol\":300:331  mathSpecial = new MathSpecial() */\n  0x0100\n  exp\n  dup2\n  sload\n  dup2\n  0xffffffffffffffffffffffffffffffffffffffff\n  mul\n  not\n  and\n  swap1\n  dup4\n  0xffffffffffffffffffffffffffffffffffffffff\n  and\n  mul\n  or\n  swap1\n  sstore\n  pop\n    /* \"experiences/0004/Overflow.sol\":179:519  contract Overflow {... */\n  jump(tag_7)\ntag_5:\n  dataSize(sub_1)\n  dup1\n  dataOffset(sub_1)\n  dup4\n  codecopy\n  add\n  swap1\n  jump\t// out\ntag_7:\n  dataSize(sub_0)\n  dup1\n  dataOffset(sub_0)\n  0x00\n  codecopy\n  0x00\n  return\nstop\n\nsub_0: assembly {\n        /* \"experiences/0004/Overflow.sol\":179:519  contract Overflow {... */\n      mstore(0x40, 0x80)\n      callvalue\n      dup1\n      iszero\n      tag_1\n      jumpi\n      0x00\n      dup1\n      revert\n    tag_1:\n      pop\n      jumpi(tag_2, lt(calldatasize, 0x04))\n      shr(0xe0, calldataload(0x00))\n      dup1\n      0x64245fbc\n      eq\n      tag_3\n      jumpi\n      dup1\n      0x940e5975\n      eq\n      tag_4\n      jumpi\n    tag_2:\n      0x00\n      dup1\n      revert\n        /* \"experiences/0004/Overflow.sol\":347:516  function overflow(uint8 y) public {... */\n    tag_3:\n      tag_5\n      0x04\n      dup1\n      calldatasize\n      sub\n      dup2\n      add\n      swap1\n      tag_6\n      swap2\n      swap1\n      tag_7\n      jump\t// in\n    tag_6:\n      tag_8\n      jump\t// in\n    tag_5:\n      stop\n        /* \"experiences/0004/Overflow.sol\":236:266  MathSpecial public mathSpecial */\n    tag_4:\n      tag_9\n      tag_10\n      jump\t// in\n    tag_9:\n      mload(0x40)\n      tag_11\n      swap2\n      swap1\n      tag_12\n      jump\t// in\n    tag_11:\n      mload(0x40)\n      dup1\n      swap2\n      sub\n      swap1\n      return\n        /* \"experiences/0004/Overflow.sol\":347:516  function overflow(uint8 y) public {... */\n    tag_8:\n        /* \"experiences/0004/Overflow.sol\":396:407  mathSpecial */\n      0x00\n      dup1\n      sload\n      swap1\n      0x0100\n      exp\n      swap1\n      div\n      0xffffffffffffffffffffffffffffffffffffffff\n      and\n        /* \"experiences/0004/Overflow.sol\":396:411  mathSpecial.add */\n      0xffffffffffffffffffffffffffffffffffffffff\n      and\n      0x02067e6a\n        /* \"experiences/0004/Overflow.sol\":412:413  y */\n      dup3\n        /* \"experiences/0004/Overflow.sol\":396:414  mathSpecial.add(y) */\n      mload(0x40)\n      dup3\n      0xffffffff\n      and\n      0xe0\n      shl\n      dup2\n      mstore\n      0x04\n      add\n      tag_14\n      swap2\n      swap1\n      tag_15\n      jump\t// in\n    tag_14:\n      0x20\n      mload(0x40)\n      dup1\n      dup4\n      sub\n      dup2\n      dup7\n      gas\n      staticcall\n      swap3\n      pop\n      pop\n      pop\n      dup1\n      iszero\n      tag_16\n      jumpi\n      pop\n      mload(0x40)\n      returndatasize\n      not(0x1f)\n      0x1f\n      dup3\n      add\n      and\n      dup3\n      add\n      dup1\n      0x40\n      mstore\n      pop\n      dup2\n      add\n      swap1\n      tag_17\n      swap2\n      swap1\n      tag_18\n      jump\t// in\n    tag_17:\n      0x01\n    tag_16:\n        /* \"experiences/0004/Overflow.sol\":392:509  try mathSpecial.add(y) {... */\n      tag_19\n      jumpi\n        /* \"experiences/0004/Overflow.sol\":485:497  Log(\"Error\") */\n      0xcf34ef537ac33ee1ac626ca1587a0a7e8e51561e5514f8cb36afa1c5102b3bab\n      mload(0x40)\n      tag_23\n      swap1\n      tag_24\n      jump\t// in\n    tag_23:\n      mload(0x40)\n      dup1\n      swap2\n      sub\n      swap1\n      log1\n        /* \"experiences/0004/Overflow.sol\":392:509  try mathSpecial.add(y) {... */\n      jump(tag_25)\n    tag_19:\n      pop\n        /* \"experiences/0004/Overflow.sol\":435:446  Log(\"Good\") */\n      0xcf34ef537ac33ee1ac626ca1587a0a7e8e51561e5514f8cb36afa1c5102b3bab\n      mload(0x40)\n      tag_26\n      swap1\n      tag_27\n      jump\t// in\n    tag_26:\n      mload(0x40)\n      dup1\n      swap2\n      sub\n      swap1\n      log1\n        /* \"experiences/0004/Overflow.sol\":392:509  try mathSpecial.add(y) {... */\n    tag_25:\n        /* \"experiences/0004/Overflow.sol\":347:516  function overflow(uint8 y) public {... */\n      pop\n      jump\t// out\n        /* \"experiences/0004/Overflow.sol\":236:266  MathSpecial public mathSpecial */\n    tag_10:\n      0x00\n      dup1\n      sload\n      swap1\n      0x0100\n      exp\n      swap1\n      div\n      0xffffffffffffffffffffffffffffffffffffffff\n      and\n      dup2\n      jump\t// out\n        /* \"#utility.yul\":88:205   */\n    tag_29:\n        /* \"#utility.yul\":197:198   */\n      0x00\n        /* \"#utility.yul\":194:195   */\n      dup1\n        /* \"#utility.yul\":187:199   */\n      revert\n        /* \"#utility.yul\":334:420   */\n    tag_31:\n        /* \"#utility.yul\":369:376   */\n      0x00\n        /* \"#utility.yul\":409:413   */\n      0xff\n        /* \"#utility.yul\":402:407   */\n      dup3\n        /* \"#utility.yul\":398:414   */\n      and\n        /* \"#utility.yul\":387:414   */\n      swap1\n      pop\n        /* \"#utility.yul\":334:420   */\n      swap2\n      swap1\n      pop\n      jump\t// out\n        /* \"#utility.yul\":426:544   */\n    tag_32:\n        /* \"#utility.yul\":497:519   */\n      tag_53\n        /* \"#utility.yul\":513:518   */\n      dup2\n        /* \"#utility.yul\":497:519   */\n      tag_31\n      jump\t// in\n    tag_53:\n        /* \"#utility.yul\":490:495   */\n      dup2\n        /* \"#utility.yul\":487:520   */\n      eq\n        /* \"#utility.yul\":477:538   */\n      tag_54\n      jumpi\n        /* \"#utility.yul\":534:535   */\n      0x00\n        /* \"#utility.yul\":531:532   */\n      dup1\n        /* \"#utility.yul\":524:536   */\n      revert\n        /* \"#utility.yul\":477:538   */\n    tag_54:\n        /* \"#utility.yul\":426:544   */\n      pop\n      jump\t// out\n        /* \"#utility.yul\":550:685   */\n    tag_33:\n        /* \"#utility.yul\":594:599   */\n      0x00\n        /* \"#utility.yul\":632:638   */\n      dup2\n        /* \"#utility.yul\":619:639   */\n      calldataload\n        /* \"#utility.yul\":610:639   */\n      swap1\n      pop\n        /* \"#utility.yul\":648:679   */\n      tag_56\n        /* \"#utility.yul\":673:678   */\n      dup2\n        /* \"#utility.yul\":648:679   */\n      tag_32\n      jump\t// in\n    tag_56:\n        /* \"#utility.yul\":550:685   */\n      swap3\n      swap2\n      pop\n      pop\n      jump\t// out\n        /* \"#utility.yul\":691:1016   */\n    tag_7:\n        /* \"#utility.yul\":748:754   */\n      0x00\n        /* \"#utility.yul\":797:799   */\n      0x20\n        /* \"#utility.yul\":785:794   */\n      dup3\n        /* \"#utility.yul\":776:783   */\n      dup5\n        /* \"#utility.yul\":772:795   */\n      sub\n        /* \"#utility.yul\":768:800   */\n      slt\n        /* \"#utility.yul\":765:884   */\n      iszero\n      tag_58\n      jumpi\n        /* \"#utility.yul\":803:882   */\n      tag_59\n      tag_29\n      jump\t// in\n    tag_59:\n        /* \"#utility.yul\":765:884   */\n    tag_58:\n        /* \"#utility.yul\":923:924   */\n      0x00\n        /* \"#utility.yul\":948:999   */\n      tag_60\n        /* \"#utility.yul\":991:998   */\n      dup5\n        /* \"#utility.yul\":982:988   */\n      dup3\n        /* \"#utility.yul\":971:980   */\n      dup6\n        /* \"#utility.yul\":967:989   */\n      add\n        /* \"#utility.yul\":948:999   */\n      tag_33\n      jump\t// in\n    tag_60:\n        /* \"#utility.yul\":938:999   */\n      swap2\n      pop\n        /* \"#utility.yul\":894:1009   */\n      pop\n        /* \"#utility.yul\":691:1016   */\n      swap3\n      swap2\n      pop\n      pop\n      jump\t// out\n        /* \"#utility.yul\":1022:1148   */\n    tag_34:\n        /* \"#utility.yul\":1059:1066   */\n      0x00\n        /* \"#utility.yul\":1099:1141   */\n      0xffffffffffffffffffffffffffffffffffffffff\n        /* \"#utility.yul\":1092:1097   */\n      dup3\n        /* \"#utility.yul\":1088:1142   */\n      and\n        /* \"#utility.yul\":1077:1142   */\n      swap1\n      pop\n        /* \"#utility.yul\":1022:1148   */\n      swap2\n      swap1\n      pop\n      jump\t// out\n        /* \"#utility.yul\":1154:1214   */\n    tag_35:\n        /* \"#utility.yul\":1182:1185   */\n      0x00\n        /* \"#utility.yul\":1203:1208   */\n      dup2\n        /* \"#utility.yul\":1196:1208   */\n      swap1\n      pop\n        /* \"#utility.yul\":1154:1214   */\n      swap2\n      swap1\n      pop\n      jump\t// out\n        /* \"#utility.yul\":1220:1362   */\n    tag_36:\n        /* \"#utility.yul\":1270:1279   */\n      0x00\n        /* \"#utility.yul\":1303:1356   */\n      tag_64\n        /* \"#utility.yul\":1321:1355   */\n      tag_65\n        /* \"#utility.yul\":1330:1354   */\n      tag_66\n        /* \"#utility.yul\":1348:1353   */\n      dup5\n        /* \"#utility.yul\":1330:1354   */\n      tag_34\n      jump\t// in\n    tag_66:\n        /* \"#utility.yul\":1321:1355   */\n      tag_35\n      jump\t// in\n    tag_65:\n        /* \"#utility.yul\":1303:1356   */\n      tag_34\n      jump\t// in\n    tag_64:\n        /* \"#utility.yul\":1290:1356   */\n      swap1\n      pop\n        /* \"#utility.yul\":1220:1362   */\n      swap2\n      swap1\n      pop\n      jump\t// out\n        /* \"#utility.yul\":1368:1494   */\n    tag_37:\n        /* \"#utility.yul\":1418:1427   */\n      0x00\n        /* \"#utility.yul\":1451:1488   */\n      tag_68\n        /* \"#utility.yul\":1482:1487   */\n      dup3\n        /* \"#utility.yul\":1451:1488   */\n      tag_36\n      jump\t// in\n    tag_68:\n        /* \"#utility.yul\":1438:1488   */\n      swap1\n      pop\n        /* \"#utility.yul\":1368:1494   */\n      swap2\n      swap1\n      pop\n      jump\t// out\n        /* \"#utility.yul\":1500:1644   */\n    tag_38:\n        /* \"#utility.yul\":1568:1577   */\n      0x00\n        /* \"#utility.yul\":1601:1638   */\n      tag_70\n        /* \"#utility.yul\":1632:1637   */\n      dup3\n        /* \"#utility.yul\":1601:1638   */\n      tag_37\n      jump\t// in\n    tag_70:\n        /* \"#utility.yul\":1588:1638   */\n      swap1\n      pop\n        /* \"#utility.yul\":1500:1644   */\n      swap2\n      swap1\n      pop\n      jump\t// out\n        /* \"#utility.yul\":1650:1817   */\n    tag_39:\n        /* \"#utility.yul\":1755:1810   */\n      tag_72\n        /* \"#utility.yul\":1804:1809   */\n      dup2\n        /* \"#utility.yul\":1755:1810   */\n      tag_38\n      jump\t// in\n    tag_72:\n        /* \"#utility.yul\":1750:1753   */\n      dup3\n        /* \"#utility.yul\":1743:1811   */\n      mstore\n        /* \"#utility.yul\":1650:1817   */\n      pop\n      pop\n      jump\t// out\n        /* \"#utility.yul\":1823:2081   */\n    tag_12:\n        /* \"#utility.yul\":1934:1938   */\n      0x00\n        /* \"#utility.yul\":1972:1974   */\n      0x20\n        /* \"#utility.yul\":1961:1970   */\n      dup3\n        /* \"#utility.yul\":1957:1975   */\n      add\n        /* \"#utility.yul\":1949:1975   */\n      swap1\n      pop\n        /* \"#utility.yul\":1985:2074   */\n      tag_74\n        /* \"#utility.yul\":2071:2072   */\n      0x00\n        /* \"#utility.yul\":2060:2069   */\n      dup4\n        /* \"#utility.yul\":2056:2073   */\n      add\n        /* \"#utility.yul\":2047:2053   */\n      dup5\n        /* \"#utility.yul\":1985:2074   */\n      tag_39\n      jump\t// in\n    tag_74:\n        /* \"#utility.yul\":1823:2081   */\n      swap3\n      swap2\n      pop\n      pop\n      jump\t// out\n        /* \"#utility.yul\":2087:2199   */\n    tag_40:\n        /* \"#utility.yul\":2170:2192   */\n      tag_76\n        /* \"#utility.yul\":2186:2191   */\n      dup2\n        /* \"#utility.yul\":2170:2192   */\n      tag_31\n      jump\t// in\n    tag_76:\n        /* \"#utility.yul\":2165:2168   */\n      dup3\n        /* \"#utility.yul\":2158:2193   */\n      mstore\n        /* \"#utility.yul\":2087:2199   */\n      pop\n      pop\n      jump\t// out\n        /* \"#utility.yul\":2205:2419   */\n    tag_15:\n        /* \"#utility.yul\":2294:2298   */\n      0x00\n        /* \"#utility.yul\":2332:2334   */\n      0x20\n        /* \"#utility.yul\":2321:2330   */\n      dup3\n        /* \"#utility.yul\":2317:2335   */\n      add\n        /* \"#utility.yul\":2309:2335   */\n      swap1\n      pop\n        /* \"#utility.yul\":2345:2412   */\n      tag_78\n        /* \"#utility.yul\":2409:2410   */\n      0x00\n        /* \"#utility.yul\":2398:2407   */\n      dup4\n        /* \"#utility.yul\":2394:2411   */\n      add\n        /* \"#utility.yul\":2385:2391   */\n      dup5\n        /* \"#utility.yul\":2345:2412   */\n      tag_40\n      jump\t// in\n    tag_78:\n        /* \"#utility.yul\":2205:2419   */\n      swap3\n      swap2\n      pop\n      pop\n      jump\t// out\n        /* \"#utility.yul\":2425:2564   */\n    tag_41:\n        /* \"#utility.yul\":2480:2485   */\n      0x00\n        /* \"#utility.yul\":2511:2517   */\n      dup2\n        /* \"#utility.yul\":2505:2518   */\n      mload\n        /* \"#utility.yul\":2496:2518   */\n      swap1\n      pop\n        /* \"#utility.yul\":2527:2558   */\n      tag_80\n        /* \"#utility.yul\":2552:2557   */\n      dup2\n        /* \"#utility.yul\":2527:2558   */\n      tag_32\n      jump\t// in\n    tag_80:\n        /* \"#utility.yul\":2425:2564   */\n      swap3\n      swap2\n      pop\n      pop\n      jump\t// out\n        /* \"#utility.yul\":2570:2917   */\n    tag_18:\n        /* \"#utility.yul\":2638:2644   */\n      0x00\n        /* \"#utility.yul\":2687:2689   */\n      0x20\n        /* \"#utility.yul\":2675:2684   */\n      dup3\n        /* \"#utility.yul\":2666:2673   */\n      dup5\n        /* \"#utility.yul\":2662:2685   */\n      sub\n        /* \"#utility.yul\":2658:2690   */\n      slt\n        /* \"#utility.yul\":2655:2774   */\n      iszero\n      tag_82\n      jumpi\n        /* \"#utility.yul\":2693:2772   */\n      tag_83\n      tag_29\n      jump\t// in\n    tag_83:\n        /* \"#utility.yul\":2655:2774   */\n    tag_82:\n        /* \"#utility.yul\":2813:2814   */\n      0x00\n        /* \"#utility.yul\":2838:2900   */\n      tag_84\n        /* \"#utility.yul\":2892:2899   */\n      dup5\n        /* \"#utility.yul\":2883:2889   */\n      dup3\n        /* \"#utility.yul\":2872:2881   */\n      dup6\n        /* \"#utility.yul\":2868:2890   */\n      add\n        /* \"#utility.yul\":2838:2900   */\n      tag_41\n      jump\t// in\n    tag_84:\n        /* \"#utility.yul\":2828:2900   */\n      swap2\n      pop\n        /* \"#utility.yul\":2784:2910   */\n      pop\n        /* \"#utility.yul\":2570:2917   */\n      swap3\n      swap2\n      pop\n      pop\n      jump\t// out\n        /* \"#utility.yul\":2923:3092   */\n    tag_42:\n        /* \"#utility.yul\":3007:3018   */\n      0x00\n        /* \"#utility.yul\":3041:3047   */\n      dup3\n        /* \"#utility.yul\":3036:3039   */\n      dup3\n        /* \"#utility.yul\":3029:3048   */\n      mstore\n        /* \"#utility.yul\":3081:3085   */\n      0x20\n        /* \"#utility.yul\":3076:3079   */\n      dup3\n        /* \"#utility.yul\":3072:3086   */\n      add\n        /* \"#utility.yul\":3057:3086   */\n      swap1\n      pop\n        /* \"#utility.yul\":2923:3092   */\n      swap3\n      swap2\n      pop\n      pop\n      jump\t// out\n        /* \"#utility.yul\":3098:3253   */\n    tag_43:\n        /* \"#utility.yul\":3238:3245   */\n      0x4572726f72000000000000000000000000000000000000000000000000000000\n        /* \"#utility.yul\":3234:3235   */\n      0x00\n        /* \"#utility.yul\":3226:3232   */\n      dup3\n        /* \"#utility.yul\":3222:3236   */\n      add\n        /* \"#utility.yul\":3215:3246   */\n      mstore\n        /* \"#utility.yul\":3098:3253   */\n      pop\n      jump\t// out\n        /* \"#utility.yul\":3259:3624   */\n    tag_44:\n        /* \"#utility.yul\":3401:3404   */\n      0x00\n        /* \"#utility.yul\":3422:3488   */\n      tag_88\n        /* \"#utility.yul\":3486:3487   */\n      0x05\n        /* \"#utility.yul\":3481:3484   */\n      dup4\n        /* \"#utility.yul\":3422:3488   */\n      tag_42\n      jump\t// in\n    tag_88:\n        /* \"#utility.yul\":3415:3488   */\n      swap2\n      pop\n        /* \"#utility.yul\":3497:3590   */\n      tag_89\n        /* \"#utility.yul\":3586:3589   */\n      dup3\n        /* \"#utility.yul\":3497:3590   */\n      tag_43\n      jump\t// in\n    tag_89:\n        /* \"#utility.yul\":3615:3617   */\n      0x20\n        /* \"#utility.yul\":3610:3613   */\n      dup3\n        /* \"#utility.yul\":3606:3618   */\n      add\n        /* \"#utility.yul\":3599:3618   */\n      swap1\n      pop\n        /* \"#utility.yul\":3259:3624   */\n      swap2\n      swap1\n      pop\n      jump\t// out\n        /* \"#utility.yul\":3630:4049   */\n    tag_24:\n        /* \"#utility.yul\":3796:3800   */\n      0x00\n        /* \"#utility.yul\":3834:3836   */\n      0x20\n        /* \"#utility.yul\":3823:3832   */\n      dup3\n        /* \"#utility.yul\":3819:3837   */\n      add\n        /* \"#utility.yul\":3811:3837   */\n      swap1\n      pop\n        /* \"#utility.yul\":3883:3892   */\n      dup2\n        /* \"#utility.yul\":3877:3881   */\n      dup2\n        /* \"#utility.yul\":3873:3893   */\n      sub\n        /* \"#utility.yul\":3869:3870   */\n      0x00\n        /* \"#utility.yul\":3858:3867   */\n      dup4\n        /* \"#utility.yul\":3854:3871   */\n      add\n        /* \"#utility.yul\":3847:3894   */\n      mstore\n        /* \"#utility.yul\":3911:4042   */\n      tag_91\n        /* \"#utility.yul\":4037:4041   */\n      dup2\n        /* \"#utility.yul\":3911:4042   */\n      tag_44\n      jump\t// in\n    tag_91:\n        /* \"#utility.yul\":3903:4042   */\n      swap1\n      pop\n        /* \"#utility.yul\":3630:4049   */\n      swap2\n      swap1\n      pop\n      jump\t// out\n        /* \"#utility.yul\":4055:4209   */\n    tag_45:\n        /* \"#utility.yul\":4195:4201   */\n      0x476f6f6400000000000000000000000000000000000000000000000000000000\n        /* \"#utility.yul\":4191:4192   */\n      0x00\n        /* \"#utility.yul\":4183:4189   */\n      dup3\n        /* \"#utility.yul\":4179:4193   */\n      add\n        /* \"#utility.yul\":4172:4202   */\n      mstore\n        /* \"#utility.yul\":4055:4209   */\n      pop\n      jump\t// out\n        /* \"#utility.yul\":4215:4580   */\n    tag_46:\n        /* \"#utility.yul\":4357:4360   */\n      0x00\n        /* \"#utility.yul\":4378:4444   */\n      tag_94\n        /* \"#utility.yul\":4442:4443   */\n      0x04\n        /* \"#utility.yul\":4437:4440   */\n      dup4\n        /* \"#utility.yul\":4378:4444   */\n      tag_42\n      jump\t// in\n    tag_94:\n        /* \"#utility.yul\":4371:4444   */\n      swap2\n      pop\n        /* \"#utility.yul\":4453:4546   */\n      tag_95\n        /* \"#utility.yul\":4542:4545   */\n      dup3\n        /* \"#utility.yul\":4453:4546   */\n      tag_45\n      jump\t// in\n    tag_95:\n        /* \"#utility.yul\":4571:4573   */\n      0x20\n        /* \"#utility.yul\":4566:4569   */\n      dup3\n        /* \"#utility.yul\":4562:4574   */\n      add\n        /* \"#utility.yul\":4555:4574   */\n      swap1\n      pop\n        /* \"#utility.yul\":4215:4580   */\n      swap2\n      swap1\n      pop\n      jump\t// out\n        /* \"#utility.yul\":4586:5005   */\n    tag_27:\n        /* \"#utility.yul\":4752:4756   */\n      0x00\n        /* \"#utility.yul\":4790:4792   */\n      0x20\n        /* \"#utility.yul\":4779:4788   */\n      dup3\n        /* \"#utility.yul\":4775:4793   */\n      add\n        /* \"#utility.yul\":4767:4793   */\n      swap1\n      pop\n        /* \"#utility.yul\":4839:4848   */\n      dup2\n        /* \"#utility.yul\":4833:4837   */\n      dup2\n        /* \"#utility.yul\":4829:4849   */\n      sub\n        /* \"#utility.yul\":4825:4826   */\n      0x00\n        /* \"#utility.yul\":4814:4823   */\n      dup4\n        /* \"#utility.yul\":4810:4827   */\n      add\n        /* \"#utility.yul\":4803:4850   */\n      mstore\n        /* \"#utility.yul\":4867:4998   */\n      tag_97\n        /* \"#utility.yul\":4993:4997   */\n      dup2\n        /* \"#utility.yul\":4867:4998   */\n      tag_46\n      jump\t// in\n    tag_97:\n        /* \"#utility.yul\":4859:4998   */\n      swap1\n      pop\n        /* \"#utility.yul\":4586:5005   */\n      swap2\n      swap1\n      pop\n      jump\t// out\n\n    auxdata: 0xa2646970667358221220ffcca366b7cdbb40bdfc1ddb9000a41e8f4d295e9b6a8808aff7dd67fd67b58d64736f6c63430008140033\n}\n\nsub_1: assembly {\n        /* \"experiences/0004/Overflow.sol\":61:175  contract MathSpecial {... */\n      mstore(0x40, 0x80)\n      callvalue\n      dup1\n      iszero\n      tag_1\n      jumpi\n      0x00\n      dup1\n      revert\n    tag_1:\n      pop\n      dataSize(sub_0)\n      dup1\n      dataOffset(sub_0)\n      0x00\n      codecopy\n      0x00\n      return\n    stop\n\n    sub_0: assembly {\n            /* \"experiences/0004/Overflow.sol\":61:175  contract MathSpecial {... */\n          mstore(0x40, 0x80)\n          callvalue\n          dup1\n          iszero\n          tag_1\n          jumpi\n          0x00\n          dup1\n          revert\n        tag_1:\n          pop\n          jumpi(tag_2, lt(calldatasize, 0x04))\n          shr(0xe0, calldataload(0x00))\n          dup1\n          0x02067e6a\n          eq\n          tag_3\n          jumpi\n        tag_2:\n          0x00\n          dup1\n          revert\n            /* \"experiences/0004/Overflow.sol\":89:172  function add(uint8 x) public pure returns(uint8) {... */\n        tag_3:\n          tag_4\n          0x04\n          dup1\n          calldatasize\n          sub\n          dup2\n          add\n          swap1\n          tag_5\n          swap2\n          swap1\n          tag_6\n          jump\t// in\n        tag_5:\n          tag_7\n          jump\t// in\n        tag_4:\n          mload(0x40)\n          tag_8\n          swap2\n          swap1\n          tag_9\n          jump\t// in\n        tag_8:\n          mload(0x40)\n          dup1\n          swap2\n          sub\n          swap1\n          return\n        tag_7:\n            /* \"experiences/0004/Overflow.sol\":131:136  uint8 */\n          0x00\n            /* \"experiences/0004/Overflow.sol\":162:163  x */\n          dup2\n            /* \"experiences/0004/Overflow.sol\":156:159  255 */\n          0xff\n            /* \"experiences/0004/Overflow.sol\":156:163  255 + x */\n          tag_11\n          swap2\n          swap1\n          tag_12\n          jump\t// in\n        tag_11:\n            /* \"experiences/0004/Overflow.sol\":149:163  return 255 + x */\n          swap1\n          pop\n            /* \"experiences/0004/Overflow.sol\":89:172  function add(uint8 x) public pure returns(uint8) {... */\n          swap2\n          swap1\n          pop\n          jump\t// out\n            /* \"#utility.yul\":88:205   */\n        tag_14:\n            /* \"#utility.yul\":197:198   */\n          0x00\n            /* \"#utility.yul\":194:195   */\n          dup1\n            /* \"#utility.yul\":187:199   */\n          revert\n            /* \"#utility.yul\":334:420   */\n        tag_16:\n            /* \"#utility.yul\":369:376   */\n          0x00\n            /* \"#utility.yul\":409:413   */\n          0xff\n            /* \"#utility.yul\":402:407   */\n          dup3\n            /* \"#utility.yul\":398:414   */\n          and\n            /* \"#utility.yul\":387:414   */\n          swap1\n          pop\n            /* \"#utility.yul\":334:420   */\n          swap2\n          swap1\n          pop\n          jump\t// out\n            /* \"#utility.yul\":426:544   */\n        tag_17:\n            /* \"#utility.yul\":497:519   */\n          tag_27\n            /* \"#utility.yul\":513:518   */\n          dup2\n            /* \"#utility.yul\":497:519   */\n          tag_16\n          jump\t// in\n        tag_27:\n            /* \"#utility.yul\":490:495   */\n          dup2\n            /* \"#utility.yul\":487:520   */\n          eq\n            /* \"#utility.yul\":477:538   */\n          tag_28\n          jumpi\n            /* \"#utility.yul\":534:535   */\n          0x00\n            /* \"#utility.yul\":531:532   */\n          dup1\n            /* \"#utility.yul\":524:536   */\n          revert\n            /* \"#utility.yul\":477:538   */\n        tag_28:\n            /* \"#utility.yul\":426:544   */\n          pop\n          jump\t// out\n            /* \"#utility.yul\":550:685   */\n        tag_18:\n            /* \"#utility.yul\":594:599   */\n          0x00\n            /* \"#utility.yul\":632:638   */\n          dup2\n            /* \"#utility.yul\":619:639   */\n          calldataload\n            /* \"#utility.yul\":610:639   */\n          swap1\n          pop\n            /* \"#utility.yul\":648:679   */\n          tag_30\n            /* \"#utility.yul\":673:678   */\n          dup2\n            /* \"#utility.yul\":648:679   */\n          tag_17\n          jump\t// in\n        tag_30:\n            /* \"#utility.yul\":550:685   */\n          swap3\n          swap2\n          pop\n          pop\n          jump\t// out\n            /* \"#utility.yul\":691:1016   */\n        tag_6:\n            /* \"#utility.yul\":748:754   */\n          0x00\n            /* \"#utility.yul\":797:799   */\n          0x20\n            /* \"#utility.yul\":785:794   */\n          dup3\n            /* \"#utility.yul\":776:783   */\n          dup5\n            /* \"#utility.yul\":772:795   */\n          sub\n            /* \"#utility.yul\":768:800   */\n          slt\n            /* \"#utility.yul\":765:884   */\n          iszero\n          tag_32\n          jumpi\n            /* \"#utility.yul\":803:882   */\n          tag_33\n          tag_14\n          jump\t// in\n        tag_33:\n            /* \"#utility.yul\":765:884   */\n        tag_32:\n            /* \"#utility.yul\":923:924   */\n          0x00\n            /* \"#utility.yul\":948:999   */\n          tag_34\n            /* \"#utility.yul\":991:998   */\n          dup5\n            /* \"#utility.yul\":982:988   */\n          dup3\n            /* \"#utility.yul\":971:980   */\n          dup6\n            /* \"#utility.yul\":967:989   */\n          add\n            /* \"#utility.yul\":948:999   */\n          tag_18\n          jump\t// in\n        tag_34:\n            /* \"#utility.yul\":938:999   */\n          swap2\n          pop\n            /* \"#utility.yul\":894:1009   */\n          pop\n            /* \"#utility.yul\":691:1016   */\n          swap3\n          swap2\n          pop\n          pop\n          jump\t// out\n            /* \"#utility.yul\":1022:1134   */\n        tag_19:\n            /* \"#utility.yul\":1105:1127   */\n          tag_36\n            /* \"#utility.yul\":1121:1126   */\n          dup2\n            /* \"#utility.yul\":1105:1127   */\n          tag_16\n          jump\t// in\n        tag_36:\n            /* \"#utility.yul\":1100:1103   */\n          dup3\n            /* \"#utility.yul\":1093:1128   */\n          mstore\n            /* \"#utility.yul\":1022:1134   */\n          pop\n          pop\n          jump\t// out\n            /* \"#utility.yul\":1140:1354   */\n        tag_9:\n            /* \"#utility.yul\":1229:1233   */\n          0x00\n            /* \"#utility.yul\":1267:1269   */\n          0x20\n            /* \"#utility.yul\":1256:1265   */\n          dup3\n            /* \"#utility.yul\":1252:1270   */\n          add\n            /* \"#utility.yul\":1244:1270   */\n          swap1\n          pop\n            /* \"#utility.yul\":1280:1347   */\n          tag_38\n            /* \"#utility.yul\":1344:1345   */\n          0x00\n            /* \"#utility.yul\":1333:1342   */\n          dup4\n            /* \"#utility.yul\":1329:1346   */\n          add\n            /* \"#utility.yul\":1320:1326   */\n          dup5\n            /* \"#utility.yul\":1280:1347   */\n          tag_19\n          jump\t// in\n        tag_38:\n            /* \"#utility.yul\":1140:1354   */\n          swap3\n          swap2\n          pop\n          pop\n          jump\t// out\n            /* \"#utility.yul\":1360:1540   */\n        tag_20:\n            /* \"#utility.yul\":1408:1485   */\n          0x4e487b7100000000000000000000000000000000000000000000000000000000\n            /* \"#utility.yul\":1405:1406   */\n          0x00\n            /* \"#utility.yul\":1398:1486   */\n          mstore\n            /* \"#utility.yul\":1505:1509   */\n          0x11\n            /* \"#utility.yul\":1502:1503   */\n          0x04\n            /* \"#utility.yul\":1495:1510   */\n          mstore\n            /* \"#utility.yul\":1529:1533   */\n          0x24\n            /* \"#utility.yul\":1526:1527   */\n          0x00\n            /* \"#utility.yul\":1519:1534   */\n          revert\n            /* \"#utility.yul\":1546:1734   */\n        tag_12:\n            /* \"#utility.yul\":1584:1587   */\n          0x00\n            /* \"#utility.yul\":1603:1621   */\n          tag_41\n            /* \"#utility.yul\":1619:1620   */\n          dup3\n            /* \"#utility.yul\":1603:1621   */\n          tag_16\n          jump\t// in\n        tag_41:\n            /* \"#utility.yul\":1598:1621   */\n          swap2\n          pop\n            /* \"#utility.yul\":1635:1653   */\n          tag_42\n            /* \"#utility.yul\":1651:1652   */\n          dup4\n            /* \"#utility.yul\":1635:1653   */\n          tag_16\n          jump\t// in\n        tag_42:\n            /* \"#utility.yul\":1630:1653   */\n          swap3\n          pop\n            /* \"#utility.yul\":1676:1677   */\n          dup3\n            /* \"#utility.yul\":1673:1674   */\n          dup3\n            /* \"#utility.yul\":1669:1678   */\n          add\n            /* \"#utility.yul\":1662:1678   */\n          swap1\n          pop\n            /* \"#utility.yul\":1699:1703   */\n          0xff\n            /* \"#utility.yul\":1694:1697   */\n          dup2\n            /* \"#utility.yul\":1691:1704   */\n          gt\n            /* \"#utility.yul\":1688:1727   */\n          iszero\n          tag_43\n          jumpi\n            /* \"#utility.yul\":1707:1725   */\n          tag_44\n          tag_20\n          jump\t// in\n        tag_44:\n            /* \"#utility.yul\":1688:1727   */\n        tag_43:\n            /* \"#utility.yul\":1546:1734   */\n          swap3\n          swap2\n          pop\n          pop\n          jump\t// out\n\n        auxdata: 0xa2646970667358221220254f542a676f9e579a521f38f4a86f4afb21da289c90378a2b57129e321d07f564736f6c63430008140033\n    }\n}\n",
				"bytecode": {
					"linkReferences": {},
					"object": "608060405234801561000f575f80fd5b5060405161001c90610079565b604051809103905ff080158015610035573d5f803e3d5ffd5b505f806101000a81548173ffffffffffffffffffffffffffffffffffffffff021916908373ffffffffffffffffffffffffffffffffffffffff160217905550610086565b6101b3806104a783390190565b610414806100935f395ff3fe608060405234801561000f575f80fd5b5060043610610034575f3560e01c806364245fbc14610038578063940e597514610054575b5f80fd5b610052600480360381019061004d91906101d9565b610072565b005b61005c61017c565b604051610069919061027e565b60405180910390f35b5f8054906101000a900473ffffffffffffffffffffffffffffffffffffffff1673ffffffffffffffffffffffffffffffffffffffff166302067e6a826040518263ffffffff1660e01b81526004016100ca91906102a6565b602060405180830381865afa92505050801561010457506040513d601f19601f8201168201806040525081019061010191906102d3565b60015b610142577fcf34ef537ac33ee1ac626ca1587a0a7e8e51561e5514f8cb36afa1c5102b3bab60405161013590610358565b60405180910390a1610179565b507fcf34ef537ac33ee1ac626ca1587a0a7e8e51561e5514f8cb36afa1c5102b3bab604051610170906103c0565b60405180910390a15b50565b5f8054906101000a900473ffffffffffffffffffffffffffffffffffffffff1681565b5f80fd5b5f60ff82169050919050565b6101b8816101a3565b81146101c2575f80fd5b50565b5f813590506101d3816101af565b92915050565b5f602082840312156101ee576101ed61019f565b5b5f6101fb848285016101c5565b91505092915050565b5f73ffffffffffffffffffffffffffffffffffffffff82169050919050565b5f819050919050565b5f61024661024161023c84610204565b610223565b610204565b9050919050565b5f6102578261022c565b9050919050565b5f6102688261024d565b9050919050565b6102788161025e565b82525050565b5f6020820190506102915f83018461026f565b92915050565b6102a0816101a3565b82525050565b5f6020820190506102b95f830184610297565b92915050565b5f815190506102cd816101af565b92915050565b5f602082840312156102e8576102e761019f565b5b5f6102f5848285016102bf565b91505092915050565b5f82825260208201905092915050565b7f4572726f720000000000000000000000000000000000000000000000000000005f82015250565b5f6103426005836102fe565b915061034d8261030e565b602082019050919050565b5f6020820190508181035f83015261036f81610336565b9050919050565b7f476f6f64000000000000000000000000000000000000000000000000000000005f82015250565b5f6103aa6004836102fe565b91506103b582610376565b602082019050919050565b5f6020820190508181035f8301526103d78161039e565b905091905056fea2646970667358221220ffcca366b7cdbb40bdfc1ddb9000a41e8f4d295e9b6a8808aff7dd67fd67b58d64736f6c63430008140033608060405234801561000f575f80fd5b506101968061001d5f395ff3fe608060405234801561000f575f80fd5b5060043610610029575f3560e01c806302067e6a1461002d575b5f80fd5b610047600480360381019061004291906100ac565b61005d565b60405161005491906100e6565b60405180910390f35b5f8160ff61006b919061012c565b9050919050565b5f80fd5b5f60ff82169050919050565b61008b81610076565b8114610095575f80fd5b50565b5f813590506100a681610082565b92915050565b5f602082840312156100c1576100c0610072565b5b5f6100ce84828501610098565b91505092915050565b6100e081610076565b82525050565b5f6020820190506100f95f8301846100d7565b92915050565b7f4e487b71000000000000000000000000000000000000000000000000000000005f52601160045260245ffd5b5f61013682610076565b915061014183610076565b9250828201905060ff81111561015a576101596100ff565b5b9291505056fea2646970667358221220254f542a676f9e579a521f38f4a86f4afb21da289c90378a2b57129e321d07f564736f6c63430008140033",
					"opcodes": "PUSH1 0x80 PUSH1 0x40 MSTORE CALLVALUE DUP1 ISZERO PUSH2 0xF JUMPI PUSH0 DUP1 REVERT JUMPDEST POP PUSH1 0x40 MLOAD PUSH2 0x1C SWAP1 PUSH2 0x79 JUMP JUMPDEST PUSH1 0x40 MLOAD DUP1 SWAP2 SUB SWAP1 PUSH0 CREATE DUP1 ISZERO DUP1 ISZERO PUSH2 0x35 JUMPI RETURNDATASIZE PUSH0 DUP1 RETURNDATACOPY RETURNDATASIZE PUSH0 REVERT JUMPDEST POP PUSH0 DUP1 PUSH2 0x100 EXP DUP2 SLOAD DUP2 PUSH20 0xFFFFFFFFFFFFFFFFFFFFFFFFFFFFFFFFFFFFFFFF MUL NOT AND SWAP1 DUP4 PUSH20 0xFFFFFFFFFFFFFFFFFFFFFFFFFFFFFFFFFFFFFFFF AND MUL OR SWAP1 SSTORE POP PUSH2 0x86 JUMP JUMPDEST PUSH2 0x1B3 DUP1 PUSH2 0x4A7 DUP4 CODECOPY ADD SWAP1 JUMP JUMPDEST PUSH2 0x414 DUP1 PUSH2 0x93 PUSH0 CODECOPY PUSH0 RETURN INVALID PUSH1 0x80 PUSH1 0x40 MSTORE CALLVALUE DUP1 ISZERO PUSH2 0xF JUMPI PUSH0 DUP1 REVERT JUMPDEST POP PUSH1 0x4 CALLDATASIZE LT PUSH2 0x34 JUMPI PUSH0 CALLDATALOAD PUSH1 0xE0 SHR DUP1 PUSH4 0x64245FBC EQ PUSH2 0x38 JUMPI DUP1 PUSH4 0x940E5975 EQ PUSH2 0x54 JUMPI JUMPDEST PUSH0 DUP1 REVERT JUMPDEST PUSH2 0x52 PUSH1 0x4 DUP1 CALLDATASIZE SUB DUP2 ADD SWAP1 PUSH2 0x4D SWAP2 SWAP1 PUSH2 0x1D9 JUMP JUMPDEST PUSH2 0x72 JUMP JUMPDEST STOP JUMPDEST PUSH2 0x5C PUSH2 0x17C JUMP JUMPDEST PUSH1 0x40 MLOAD PUSH2 0x69 SWAP2 SWAP1 PUSH2 0x27E JUMP JUMPDEST PUSH1 0x40 MLOAD DUP1 SWAP2 SUB SWAP1 RETURN JUMPDEST PUSH0 DUP1 SLOAD SWAP1 PUSH2 0x100 EXP SWAP1 DIV PUSH20 0xFFFFFFFFFFFFFFFFFFFFFFFFFFFFFFFFFFFFFFFF AND PUSH20 0xFFFFFFFFFFFFFFFFFFFFFFFFFFFFFFFFFFFFFFFF AND PUSH4 0x2067E6A DUP3 PUSH1 0x40 MLOAD DUP3 PUSH4 0xFFFFFFFF AND PUSH1 0xE0 SHL DUP2 MSTORE PUSH1 0x4 ADD PUSH2 0xCA SWAP2 SWAP1 PUSH2 0x2A6 JUMP JUMPDEST PUSH1 0x20 PUSH1 0x40 MLOAD DUP1 DUP4 SUB DUP2 DUP7 GAS STATICCALL SWAP3 POP POP POP DUP1 ISZERO PUSH2 0x104 JUMPI POP PUSH1 0x40 MLOAD RETURNDATASIZE PUSH1 0x1F NOT PUSH1 0x1F DUP3 ADD AND DUP3 ADD DUP1 PUSH1 0x40 MSTORE POP DUP2 ADD SWAP1 PUSH2 0x101 SWAP2 SWAP1 PUSH2 0x2D3 JUMP JUMPDEST PUSH1 0x1 JUMPDEST PUSH2 0x142 JUMPI PUSH32 0xCF34EF537AC33EE1AC626CA1587A0A7E8E51561E5514F8CB36AFA1C5102B3BAB PUSH1 0x40 MLOAD PUSH2 0x135 SWAP1 PUSH2 0x358 JUMP JUMPDEST PUSH1 0x40 MLOAD DUP1 SWAP2 SUB SWAP1 LOG1 PUSH2 0x179 JUMP JUMPDEST POP PUSH32 0xCF34EF537AC33EE1AC626CA1587A0A7E8E51561E5514F8CB36AFA1C5102B3BAB PUSH1 0x40 MLOAD PUSH2 0x170 SWAP1 PUSH2 0x3C0 JUMP JUMPDEST PUSH1 0x40 MLOAD DUP1 SWAP2 SUB SWAP1 LOG1 JUMPDEST POP JUMP JUMPDEST PUSH0 DUP1 SLOAD SWAP1 PUSH2 0x100 EXP SWAP1 DIV PUSH20 0xFFFFFFFFFFFFFFFFFFFFFFFFFFFFFFFFFFFFFFFF AND DUP2 JUMP JUMPDEST PUSH0 DUP1 REVERT JUMPDEST PUSH0 PUSH1 0xFF DUP3 AND SWAP1 POP SWAP2 SWAP1 POP JUMP JUMPDEST PUSH2 0x1B8 DUP2 PUSH2 0x1A3 JUMP JUMPDEST DUP2 EQ PUSH2 0x1C2 JUMPI PUSH0 DUP1 REVERT JUMPDEST POP JUMP JUMPDEST PUSH0 DUP2 CALLDATALOAD SWAP1 POP PUSH2 0x1D3 DUP2 PUSH2 0x1AF JUMP JUMPDEST SWAP3 SWAP2 POP POP JUMP JUMPDEST PUSH0 PUSH1 0x20 DUP3 DUP5 SUB SLT ISZERO PUSH2 0x1EE JUMPI PUSH2 0x1ED PUSH2 0x19F JUMP JUMPDEST JUMPDEST PUSH0 PUSH2 0x1FB DUP5 DUP3 DUP6 ADD PUSH2 0x1C5 JUMP JUMPDEST SWAP2 POP POP SWAP3 SWAP2 POP POP JUMP JUMPDEST PUSH0 PUSH20 0xFFFFFFFFFFFFFFFFFFFFFFFFFFFFFFFFFFFFFFFF DUP3 AND SWAP1 POP SWAP2 SWAP1 POP JUMP JUMPDEST PUSH0 DUP2 SWAP1 POP SWAP2 SWAP1 POP JUMP JUMPDEST PUSH0 PUSH2 0x246 PUSH2 0x241 PUSH2 0x23C DUP5 PUSH2 0x204 JUMP JUMPDEST PUSH2 0x223 JUMP JUMPDEST PUSH2 0x204 JUMP JUMPDEST SWAP1 POP SWAP2 SWAP1 POP JUMP JUMPDEST PUSH0 PUSH2 0x257 DUP3 PUSH2 0x22C JUMP JUMPDEST SWAP1 POP SWAP2 SWAP1 POP JUMP JUMPDEST PUSH0 PUSH2 0x268 DUP3 PUSH2 0x24D JUMP JUMPDEST SWAP1 POP SWAP2 SWAP1 POP JUMP JUMPDEST PUSH2 0x278 DUP2 PUSH2 0x25E JUMP JUMPDEST DUP3 MSTORE POP POP JUMP JUMPDEST PUSH0 PUSH1 0x20 DUP3 ADD SWAP1 POP PUSH2 0x291 PUSH0 DUP4 ADD DUP5 PUSH2 0x26F JUMP JUMPDEST SWAP3 SWAP2 POP POP JUMP JUMPDEST PUSH2 0x2A0 DUP2 PUSH2 0x1A3 JUMP JUMPDEST DUP3 MSTORE POP POP JUMP JUMPDEST PUSH0 PUSH1 0x20 DUP3 ADD SWAP1 POP PUSH2 0x2B9 PUSH0 DUP4 ADD DUP5 PUSH2 0x297 JUMP JUMPDEST SWAP3 SWAP2 POP POP JUMP JUMPDEST PUSH0 DUP2 MLOAD SWAP1 POP PUSH2 0x2CD DUP2 PUSH2 0x1AF JUMP JUMPDEST SWAP3 SWAP2 POP POP JUMP JUMPDEST PUSH0 PUSH1 0x20 DUP3 DUP5 SUB SLT ISZERO PUSH2 0x2E8 JUMPI PUSH2 0x2E7 PUSH2 0x19F JUMP JUMPDEST JUMPDEST PUSH0 PUSH2 0x2F5 DUP5 DUP3 DUP6 ADD PUSH2 0x2BF JUMP JUMPDEST SWAP2 POP POP SWAP3 SWAP2 POP POP JUMP JUMPDEST PUSH0 DUP3 DUP3 MSTORE PUSH1 0x20 DUP3 ADD SWAP1 POP SWAP3 SWAP2 POP POP JUMP JUMPDEST PUSH32 0x4572726F72000000000000000000000000000000000000000000000000000000 PUSH0 DUP3 ADD MSTORE POP JUMP JUMPDEST PUSH0 PUSH2 0x342 PUSH1 0x5 DUP4 PUSH2 0x2FE JUMP JUMPDEST SWAP2 POP PUSH2 0x34D DUP3 PUSH2 0x30E JUMP JUMPDEST PUSH1 0x20 DUP3 ADD SWAP1 POP SWAP2 SWAP1 POP JUMP JUMPDEST PUSH0 PUSH1 0x20 DUP3 ADD SWAP1 POP DUP2 DUP2 SUB PUSH0 DUP4 ADD MSTORE PUSH2 0x36F DUP2 PUSH2 0x336 JUMP JUMPDEST SWAP1 POP SWAP2 SWAP1 POP JUMP JUMPDEST PUSH32 0x476F6F6400000000000000000000000000000000000000000000000000000000 PUSH0 DUP3 ADD MSTORE POP JUMP JUMPDEST PUSH0 PUSH2 0x3AA PUSH1 0x4 DUP4 PUSH2 0x2FE JUMP JUMPDEST SWAP2 POP PUSH2 0x3B5 DUP3 PUSH2 0x376 JUMP JUMPDEST PUSH1 0x20 DUP3 ADD SWAP1 POP SWAP2 SWAP1 POP JUMP JUMPDEST PUSH0 PUSH1 0x20 DUP3 ADD SWAP1 POP DUP2 DUP2 SUB PUSH0 DUP4 ADD MSTORE PUSH2 0x3D7 DUP2 PUSH2 0x39E JUMP JUMPDEST SWAP1 POP SWAP2 SWAP1 POP JUMP INVALID LOG2 PUSH5 0x6970667358 0x22 SLT KECCAK256 SELFDESTRUCT 0xCC LOG3 PUSH7 0xB7CDBB40BDFC1D 0xDB SWAP1 STOP LOG4 0x1E DUP16 0x4D 0x29 0x5E SWAP12 PUSH11 0x8808AFF7DD67FD67B58D64 PUSH20 0x6F6C63430008140033608060405234801561000F JUMPI PUSH0 DUP1 REVERT JUMPDEST POP PUSH2 0x196 DUP1 PUSH2 0x1D PUSH0 CODECOPY PUSH0 RETURN INVALID PUSH1 0x80 PUSH1 0x40 MSTORE CALLVALUE DUP1 ISZERO PUSH2 0xF JUMPI PUSH0 DUP1 REVERT JUMPDEST POP PUSH1 0x4 CALLDATASIZE LT PUSH2 0x29 JUMPI PUSH0 CALLDATALOAD PUSH1 0xE0 SHR DUP1 PUSH4 0x2067E6A EQ PUSH2 0x2D JUMPI JUMPDEST PUSH0 DUP1 REVERT JUMPDEST PUSH2 0x47 PUSH1 0x4 DUP1 CALLDATASIZE SUB DUP2 ADD SWAP1 PUSH2 0x42 SWAP2 SWAP1 PUSH2 0xAC JUMP JUMPDEST PUSH2 0x5D JUMP JUMPDEST PUSH1 0x40 MLOAD PUSH2 0x54 SWAP2 SWAP1 PUSH2 0xE6 JUMP JUMPDEST PUSH1 0x40 MLOAD DUP1 SWAP2 SUB SWAP1 RETURN JUMPDEST PUSH0 DUP2 PUSH1 0xFF PUSH2 0x6B SWAP2 SWAP1 PUSH2 0x12C JUMP JUMPDEST SWAP1 POP SWAP2 SWAP1 POP JUMP JUMPDEST PUSH0 DUP1 REVERT JUMPDEST PUSH0 PUSH1 0xFF DUP3 AND SWAP1 POP SWAP2 SWAP1 POP JUMP JUMPDEST PUSH2 0x8B DUP2 PUSH2 0x76 JUMP JUMPDEST DUP2 EQ PUSH2 0x95 JUMPI PUSH0 DUP1 REVERT JUMPDEST POP JUMP JUMPDEST PUSH0 DUP2 CALLDATALOAD SWAP1 POP PUSH2 0xA6 DUP2 PUSH2 0x82 JUMP JUMPDEST SWAP3 SWAP2 POP POP JUMP JUMPDEST PUSH0 PUSH1 0x20 DUP3 DUP5 SUB SLT ISZERO PUSH2 0xC1 JUMPI PUSH2 0xC0 PUSH2 0x72 JUMP JUMPDEST JUMPDEST PUSH0 PUSH2 0xCE DUP5 DUP3 DUP6 ADD PUSH2 0x98 JUMP JUMPDEST SWAP2 POP POP SWAP3 SWAP2 POP POP JUMP JUMPDEST PUSH2 0xE0 DUP2 PUSH2 0x76 JUMP JUMPDEST DUP3 MSTORE POP POP JUMP JUMPDEST PUSH0 PUSH1 0x20 DUP3 ADD SWAP1 POP PUSH2 0xF9 PUSH0 DUP4 ADD DUP5 PUSH2 0xD7 JUMP JUMPDEST SWAP3 SWAP2 POP POP JUMP JUMPDEST PUSH32 0x4E487B7100000000000000000000000000000000000000000000000000000000 PUSH0 MSTORE PUSH1 0x11 PUSH1 0x4 MSTORE PUSH1 0x24 PUSH0 REVERT JUMPDEST PUSH0 PUSH2 0x136 DUP3 PUSH2 0x76 JUMP JUMPDEST SWAP2 POP PUSH2 0x141 DUP4 PUSH2 0x76 JUMP JUMPDEST SWAP3 POP DUP3 DUP3 ADD SWAP1 POP PUSH1 0xFF DUP2 GT ISZERO PUSH2 0x15A JUMPI PUSH2 0x159 PUSH2 0xFF JUMP JUMPDEST JUMPDEST SWAP3 SWAP2 POP POP JUMP INVALID LOG2 PUSH5 0x6970667358 0x22 SLT KECCAK256 0x25 0x4F SLOAD 0x2A PUSH8 0x6F9E579A521F38F4 0xA8 PUSH16 0x4AFB21DA289C90378A2B57129E321D07 CREATE2 PUSH5 0x736F6C6343 STOP ADDMOD EQ STOP CALLER "
				},
				"gasEstimates": {
					"creation": {
						"codeDepositCost": "208800",
						"executionCost": "infinite",
						"totalCost": "infinite"
					},
					"external": {
						"mathSpecial()": "infinite",
						"overflow(uint8)": "infinite"
					}
				},
				"methodIdentifiers": {
					"mathSpecial()": "940e5975",
					"overflow(uint8)": "64245fbc"
				}
			},
			"storageLayout": {
				"storage": [
					{
						"astId": 21,
						"contract": "experiences/0004/Overflow.sol:Overflow",
						"label": "mathSpecial",
						"offset": 0,
						"slot": "0",
						"type": "t_contract(MathSpecial)14"
					}
				],
				"types": {
					"t_contract(MathSpecial)14": {
						"encoding": "inplace",
						"label": "contract MathSpecial",
						"numberOfBytes": "20"
					}
				}
			},
			"userdoc": {
				"kind": "user",
				"methods": {},
				"version": 1
			}
		}
	}
}