{
	"experiences/0004/Overflow.sol": {
		"MathSpecial": {
			"abi": [
				{
					"inputs": [
						{
							"internalType": "uint8",
							"name": "x",
							"type": "uint8"
						}
					],
					"name": "add",
					"outputs": [
						{
							"internalType": "uint8",
							"name": "",
							"type": "uint8"
						}
					],
					"stateMutability": "pure",
					"type": "function"
				}
			],
			"devdoc": {
				"kind": "dev",
				"methods": {},
				"version": 1
			},
			"evm": {
				"assembly": "    /* \"experiences/0004/Overflow.sol\":61:175  contract MathSpecial {... */\n  mstore(0x40, 0x80)\n  callvalue\n  dup1\n  iszero\n  tag_1\n  jumpi\n  0x00\n  dup1\n  revert\ntag_1:\n  pop\n  dataSize(sub_0)\n  dup1\n  dataOffset(sub_0)\n  0x00\n  codecopy\n  0x00\n  return\nstop\n\nsub_0: assembly {\n        /* \"experiences/0004/Overflow.sol\":61:175  contract MathSpecial {... */\n      mstore(0x40, 0x80)\n      callvalue\n      dup1\n      iszero\n      tag_1\n      jumpi\n      0x00\n      dup1\n      revert\n    tag_1:\n      pop\n      jumpi(tag_2, lt(calldatasize, 0x04))\n      shr(0xe0, calldataload(0x00))\n      dup1\n      0x02067e6a\n      eq\n      tag_3\n      jumpi\n    tag_2:\n      0x00\n      dup1\n      revert\n        /* \"experiences/0004/Overflow.sol\":89:172  function add(uint8 x) public pure returns(uint8) {... */\n    tag_3:\n      tag_4\n      0x04\n      dup1\n      calldatasize\n      sub\n      dup2\n      add\n      swap1\n      tag_5\n      swap2\n      swap1\n      tag_6\n      jump\t// in\n    tag_5:\n      tag_7\n      jump\t// in\n    tag_4:\n      mload(0x40)\n      tag_8\n      swap2\n      swap1\n      tag_9\n      jump\t// in\n    tag_8:\n      mload(0x40)\n      dup1\n      swap2\n      sub\n      swap1\n      return\n    tag_7:\n        /* \"experiences/0004/Overflow.sol\":131:136  uint8 */\n      0x00\n        /* \"experiences/0004/Overflow.sol\":162:163  x */\n      dup2\n        /* \"experiences/0004/Overflow.sol\":156:159  255 */\n      0xff\n        /* \"experiences/0004/Overflow.sol\":156:163  255 + x */\n      tag_11\n      swap2\n      swap1\n      tag_12\n      jump\t// in\n    tag_11:\n        /* \"experiences/0004/Overflow.sol\":149:163  return 255 + x */\n      swap1\n      pop\n        /* \"experiences/0004/Overflow.sol\":89:172  function add(uint8 x) public pure returns(uint8) {... */\n      swap2\n      swap1\n      pop\n      jump\t// out\n        /* \"#utility.yul\":88:205   */\n    tag_14:\n        /* \"#utility.yul\":197:198   */\n      0x00\n        /* \"#utility.yul\":194:195   */\n      dup1\n        /* \"#utility.yul\":187:199   */\n      revert\n        /* \"#utility.yul\":334:420   */\n    tag_16:\n        /* \"#utility.yul\":369:376   */\n      0x00\n        /* \"#utility.yul\":409:413   */\n      0xff\n        /* \"#utility.yul\":402:407   */\n      dup3\n        /* \"#utility.yul\":398:414   */\n      and\n        /* \"#utility.yul\":387:414   */\n      swap1\n      pop\n        /* \"#utility.yul\":334:420   */\n      swap2\n      swap1\n      pop\n      jump\t// out\n        /* \"#utility.yul\":426:544   */\n    tag_17:\n        /* \"#utility.yul\":497:519   */\n      tag_27\n        /* \"#utility.yul\":513:518   */\n      dup2\n        /* \"#utility.yul\":497:519   */\n      tag_16\n      jump\t// in\n    tag_27:\n        /* \"#utility.yul\":490:495   */\n      dup2\n        /* \"#utility.yul\":487:520   */\n      eq\n        /* \"#utility.yul\":477:538   */\n      tag_28\n      jumpi\n        /* \"#utility.yul\":534:535   */\n      0x00\n        /* \"#utility.yul\":531:532   */\n      dup1\n        /* \"#utility.yul\":524:536   */\n      revert\n        /* \"#utility.yul\":477:538   */\n    tag_28:\n        /* \"#utility.yul\":426:544   */\n      pop\n      jump\t// out\n        /* \"#utility.yul\":550:685   */\n    tag_18:\n        /* \"#utility.yul\":594:599   */\n      0x00\n        /* \"#utility.yul\":632:638   */\n      dup2\n        /* \"#utility.yul\":619:639   */\n      calldataload\n        /* \"#utility.yul\":610:639   */\n      swap1\n      pop\n        /* \"#utility.yul\":648:679   */\n      tag_30\n        /* \"#utility.yul\":673:678   */\n      dup2\n        /* \"#utility.yul\":648:679   */\n      tag_17\n      jump\t// in\n    tag_30:\n        /* \"#utility.yul\":550:685   */\n      swap3\n      swap2\n      pop\n      pop\n      jump\t// out\n        /* \"#utility.yul\":691:1016   */\n    tag_6:\n        /* \"#utility.yul\":748:754   */\n      0x00\n        /* \"#utility.yul\":797:799   */\n      0x20\n        /* \"#utility.yul\":785:794   */\n      dup3\n        /* \"#utility.yul\":776:783   */\n      dup5\n        /* \"#utility.yul\":772:795   */\n      sub\n        /* \"#utility.yul\":768:800   */\n      slt\n        /* \"#utility.yul\":765:884   */\n      iszero\n      tag_32\n      jumpi\n        /* \"#utility.yul\":803:882   */\n      tag_33\n      tag_14\n      jump\t// in\n    tag_33:\n        /* \"#utility.yul\":765:884   */\n    tag_32:\n        /* \"#utility.yul\":923:924   */\n      0x00\n        /* \"#utility.yul\":948:999   */\n      tag_34\n        /* \"#utility.yul\":991:998   */\n      dup5\n        /* \"#utility.yul\":982:988   */\n      dup3\n        /* \"#utility.yul\":971:980   */\n      dup6\n        /* \"#utility.yul\":967:989   */\n      add\n        /* \"#utility.yul\":948:999   */\n      tag_18\n      jump\t// in\n    tag_34:\n        /* \"#utility.yul\":938:999   */\n      swap2\n      pop\n        /* \"#utility.yul\":894:1009   */\n      pop\n        /* \"#utility.yul\":691:1016   */\n      swap3\n      swap2\n      pop\n      pop\n      jump\t// out\n        /* \"#utility.yul\":1022:1134   */\n    tag_19:\n        /* \"#utility.yul\":1105:1127   */\n      tag_36\n        /* \"#utility.yul\":1121:1126   */\n      dup2\n        /* \"#utility.yul\":1105:1127   */\n      tag_16\n      jump\t// in\n    tag_36:\n        /* \"#utility.yul\":1100:1103   */\n      dup3\n        /* \"#utility.yul\":1093:1128   */\n      mstore\n        /* \"#utility.yul\":1022:1134   */\n      pop\n      pop\n      jump\t// out\n        /* \"#utility.yul\":1140:1354   */\n    tag_9:\n        /* \"#utility.yul\":1229:1233   */\n      0x00\n        /* \"#utility.yul\":1267:1269   */\n      0x20\n        /* \"#utility.yul\":1256:1265   */\n      dup3\n        /* \"#utility.yul\":1252:1270   */\n      add\n        /* \"#utility.yul\":1244:1270   */\n      swap1\n      pop\n        /* \"#utility.yul\":1280:1347   */\n      tag_38\n        /* \"#utility.yul\":1344:1345   */\n      0x00\n        /* \"#utility.yul\":1333:1342   */\n      dup4\n        /* \"#utility.yul\":1329:1346   */\n      add\n        /* \"#utility.yul\":1320:1326   */\n      dup5\n        /* \"#utility.yul\":1280:1347   */\n      tag_19\n      jump\t// in\n    tag_38:\n        /* \"#utility.yul\":1140:1354   */\n      swap3\n      swap2\n      pop\n      pop\n      jump\t// out\n        /* \"#utility.yul\":1360:1540   */\n    tag_20:\n        /* \"#utility.yul\":1408:1485   */\n      0x4e487b7100000000000000000000000000000000000000000000000000000000\n        /* \"#utility.yul\":1405:1406   */\n      0x00\n        /* \"#utility.yul\":1398:1486   */\n      mstore\n        /* \"#utility.yul\":1505:1509   */\n      0x11\n        /* \"#utility.yul\":1502:1503   */\n      0x04\n        /* \"#utility.yul\":1495:1510   */\n      mstore\n        /* \"#utility.yul\":1529:1533   */\n      0x24\n        /* \"#utility.yul\":1526:1527   */\n      0x00\n        /* \"#utility.yul\":1519:1534   */\n      revert\n        /* \"#utility.yul\":1546:1734   */\n    tag_12:\n        /* \"#utility.yul\":1584:1587   */\n      0x00\n        /* \"#utility.yul\":1603:1621   */\n      tag_41\n        /* \"#utility.yul\":1619:1620   */\n      dup3\n        /* \"#utility.yul\":1603:1621   */\n      tag_16\n      jump\t// in\n    tag_41:\n        /* \"#utility.yul\":1598:1621   */\n      swap2\n      pop\n        /* \"#utility.yul\":1635:1653   */\n      tag_42\n        /* \"#utility.yul\":1651:1652   */\n      dup4\n        /* \"#utility.yul\":1635:1653   */\n      tag_16\n      jump\t// in\n    tag_42:\n        /* \"#utility.yul\":1630:1653   */\n      swap3\n      pop\n        /* \"#utility.yul\":1676:1677   */\n      dup3\n        /* \"#utility.yul\":1673:1674   */\n      dup3\n        /* \"#utility.yul\":1669:1678   */\n      add\n        /* \"#utility.yul\":1662:1678   */\n      swap1\n      pop\n        /* \"#utility.yul\":1699:1703   */\n      0xff\n        /* \"#utility.yul\":1694:1697   */\n      dup2\n        /* \"#utility.yul\":1691:1704   */\n      gt\n        /* \"#utility.yul\":1688:1727   */\n      iszero\n      tag_43\n      jumpi\n        /* \"#utility.yul\":1707:1725   */\n      tag_44\n      tag_20\n      jump\t// in\n    tag_44:\n        /* \"#utility.yul\":1688:1727   */\n    tag_43:\n        /* \"#utility.yul\":1546:1734   */\n      swap3\n      swap2\n      pop\n      pop\n      jump\t// out\n\n    auxdata: 0xa2646970667358221220254f542a676f9e579a521f38f4a86f4afb21da289c90378a2b57129e321d07f564736f6c63430008140033\n}\n",
				"bytecode": {
					"linkReferences": {},
					"object": "608060405234801561000f575f80fd5b506101968061001d5f395ff3fe608060405234801561000f575f80fd5b5060043610610029575f3560e01c806302067e6a1461002d575b5f80fd5b610047600480360381019061004291906100ac565b61005d565b60405161005491906100e6565b60405180910390f35b5f8160ff61006b919061012c565b9050919050565b5f80fd5b5f60ff82169050919050565b61008b81610076565b8114610095575f80fd5b50565b5f813590506100a681610082565b92915050565b5f602082840312156100c1576100c0610072565b5b5f6100ce84828501610098565b91505092915050565b6100e081610076565b82525050565b5f6020820190506100f95f8301846100d7565b92915050565b7f4e487b71000000000000000000000000000000000000000000000000000000005f52601160045260245ffd5b5f61013682610076565b915061014183610076565b9250828201905060ff81111561015a576101596100ff565b5b9291505056fea2646970667358221220254f542a676f9e579a521f38f4a86f4afb21da289c90378a2b57129e321d07f564736f6c63430008140033",
					"opcodes": "PUSH1 0x80 PUSH1 0x40 MSTORE CALLVALUE DUP1 ISZERO PUSH2 0xF JUMPI PUSH0 DUP1 REVERT JUMPDEST POP PUSH2 0x196 DUP1 PUSH2 0x1D PUSH0 CODECOPY PUSH0 RETURN INVALID PUSH1 0x80 PUSH1 0x40 MSTORE CALLVALUE DUP1 ISZERO PUSH2 0xF JUMPI PUSH0 DUP1 REVERT JUMPDEST POP PUSH1 0x4 CALLDATASIZE LT PUSH2 0x29 JUMPI PUSH0 CALLDATALOAD PUSH1 0xE0 SHR DUP1 PUSH4 0x2067E6A EQ PUSH2 0x2D JUMPI JUMPDEST PUSH0 DUP1 REVERT JUMPDEST PUSH2 0x47 PUSH1 0x4 DUP1 CALLDATASIZE SUB DUP2 ADD SWAP1 PUSH2 0x42 SWAP2 SWAP1 PUSH2 0xAC JUMP JUMPDEST PUSH2 0x5D JUMP JUMPDEST PUSH1 0x40 MLOAD PUSH2 0x54 SWAP2 SWAP1 PUSH2 0xE6 JUMP JUMPDEST PUSH1 0x40 MLOAD DUP1 SWAP2 SUB SWAP1 RETURN JUMPDEST PUSH0 DUP2 PUSH1 0xFF PUSH2 0x6B SWAP2 SWAP1 PUSH2 0x12C JUMP JUMPDEST SWAP1 POP SWAP2 SWAP1 POP JUMP JUMPDEST PUSH0 DUP1 REVERT JUMPDEST PUSH0 PUSH1 0xFF DUP3 AND SWAP1 POP SWAP2 SWAP1 POP JUMP JUMPDEST PUSH2 0x8B DUP2 PUSH2 0x76 JUMP JUMPDEST DUP2 EQ PUSH2 0x95 JUMPI PUSH0 DUP1 REVERT JUMPDEST POP JUMP JUMPDEST PUSH0 DUP2 CALLDATALOAD SWAP1 POP PUSH2 0xA6 DUP2 PUSH2 0x82 JUMP JUMPDEST SWAP3 SWAP2 POP POP JUMP JUMPDEST PUSH0 PUSH1 0x20 DUP3 DUP5 SUB SLT ISZERO PUSH2 0xC1 JUMPI PUSH2 0xC0 PUSH2 0x72 JUMP JUMPDEST JUMPDEST PUSH0 PUSH2 0xCE DUP5 DUP3 DUP6 ADD PUSH2 0x98 JUMP JUMPDEST SWAP2 POP POP SWAP3 SWAP2 POP POP JUMP JUMPDEST PUSH2 0xE0 DUP2 PUSH2 0x76 JUMP JUMPDEST DUP3 MSTORE POP POP JUMP JUMPDEST PUSH0 PUSH1 0x20 DUP3 ADD SWAP1 POP PUSH2 0xF9 PUSH0 DUP4 ADD DUP5 PUSH2 0xD7 JUMP JUMPDEST SWAP3 SWAP2 POP POP JUMP JUMPDEST PUSH32 0x4E487B7100000000000000000000000000000000000000000000000000000000 PUSH0 MSTORE PUSH1 0x11 PUSH1 0x4 MSTORE PUSH1 0x24 PUSH0 REVERT JUMPDEST PUSH0 PUSH2 0x136 DUP3 PUSH2 0x76 JUMP JUMPDEST SWAP2 POP PUSH2 0x141 DUP4 PUSH2 0x76 JUMP JUMPDEST SWAP3 POP DUP3 DUP3 ADD SWAP1 POP PUSH1 0xFF DUP2 GT ISZERO PUSH2 0x15A JUMPI PUSH2 0x159 PUSH2 0xFF JUMP JUMPDEST JUMPDEST SWAP3 SWAP2 POP POP JUMP INVALID LOG2 PUSH5 0x6970667358 0x22 SLT KECCAK256 0x25 0x4F SLOAD 0x2A PUSH8 0x6F9E579A521F38F4 0xA8 PUSH16 0x4AFB21DA289C90378A2B57129E321D07 CREATE2 PUSH5 0x736F6C6343 STOP ADDMOD EQ STOP CALLER "
				},
				"gasEstimates": {
					"creation": {
						"codeDepositCost": "81200",
						"executionCost": "127",
						"totalCost": "81327"
					},
					"external": {
						"add(uint8)": "infinite"
					}
				},
				"methodIdentifiers": {
					"add(uint8)": "02067e6a"
				}
			},
			"storageLayout": {
				"storage": [],
				"types": null
			},
			"userdoc": {
				"kind": "user",
				"methods": {},
				"version": 1
			}
		}
	}
}