{
	"data": {
		"bytecode": {
			"linkReferences": {},
			"object": "608060405234801561000f575f80fd5b5061045e8061001d5f395ff3fe608060405234801561000f575f80fd5b5060043610610086575f3560e01c8063671535b511610059578063671535b5146100c65780636df52244146100d05780638a7af3b7146100da578063d4247b0f146100e457610086565b8063034368ff1461008a5780631c9c433b14610094578063306dc315146100b25780634755941b146100bc575b5f80fd5b6100926100ee565b005b61009c610129565b6040516100a99190610373565b60405180910390f35b6100ba610162565b005b6100c461019d565b005b6100ce610218565b005b6100d861025a565b005b6100e261029e565b005b6100ec6102d9565b005b6040517f08c379a0000000000000000000000000000000000000000000000000000000008152600401610120906103dd565b60405180910390fd5b6040518060400160405280601381526020017f5468697320697320696d706f737369626c65210000000000000000000000000081525081565b60011561019b576040517f82b4290000000000000000000000000000000000000000000000000000000000815260040160405180910390fd5b565b600115610216576040518060400160405280601381526020017f5468697320697320696d706f737369626c6521000000000000000000000000008152506040517fb98c011300000000000000000000000000000000000000000000000000000000815260040161020d9190610373565b60405180910390fd5b565b5f610258576040517f08c379a000000000000000000000000000000000000000000000000000000000815260040161024f906103dd565b60405180910390fd5b565b60011561029c576040517fb98c0113000000000000000000000000000000000000000000000000000000008152600401610293906103dd565b60405180910390fd5b565b6001156102d7576040517f0f6c6bbb00000000000000000000000000000000000000000000000000000000815260040160405180910390fd5b565b5f6102e7576102e66103fb565b5b565b5f81519050919050565b5f82825260208201905092915050565b5f5b83811015610320578082015181840152602081019050610305565b5f8484015250505050565b5f601f19601f8301169050919050565b5f610345826102e9565b61034f81856102f3565b935061035f818560208601610303565b6103688161032b565b840191505092915050565b5f6020820190508181035f83015261038b818461033b565b905092915050565b7f5468697320697320696d706f737369626c6521000000000000000000000000005f82015250565b5f6103c76013836102f3565b91506103d282610393565b602082019050919050565b5f6020820190508181035f8301526103f4816103bb565b9050919050565b7f4e487b71000000000000000000000000000000000000000000000000000000005f52600160045260245ffdfea26469706673582212208a6d292ba2af58067b363f22647194a70a3cba3d1bbfdbebd4d1d02e4fcfecce64736f6c63430008160033",
			"opcodes": "PUSH1 0x80 PUSH1 0x40 MSTORE CALLVALUE DUP1 ISZERO PUSH2 0xF JUMPI PUSH0 DUP1 REVERT JUMPDEST POP PUSH2 0x45E DUP1 PUSH2 0x1D PUSH0 CODECOPY PUSH0 RETURN INVALID PUSH1 0x80 PUSH1 0x40 MSTORE CALLVALUE DUP1 ISZERO PUSH2 0xF JUMPI PUSH0 DUP1 REVERT JUMPDEST POP PUSH1 0x4 CALLDATASIZE LT PUSH2 0x86 JUMPI PUSH0 CALLDATALOAD PUSH1 0xE0 SHR DUP1 PUSH4 0x671535B5 GT PUSH2 0x59 JUMPI DUP1 PUSH4 0x671535B5 EQ PUSH2 0xC6 JUMPI DUP1 PUSH4 0x6DF52244 EQ PUSH2 0xD0 JUMPI DUP1 PUSH4 0x8A7AF3B7 EQ PUSH2 0xDA JUMPI DUP1 PUSH4 0xD4247B0F EQ PUSH2 0xE4 JUMPI PUSH2 0x86 JUMP JUMPDEST DUP1 PUSH4 0x34368FF EQ PUSH2 0x8A JUMPI DUP1 PUSH4 0x1C9C433B EQ PUSH2 0x94 JUMPI DUP1 PUSH4 0x306DC315 EQ PUSH2 0xB2 JUMPI DUP1 PUSH4 0x4755941B EQ PUSH2 0xBC JUMPI JUMPDEST PUSH0 DUP1 REVERT JUMPDEST PUSH2 0x92 PUSH2 0xEE JUMP JUMPDEST STOP JUMPDEST PUSH2 0x9C PUSH2 0x129 JUMP JUMPDEST PUSH1 0x40 MLOAD PUSH2 0xA9 SWAP2 SWAP1 PUSH2 0x373 JUMP JUMPDEST PUSH1 0x40 MLOAD DUP1 SWAP2 SUB SWAP1 RETURN JUMPDEST PUSH2 0xBA PUSH2 0x162 JUMP JUMPDEST STOP JUMPDEST PUSH2 0xC4 PUSH2 0x19D JUMP JUMPDEST STOP JUMPDEST PUSH2 0xCE PUSH2 0x218 JUMP JUMPDEST STOP JUMPDEST PUSH2 0xD8 PUSH2 0x25A JUMP JUMPDEST STOP JUMPDEST PUSH2 0xE2 PUSH2 0x29E JUMP JUMPDEST STOP JUMPDEST PUSH2 0xEC PUSH2 0x2D9 JUMP JUMPDEST STOP JUMPDEST PUSH1 0x40 MLOAD PUSH32 0x8C379A000000000000000000000000000000000000000000000000000000000 DUP2 MSTORE PUSH1 0x4 ADD PUSH2 0x120 SWAP1 PUSH2 0x3DD JUMP JUMPDEST PUSH1 0x40 MLOAD DUP1 SWAP2 SUB SWAP1 REVERT JUMPDEST PUSH1 0x40 MLOAD DUP1 PUSH1 0x40 ADD PUSH1 0x40 MSTORE DUP1 PUSH1 0x13 DUP2 MSTORE PUSH1 0x20 ADD PUSH32 0x5468697320697320696D706F737369626C652100000000000000000000000000 DUP2 MSTORE POP DUP2 JUMP JUMPDEST PUSH1 0x1 ISZERO PUSH2 0x19B JUMPI PUSH1 0x40 MLOAD PUSH32 0x82B4290000000000000000000000000000000000000000000000000000000000 DUP2 MSTORE PUSH1 0x4 ADD PUSH1 0x40 MLOAD DUP1 SWAP2 SUB SWAP1 REVERT JUMPDEST JUMP JUMPDEST PUSH1 0x1 ISZERO PUSH2 0x216 JUMPI PUSH1 0x40 MLOAD DUP1 PUSH1 0x40 ADD PUSH1 0x40 MSTORE DUP1 PUSH1 0x13 DUP2 MSTORE PUSH1 0x20 ADD PUSH32 0x5468697320697320696D706F737369626C652100000000000000000000000000 DUP2 MSTORE POP PUSH1 0x40 MLOAD PUSH32 0xB98C011300000000000000000000000000000000000000000000000000000000 DUP2 MSTORE PUSH1 0x4 ADD PUSH2 0x20D SWAP2 SWAP1 PUSH2 0x373 JUMP JUMPDEST PUSH1 0x40 MLOAD DUP1 SWAP2 SUB SWAP1 REVERT JUMPDEST JUMP JUMPDEST PUSH0 PUSH2 0x258 JUMPI PUSH1 0x40 MLOAD PUSH32 0x8C379A000000000000000000000000000000000000000000000000000000000 DUP2 MSTORE PUSH1 0x4 ADD PUSH2 0x24F SWAP1 PUSH2 0x3DD JUMP JUMPDEST PUSH1 0x40 MLOAD DUP1 SWAP2 SUB SWAP1 REVERT JUMPDEST JUMP JUMPDEST PUSH1 0x1 ISZERO PUSH2 0x29C JUMPI PUSH1 0x40 MLOAD PUSH32 0xB98C011300000000000000000000000000000000000000000000000000000000 DUP2 MSTORE PUSH1 0x4 ADD PUSH2 0x293 SWAP1 PUSH2 0x3DD JUMP JUMPDEST PUSH1 0x40 MLOAD DUP1 SWAP2 SUB SWAP1 REVERT JUMPDEST JUMP JUMPDEST PUSH1 0x1 ISZERO PUSH2 0x2D7 JUMPI PUSH1 0x40 MLOAD PUSH32 0xF6C6BBB00000000000000000000000000000000000000000000000000000000 DUP2 MSTORE PUSH1 0x4 ADD PUSH1 0x40 MLOAD DUP1 SWAP2 SUB SWAP1 REVERT JUMPDEST JUMP JUMPDEST PUSH0 PUSH2 0x2E7 JUMPI PUSH2 0x2E6 PUSH2 0x3FB JUMP JUMPDEST JUMPDEST JUMP JUMPDEST PUSH0 DUP2 MLOAD SWAP1 POP SWAP2 SWAP1 POP JUMP JUMPDEST PUSH0 DUP3 DUP3 MSTORE PUSH1 0x20 DUP3 ADD SWAP1 POP SWAP3 SWAP2 POP POP JUMP JUMPDEST PUSH0 JUMPDEST DUP4 DUP2 LT ISZERO PUSH2 0x320 JUMPI DUP1 DUP3 ADD MLOAD DUP2 DUP5 ADD MSTORE PUSH1 0x20 DUP2 ADD SWAP1 POP PUSH2 0x305 JUMP JUMPDEST PUSH0 DUP5 DUP5 ADD MSTORE POP POP POP POP JUMP JUMPDEST PUSH0 PUSH1 0x1F NOT PUSH1 0x1F DUP4 ADD AND SWAP1 POP SWAP2 SWAP1 POP JUMP JUMPDEST PUSH0 PUSH2 0x345 DUP3 PUSH2 0x2E9 JUMP JUMPDEST PUSH2 0x34F DUP2 DUP6 PUSH2 0x2F3 JUMP JUMPDEST SWAP4 POP PUSH2 0x35F DUP2 DUP6 PUSH1 0x20 DUP7 ADD PUSH2 0x303 JUMP JUMPDEST PUSH2 0x368 DUP2 PUSH2 0x32B JUMP JUMPDEST DUP5 ADD SWAP2 POP POP SWAP3 SWAP2 POP POP JUMP JUMPDEST PUSH0 PUSH1 0x20 DUP3 ADD SWAP1 POP DUP2 DUP2 SUB PUSH0 DUP4 ADD MSTORE PUSH2 0x38B DUP2 DUP5 PUSH2 0x33B JUMP JUMPDEST SWAP1 POP SWAP3 SWAP2 POP POP JUMP JUMPDEST PUSH32 0x5468697320697320696D706F737369626C652100000000000000000000000000 PUSH0 DUP3 ADD MSTORE POP JUMP JUMPDEST PUSH0 PUSH2 0x3C7 PUSH1 0x13 DUP4 PUSH2 0x2F3 JUMP JUMPDEST SWAP2 POP PUSH2 0x3D2 DUP3 PUSH2 0x393 JUMP JUMPDEST PUSH1 0x20 DUP3 ADD SWAP1 POP SWAP2 SWAP1 POP JUMP JUMPDEST PUSH0 PUSH1 0x20 DUP3 ADD SWAP1 POP DUP2 DUP2 SUB PUSH0 DUP4 ADD MSTORE PUSH2 0x3F4 DUP2 PUSH2 0x3BB JUMP JUMPDEST SWAP1 POP SWAP2 SWAP1 POP JUMP JUMPDEST PUSH32 0x4E487B7100000000000000000000000000000000000000000000000000000000 PUSH0 MSTORE PUSH1 0x1 PUSH1 0x4 MSTORE PUSH1 0x24 PUSH0 REVERT INVALID LOG2 PUSH5 0x6970667358 0x22 SLT KECCAK256 DUP11 PUSH14 0x292BA2AF58067B363F22647194A7 EXP EXTCODECOPY 0xBA RETURNDATASIZE SHL 0xBF 0xDB 0xEB 0xD4 0xD1 0xD0 0x2E 0x4F 0xCF 0xEC 0xCE PUSH5 0x736F6C6343 STOP ADDMOD AND STOP CALLER "
		},
		"gasEstimates": {
			"creation": {
				"codeDepositCost": "223600",
				"executionCost": "261",
				"totalCost": "223861"
			},
			"external": {
				"ERROR()": "infinite",
				"Impossible1()": "429",
				"Impossible2()": "443",
				"Impossible3()": "243",
				"Impossible4()": "242",
				"Impossible5()": "469",
				"Impossible6()": "infinite",
				"Impossible7()": "252"
			}
		},
		"methodIdentifiers": {
			"ERROR()": "1c9c433b",
			"Impossible1()": "034368ff",
			"Impossible2()": "671535b5",
			"Impossible3()": "306dc315",
			"Impossible4()": "8a7af3b7",
			"Impossible5()": "6df52244",
			"Impossible6()": "4755941b",
			"Impossible7()": "d4247b0f"
		}
	},
	"abi": [
		{
			"inputs": [
				{
					"internalType": "string",
					"name": "message",
					"type": "string"
				}
			],
			"name": "MyCustomError",
			"type": "error"
		},
		{
			"inputs": [],
			"name": "Unauthorized",
			"type": "error"
		},
		{
			"inputs": [],
			"name": "UnauthorizedWithAVeryLongCustomErrorToSeeThePricePerGas",
			"type": "error"
		},
		{
			"inputs": [],
			"name": "ERROR",
			"outputs": [
				{
					"internalType": "string",
					"name": "",
					"type": "string"
				}
			],
			"stateMutability": "view",
			"type": "function"
		},
		{
			"inputs": [],
			"name": "Impossible1",
			"outputs": [],
			"stateMutability": "pure",
			"type": "function"
		},
		{
			"inputs": [],
			"name": "Impossible2",
			"outputs": [],
			"stateMutability": "pure",
			"type": "function"
		},
		{
			"inputs": [],
			"name": "Impossible3",
			"outputs": [],
			"stateMutability": "pure",
			"type": "function"
		},
		{
			"inputs": [],
			"name": "Impossible4",
			"outputs": [],
			"stateMutability": "pure",
			"type": "function"
		},
		{
			"inputs": [],
			"name": "Impossible5",
			"outputs": [],
			"stateMutability": "pure",
			"type": "function"
		},
		{
			"inputs": [],
			"name": "Impossible6",
			"outputs": [],
			"stateMutability": "pure",
			"type": "function"
		},
		{
			"inputs": [],
			"name": "Impossible7",
			"outputs": [],
			"stateMutability": "pure",
			"type": "function"
		}
	]
}