{
	"data": {
		"bytecode": {
			"linkReferences": {},
			"object": "608060405234801561000f575f80fd5b506103488061001d5f395ff3fe608060405260043610610033575f3560e01c80633ccfd60b1461003757806382d3895414610041578063b60d42881461007d575b5f80fd5b61003f610087565b005b34801561004c575f80fd5b50610067600480360381019061006291906101de565b6100cd565b6040516100749190610221565b60405180910390f35b6100856100e1565b005b3373ffffffffffffffffffffffffffffffffffffffff166108fc4790811502906040515f60405180830381858888f193505050501580156100ca573d5f803e3d5ffd5b50565b5f602052805f5260405f205f915090505481565b670de0b6b3a764000034101561012c576040517f08c379a000000000000000000000000000000000000000000000000000000000815260040161012390610294565b60405180910390fd5b345f803373ffffffffffffffffffffffffffffffffffffffff1673ffffffffffffffffffffffffffffffffffffffff1681526020019081526020015f205f82825461017791906102df565b92505081905550565b5f80fd5b5f73ffffffffffffffffffffffffffffffffffffffff82169050919050565b5f6101ad82610184565b9050919050565b6101bd816101a3565b81146101c7575f80fd5b50565b5f813590506101d8816101b4565b92915050565b5f602082840312156101f3576101f2610180565b5b5f610200848285016101ca565b91505092915050565b5f819050919050565b61021b81610209565b82525050565b5f6020820190506102345f830184610212565b92915050565b5f82825260208201905092915050565b7f4e6f7420656e6f756768206d6f6e6579207061696421000000000000000000005f82015250565b5f61027e60168361023a565b91506102898261024a565b602082019050919050565b5f6020820190508181035f8301526102ab81610272565b9050919050565b7f4e487b71000000000000000000000000000000000000000000000000000000005f52601160045260245ffd5b5f6102e982610209565b91506102f483610209565b925082820190508082111561030c5761030b6102b2565b5b9291505056fea26469706673582212201dc98670ae3c0c132fac8b82a21754306dd2dc294ace84d8570ac7ea050f937b64736f6c63430008140033",
			"opcodes": "PUSH1 0x80 PUSH1 0x40 MSTORE CALLVALUE DUP1 ISZERO PUSH2 0xF JUMPI PUSH0 DUP1 REVERT JUMPDEST POP PUSH2 0x348 DUP1 PUSH2 0x1D PUSH0 CODECOPY PUSH0 RETURN INVALID PUSH1 0x80 PUSH1 0x40 MSTORE PUSH1 0x4 CALLDATASIZE LT PUSH2 0x33 JUMPI PUSH0 CALLDATALOAD PUSH1 0xE0 SHR DUP1 PUSH4 0x3CCFD60B EQ PUSH2 0x37 JUMPI DUP1 PUSH4 0x82D38954 EQ PUSH2 0x41 JUMPI DUP1 PUSH4 0xB60D4288 EQ PUSH2 0x7D JUMPI JUMPDEST PUSH0 DUP1 REVERT JUMPDEST PUSH2 0x3F PUSH2 0x87 JUMP JUMPDEST STOP JUMPDEST CALLVALUE DUP1 ISZERO PUSH2 0x4C JUMPI PUSH0 DUP1 REVERT JUMPDEST POP PUSH2 0x67 PUSH1 0x4 DUP1 CALLDATASIZE SUB DUP2 ADD SWAP1 PUSH2 0x62 SWAP2 SWAP1 PUSH2 0x1DE JUMP JUMPDEST PUSH2 0xCD JUMP JUMPDEST PUSH1 0x40 MLOAD PUSH2 0x74 SWAP2 SWAP1 PUSH2 0x221 JUMP JUMPDEST PUSH1 0x40 MLOAD DUP1 SWAP2 SUB SWAP1 RETURN JUMPDEST PUSH2 0x85 PUSH2 0xE1 JUMP JUMPDEST STOP JUMPDEST CALLER PUSH20 0xFFFFFFFFFFFFFFFFFFFFFFFFFFFFFFFFFFFFFFFF AND PUSH2 0x8FC SELFBALANCE SWAP1 DUP2 ISZERO MUL SWAP1 PUSH1 0x40 MLOAD PUSH0 PUSH1 0x40 MLOAD DUP1 DUP4 SUB DUP2 DUP6 DUP9 DUP9 CALL SWAP4 POP POP POP POP ISZERO DUP1 ISZERO PUSH2 0xCA JUMPI RETURNDATASIZE PUSH0 DUP1 RETURNDATACOPY RETURNDATASIZE PUSH0 REVERT JUMPDEST POP JUMP JUMPDEST PUSH0 PUSH1 0x20 MSTORE DUP1 PUSH0 MSTORE PUSH1 0x40 PUSH0 KECCAK256 PUSH0 SWAP2 POP SWAP1 POP SLOAD DUP2 JUMP JUMPDEST PUSH8 0xDE0B6B3A7640000 CALLVALUE LT ISZERO PUSH2 0x12C JUMPI PUSH1 0x40 MLOAD PUSH32 0x8C379A000000000000000000000000000000000000000000000000000000000 DUP2 MSTORE PUSH1 0x4 ADD PUSH2 0x123 SWAP1 PUSH2 0x294 JUMP JUMPDEST PUSH1 0x40 MLOAD DUP1 SWAP2 SUB SWAP1 REVERT JUMPDEST CALLVALUE PUSH0 DUP1 CALLER PUSH20 0xFFFFFFFFFFFFFFFFFFFFFFFFFFFFFFFFFFFFFFFF AND PUSH20 0xFFFFFFFFFFFFFFFFFFFFFFFFFFFFFFFFFFFFFFFF AND DUP2 MSTORE PUSH1 0x20 ADD SWAP1 DUP2 MSTORE PUSH1 0x20 ADD PUSH0 KECCAK256 PUSH0 DUP3 DUP3 SLOAD PUSH2 0x177 SWAP2 SWAP1 PUSH2 0x2DF JUMP JUMPDEST SWAP3 POP POP DUP2 SWAP1 SSTORE POP JUMP JUMPDEST PUSH0 DUP1 REVERT JUMPDEST PUSH0 PUSH20 0xFFFFFFFFFFFFFFFFFFFFFFFFFFFFFFFFFFFFFFFF DUP3 AND SWAP1 POP SWAP2 SWAP1 POP JUMP JUMPDEST PUSH0 PUSH2 0x1AD DUP3 PUSH2 0x184 JUMP JUMPDEST SWAP1 POP SWAP2 SWAP1 POP JUMP JUMPDEST PUSH2 0x1BD DUP2 PUSH2 0x1A3 JUMP JUMPDEST DUP2 EQ PUSH2 0x1C7 JUMPI PUSH0 DUP1 REVERT JUMPDEST POP JUMP JUMPDEST PUSH0 DUP2 CALLDATALOAD SWAP1 POP PUSH2 0x1D8 DUP2 PUSH2 0x1B4 JUMP JUMPDEST SWAP3 SWAP2 POP POP JUMP JUMPDEST PUSH0 PUSH1 0x20 DUP3 DUP5 SUB SLT ISZERO PUSH2 0x1F3 JUMPI PUSH2 0x1F2 PUSH2 0x180 JUMP JUMPDEST JUMPDEST PUSH0 PUSH2 0x200 DUP5 DUP3 DUP6 ADD PUSH2 0x1CA JUMP JUMPDEST SWAP2 POP POP SWAP3 SWAP2 POP POP JUMP JUMPDEST PUSH0 DUP2 SWAP1 POP SWAP2 SWAP1 POP JUMP JUMPDEST PUSH2 0x21B DUP2 PUSH2 0x209 JUMP JUMPDEST DUP3 MSTORE POP POP JUMP JUMPDEST PUSH0 PUSH1 0x20 DUP3 ADD SWAP1 POP PUSH2 0x234 PUSH0 DUP4 ADD DUP5 PUSH2 0x212 JUMP JUMPDEST SWAP3 SWAP2 POP POP JUMP JUMPDEST PUSH0 DUP3 DUP3 MSTORE PUSH1 0x20 DUP3 ADD SWAP1 POP SWAP3 SWAP2 POP POP JUMP JUMPDEST PUSH32 0x4E6F7420656E6F756768206D6F6E657920706169642100000000000000000000 PUSH0 DUP3 ADD MSTORE POP JUMP JUMPDEST PUSH0 PUSH2 0x27E PUSH1 0x16 DUP4 PUSH2 0x23A JUMP JUMPDEST SWAP2 POP PUSH2 0x289 DUP3 PUSH2 0x24A JUMP JUMPDEST PUSH1 0x20 DUP3 ADD SWAP1 POP SWAP2 SWAP1 POP JUMP JUMPDEST PUSH0 PUSH1 0x20 DUP3 ADD SWAP1 POP DUP2 DUP2 SUB PUSH0 DUP4 ADD MSTORE PUSH2 0x2AB DUP2 PUSH2 0x272 JUMP JUMPDEST SWAP1 POP SWAP2 SWAP1 POP JUMP JUMPDEST PUSH32 0x4E487B7100000000000000000000000000000000000000000000000000000000 PUSH0 MSTORE PUSH1 0x11 PUSH1 0x4 MSTORE PUSH1 0x24 PUSH0 REVERT JUMPDEST PUSH0 PUSH2 0x2E9 DUP3 PUSH2 0x209 JUMP JUMPDEST SWAP2 POP PUSH2 0x2F4 DUP4 PUSH2 0x209 JUMP JUMPDEST SWAP3 POP DUP3 DUP3 ADD SWAP1 POP DUP1 DUP3 GT ISZERO PUSH2 0x30C JUMPI PUSH2 0x30B PUSH2 0x2B2 JUMP JUMPDEST JUMPDEST SWAP3 SWAP2 POP POP JUMP INVALID LOG2 PUSH5 0x6970667358 0x22 SLT KECCAK256 SAR 0xC9 DUP7 PUSH17 0xAE3C0C132FAC8B82A21754306DD2DC294A 0xCE DUP5 0xD8 JUMPI EXP 0xC7 0xEA SDIV 0xF SWAP4 PUSH28 0x64736F6C634300081400330000000000000000000000000000000000 "
		},
		"gasEstimates": {
			"creation": {
				"codeDepositCost": "168000",
				"executionCost": "212",
				"totalCost": "168212"
			},
			"external": {
				"addresses(address)": "2801",
				"fund()": "infinite",
				"withdraw()": "infinite"
			}
		},
		"methodIdentifiers": {
			"addresses(address)": "82d38954",
			"fund()": "b60d4288",
			"withdraw()": "3ccfd60b"
		}
	},
	"abi": [
		{
			"inputs": [
				{
					"internalType": "address",
					"name": "",
					"type": "address"
				}
			],
			"name": "addresses",
			"outputs": [
				{
					"internalType": "uint256",
					"name": "",
					"type": "uint256"
				}
			],
			"stateMutability": "view",
			"type": "function"
		},
		{
			"inputs": [],
			"name": "fund",
			"outputs": [],
			"stateMutability": "payable",
			"type": "function"
		},
		{
			"inputs": [],
			"name": "withdraw",
			"outputs": [],
			"stateMutability": "payable",
			"type": "function"
		}
	]
}