{
	"experiences/0005/Transaction.sol": {
		"Transaction": {
			"abi": [
				{
					"inputs": [],
					"stateMutability": "nonpayable",
					"type": "constructor"
				},
				{
					"inputs": [],
					"name": "fund",
					"outputs": [],
					"stateMutability": "payable",
					"type": "function"
				},
				{
					"inputs": [],
					"name": "getBalance",
					"outputs": [
						{
							"internalType": "uint256",
							"name": "",
							"type": "uint256"
						}
					],
					"stateMutability": "view",
					"type": "function"
				},
				{
					"inputs": [],
					"name": "owner",
					"outputs": [
						{
							"internalType": "address",
							"name": "",
							"type": "address"
						}
					],
					"stateMutability": "view",
					"type": "function"
				},
				{
					"inputs": [],
					"name": "withdraw",
					"outputs": [],
					"stateMutability": "payable",
					"type": "function"
				}
			],
			"devdoc": {
				"kind": "dev",
				"methods": {},
				"version": 1
			},
			"evm": {
				"assembly": "    /* \"experiences/0005/Transaction.sol\":60:548  contract Transaction {... */\n  mstore(0x40, 0x80)\n    /* \"experiences/0005/Transaction.sol\":117:168  constructor() {... */\n  callvalue\n  dup1\n  iszero\n  tag_1\n  jumpi\n  0x00\n  dup1\n  revert\ntag_1:\n  pop\n    /* \"experiences/0005/Transaction.sol\":150:160  msg.sender */\n  caller\n    /* \"experiences/0005/Transaction.sol\":142:147  owner */\n  0x00\n  dup1\n    /* \"experiences/0005/Transaction.sol\":142:160  owner = msg.sender */\n  0x0100\n  exp\n  dup2\n  sload\n  dup2\n  0xffffffffffffffffffffffffffffffffffffffff\n  mul\n  not\n  and\n  swap1\n  dup4\n  0xffffffffffffffffffffffffffffffffffffffff\n  and\n  mul\n  or\n  swap1\n  sstore\n  pop\n    /* \"experiences/0005/Transaction.sol\":60:548  contract Transaction {... */\n  dataSize(sub_0)\n  dup1\n  dataOffset(sub_0)\n  0x00\n  codecopy\n  0x00\n  return\nstop\n\nsub_0: assembly {\n        /* \"experiences/0005/Transaction.sol\":60:548  contract Transaction {... */\n      mstore(0x40, 0x80)\n      jumpi(tag_1, lt(calldatasize, 0x04))\n      shr(0xe0, calldataload(0x00))\n      dup1\n      0x12065fe0\n      eq\n      tag_2\n      jumpi\n      dup1\n      0x3ccfd60b\n      eq\n      tag_3\n      jumpi\n      dup1\n      0x8da5cb5b\n      eq\n      tag_4\n      jumpi\n      dup1\n      0xb60d4288\n      eq\n      tag_5\n      jumpi\n    tag_1:\n      0x00\n      dup1\n      revert\n        /* \"experiences/0005/Transaction.sol\":449:545  function getBalance() public view returns (uint) {... */\n    tag_2:\n      callvalue\n      dup1\n      iszero\n      tag_6\n      jumpi\n      0x00\n      dup1\n      revert\n    tag_6:\n      pop\n      tag_7\n      tag_8\n      jump\t// in\n    tag_7:\n      mload(0x40)\n      tag_9\n      swap2\n      swap1\n      tag_10\n      jump\t// in\n    tag_9:\n      mload(0x40)\n      dup1\n      swap2\n      sub\n      swap1\n      return\n        /* \"experiences/0005/Transaction.sol\":341:441  function withdraw() public payable {... */\n    tag_3:\n      tag_11\n      tag_12\n      jump\t// in\n    tag_11:\n      stop\n        /* \"experiences/0005/Transaction.sol\":88:108  address public owner */\n    tag_4:\n      callvalue\n      dup1\n      iszero\n      tag_13\n      jumpi\n      0x00\n      dup1\n      revert\n    tag_13:\n      pop\n      tag_14\n      tag_15\n      jump\t// in\n    tag_14:\n      mload(0x40)\n      tag_16\n      swap2\n      swap1\n      tag_17\n      jump\t// in\n    tag_16:\n      mload(0x40)\n      dup1\n      swap2\n      sub\n      swap1\n      return\n        /* \"experiences/0005/Transaction.sol\":176:333  function fund() public payable {... */\n    tag_5:\n      tag_18\n      tag_19\n      jump\t// in\n    tag_18:\n      stop\n        /* \"experiences/0005/Transaction.sol\":449:545  function getBalance() public view returns (uint) {... */\n    tag_8:\n        /* \"experiences/0005/Transaction.sol\":492:496  uint */\n      0x00\n        /* \"experiences/0005/Transaction.sol\":516:537  address(this).balance */\n      selfbalance\n        /* \"experiences/0005/Transaction.sol\":509:537  return address(this).balance */\n      swap1\n      pop\n        /* \"experiences/0005/Transaction.sol\":449:545  function getBalance() public view returns (uint) {... */\n      swap1\n      jump\t// out\n        /* \"experiences/0005/Transaction.sol\":341:441  function withdraw() public payable {... */\n    tag_12:\n        /* \"experiences/0005/Transaction.sol\":395:400  owner */\n      0x00\n      dup1\n      sload\n      swap1\n      0x0100\n      exp\n      swap1\n      div\n      0xffffffffffffffffffffffffffffffffffffffff\n      and\n        /* \"experiences/0005/Transaction.sol\":387:410  payable(owner).transfer */\n      0xffffffffffffffffffffffffffffffffffffffff\n      and\n        /* \"experiences/0005/Transaction.sol\":387:433  payable(owner).transfer(address(this).balance) */\n      0x08fc\n        /* \"experiences/0005/Transaction.sol\":411:432  address(this).balance */\n      selfbalance\n        /* \"experiences/0005/Transaction.sol\":387:433  payable(owner).transfer(address(this).balance) */\n      swap1\n      dup2\n      iszero\n      mul\n      swap1\n      mload(0x40)\n      0x00\n      mload(0x40)\n      dup1\n      dup4\n      sub\n      dup2\n      dup6\n      dup9\n      dup9\n      call\n      swap4\n      pop\n      pop\n      pop\n      pop\n      iszero\n      dup1\n      iszero\n      tag_23\n      jumpi\n      returndatasize\n      0x00\n      dup1\n      returndatacopy\n      revert(0x00, returndatasize)\n    tag_23:\n      pop\n        /* \"experiences/0005/Transaction.sol\":341:441  function withdraw() public payable {... */\n      jump\t// out\n        /* \"experiences/0005/Transaction.sol\":88:108  address public owner */\n    tag_15:\n      0x00\n      dup1\n      sload\n      swap1\n      0x0100\n      exp\n      swap1\n      div\n      0xffffffffffffffffffffffffffffffffffffffff\n      and\n      dup2\n      jump\t// out\n        /* \"experiences/0005/Transaction.sol\":176:333  function fund() public payable {... */\n    tag_19:\n        /* \"experiences/0005/Transaction.sol\":239:242  100 */\n      0x64\n        /* \"experiences/0005/Transaction.sol\":226:235  msg.value */\n      callvalue\n        /* \"experiences/0005/Transaction.sol\":226:242  msg.value >= 100 */\n      lt\n      iszero\n        /* \"experiences/0005/Transaction.sol\":218:269  require(msg.value >= 100, \"Not enough money paid!\") */\n      tag_25\n      jumpi\n      mload(0x40)\n      0x08c379a000000000000000000000000000000000000000000000000000000000\n      dup2\n      mstore\n      0x04\n      add\n      tag_26\n      swap1\n      tag_27\n      jump\t// in\n    tag_26:\n      mload(0x40)\n      dup1\n      swap2\n      sub\n      swap1\n      revert\n    tag_25:\n        /* \"experiences/0005/Transaction.sol\":176:333  function fund() public payable {... */\n      jump\t// out\n        /* \"#utility.yul\":7:84   */\n    tag_28:\n        /* \"#utility.yul\":44:51   */\n      0x00\n        /* \"#utility.yul\":73:78   */\n      dup2\n        /* \"#utility.yul\":62:78   */\n      swap1\n      pop\n        /* \"#utility.yul\":7:84   */\n      swap2\n      swap1\n      pop\n      jump\t// out\n        /* \"#utility.yul\":90:208   */\n    tag_29:\n        /* \"#utility.yul\":177:201   */\n      tag_39\n        /* \"#utility.yul\":195:200   */\n      dup2\n        /* \"#utility.yul\":177:201   */\n      tag_28\n      jump\t// in\n    tag_39:\n        /* \"#utility.yul\":172:175   */\n      dup3\n        /* \"#utility.yul\":165:202   */\n      mstore\n        /* \"#utility.yul\":90:208   */\n      pop\n      pop\n      jump\t// out\n        /* \"#utility.yul\":214:436   */\n    tag_10:\n        /* \"#utility.yul\":307:311   */\n      0x00\n        /* \"#utility.yul\":345:347   */\n      0x20\n        /* \"#utility.yul\":334:343   */\n      dup3\n        /* \"#utility.yul\":330:348   */\n      add\n        /* \"#utility.yul\":322:348   */\n      swap1\n      pop\n        /* \"#utility.yul\":358:429   */\n      tag_41\n        /* \"#utility.yul\":426:427   */\n      0x00\n        /* \"#utility.yul\":415:424   */\n      dup4\n        /* \"#utility.yul\":411:428   */\n      add\n        /* \"#utility.yul\":402:408   */\n      dup5\n        /* \"#utility.yul\":358:429   */\n      tag_29\n      jump\t// in\n    tag_41:\n        /* \"#utility.yul\":214:436   */\n      swap3\n      swap2\n      pop\n      pop\n      jump\t// out\n        /* \"#utility.yul\":442:568   */\n    tag_30:\n        /* \"#utility.yul\":479:486   */\n      0x00\n        /* \"#utility.yul\":519:561   */\n      0xffffffffffffffffffffffffffffffffffffffff\n        /* \"#utility.yul\":512:517   */\n      dup3\n        /* \"#utility.yul\":508:562   */\n      and\n        /* \"#utility.yul\":497:562   */\n      swap1\n      pop\n        /* \"#utility.yul\":442:568   */\n      swap2\n      swap1\n      pop\n      jump\t// out\n        /* \"#utility.yul\":574:670   */\n    tag_31:\n        /* \"#utility.yul\":611:618   */\n      0x00\n        /* \"#utility.yul\":640:664   */\n      tag_44\n        /* \"#utility.yul\":658:663   */\n      dup3\n        /* \"#utility.yul\":640:664   */\n      tag_30\n      jump\t// in\n    tag_44:\n        /* \"#utility.yul\":629:664   */\n      swap1\n      pop\n        /* \"#utility.yul\":574:670   */\n      swap2\n      swap1\n      pop\n      jump\t// out\n        /* \"#utility.yul\":676:794   */\n    tag_32:\n        /* \"#utility.yul\":763:787   */\n      tag_46\n        /* \"#utility.yul\":781:786   */\n      dup2\n        /* \"#utility.yul\":763:787   */\n      tag_31\n      jump\t// in\n    tag_46:\n        /* \"#utility.yul\":758:761   */\n      dup3\n        /* \"#utility.yul\":751:788   */\n      mstore\n        /* \"#utility.yul\":676:794   */\n      pop\n      pop\n      jump\t// out\n        /* \"#utility.yul\":800:1022   */\n    tag_17:\n        /* \"#utility.yul\":893:897   */\n      0x00\n        /* \"#utility.yul\":931:933   */\n      0x20\n        /* \"#utility.yul\":920:929   */\n      dup3\n        /* \"#utility.yul\":916:934   */\n      add\n        /* \"#utility.yul\":908:934   */\n      swap1\n      pop\n        /* \"#utility.yul\":944:1015   */\n      tag_48\n        /* \"#utility.yul\":1012:1013   */\n      0x00\n        /* \"#utility.yul\":1001:1010   */\n      dup4\n        /* \"#utility.yul\":997:1014   */\n      add\n        /* \"#utility.yul\":988:994   */\n      dup5\n        /* \"#utility.yul\":944:1015   */\n      tag_32\n      jump\t// in\n    tag_48:\n        /* \"#utility.yul\":800:1022   */\n      swap3\n      swap2\n      pop\n      pop\n      jump\t// out\n        /* \"#utility.yul\":1028:1197   */\n    tag_33:\n        /* \"#utility.yul\":1112:1123   */\n      0x00\n        /* \"#utility.yul\":1146:1152   */\n      dup3\n        /* \"#utility.yul\":1141:1144   */\n      dup3\n        /* \"#utility.yul\":1134:1153   */\n      mstore\n        /* \"#utility.yul\":1186:1190   */\n      0x20\n        /* \"#utility.yul\":1181:1184   */\n      dup3\n        /* \"#utility.yul\":1177:1191   */\n      add\n        /* \"#utility.yul\":1162:1191   */\n      swap1\n      pop\n        /* \"#utility.yul\":1028:1197   */\n      swap3\n      swap2\n      pop\n      pop\n      jump\t// out\n        /* \"#utility.yul\":1203:1375   */\n    tag_34:\n        /* \"#utility.yul\":1343:1367   */\n      0x4e6f7420656e6f756768206d6f6e657920706169642100000000000000000000\n        /* \"#utility.yul\":1339:1340   */\n      0x00\n        /* \"#utility.yul\":1331:1337   */\n      dup3\n        /* \"#utility.yul\":1327:1341   */\n      add\n        /* \"#utility.yul\":1320:1368   */\n      mstore\n        /* \"#utility.yul\":1203:1375   */\n      pop\n      jump\t// out\n        /* \"#utility.yul\":1381:1747   */\n    tag_35:\n        /* \"#utility.yul\":1523:1526   */\n      0x00\n        /* \"#utility.yul\":1544:1611   */\n      tag_52\n        /* \"#utility.yul\":1608:1610   */\n      0x16\n        /* \"#utility.yul\":1603:1606   */\n      dup4\n        /* \"#utility.yul\":1544:1611   */\n      tag_33\n      jump\t// in\n    tag_52:\n        /* \"#utility.yul\":1537:1611   */\n      swap2\n      pop\n        /* \"#utility.yul\":1620:1713   */\n      tag_53\n        /* \"#utility.yul\":1709:1712   */\n      dup3\n        /* \"#utility.yul\":1620:1713   */\n      tag_34\n      jump\t// in\n    tag_53:\n        /* \"#utility.yul\":1738:1740   */\n      0x20\n        /* \"#utility.yul\":1733:1736   */\n      dup3\n        /* \"#utility.yul\":1729:1741   */\n      add\n        /* \"#utility.yul\":1722:1741   */\n      swap1\n      pop\n        /* \"#utility.yul\":1381:1747   */\n      swap2\n      swap1\n      pop\n      jump\t// out\n        /* \"#utility.yul\":1753:2172   */\n    tag_27:\n        /* \"#utility.yul\":1919:1923   */\n      0x00\n        /* \"#utility.yul\":1957:1959   */\n      0x20\n        /* \"#utility.yul\":1946:1955   */\n      dup3\n        /* \"#utility.yul\":1942:1960   */\n      add\n        /* \"#utility.yul\":1934:1960   */\n      swap1\n      pop\n        /* \"#utility.yul\":2006:2015   */\n      dup2\n        /* \"#utility.yul\":2000:2004   */\n      dup2\n        /* \"#utility.yul\":1996:2016   */\n      sub\n        /* \"#utility.yul\":1992:1993   */\n      0x00\n        /* \"#utility.yul\":1981:1990   */\n      dup4\n        /* \"#utility.yul\":1977:1994   */\n      add\n        /* \"#utility.yul\":1970:2017   */\n      mstore\n        /* \"#utility.yul\":2034:2165   */\n      tag_55\n        /* \"#utility.yul\":2160:2164   */\n      dup2\n        /* \"#utility.yul\":2034:2165   */\n      tag_35\n      jump\t// in\n    tag_55:\n        /* \"#utility.yul\":2026:2165   */\n      swap1\n      pop\n        /* \"#utility.yul\":1753:2172   */\n      swap2\n      swap1\n      pop\n      jump\t// out\n\n    auxdata: 0xa2646970667358221220c486598fa74c53190c49d93f4ad4eb7c8f2b7ea78376e1bd5841a39c177bd3c564736f6c63430008140033\n}\n",
				"bytecode": {
					"linkReferences": {},
					"object": "608060405234801561000f575f80fd5b50335f806101000a81548173ffffffffffffffffffffffffffffffffffffffff021916908373ffffffffffffffffffffffffffffffffffffffff1602179055506102b68061005c5f395ff3fe60806040526004361061003e575f3560e01c806312065fe0146100425780633ccfd60b1461006c5780638da5cb5b14610076578063b60d4288146100a0575b5f80fd5b34801561004d575f80fd5b506100566100aa565b6040516100639190610197565b60405180910390f35b6100746100b1565b005b348015610081575f80fd5b5061008a610116565b60405161009791906101ef565b60405180910390f35b6100a8610139565b005b5f47905090565b5f8054906101000a900473ffffffffffffffffffffffffffffffffffffffff1673ffffffffffffffffffffffffffffffffffffffff166108fc4790811502906040515f60405180830381858888f19350505050158015610113573d5f803e3d5ffd5b50565b5f8054906101000a900473ffffffffffffffffffffffffffffffffffffffff1681565b606434101561017d576040517f08c379a000000000000000000000000000000000000000000000000000000000815260040161017490610262565b60405180910390fd5b565b5f819050919050565b6101918161017f565b82525050565b5f6020820190506101aa5f830184610188565b92915050565b5f73ffffffffffffffffffffffffffffffffffffffff82169050919050565b5f6101d9826101b0565b9050919050565b6101e9816101cf565b82525050565b5f6020820190506102025f8301846101e0565b92915050565b5f82825260208201905092915050565b7f4e6f7420656e6f756768206d6f6e6579207061696421000000000000000000005f82015250565b5f61024c601683610208565b915061025782610218565b602082019050919050565b5f6020820190508181035f83015261027981610240565b905091905056fea2646970667358221220c486598fa74c53190c49d93f4ad4eb7c8f2b7ea78376e1bd5841a39c177bd3c564736f6c63430008140033",
					"opcodes": "PUSH1 0x80 PUSH1 0x40 MSTORE CALLVALUE DUP1 ISZERO PUSH2 0xF JUMPI PUSH0 DUP1 REVERT JUMPDEST POP CALLER PUSH0 DUP1 PUSH2 0x100 EXP DUP2 SLOAD DUP2 PUSH20 0xFFFFFFFFFFFFFFFFFFFFFFFFFFFFFFFFFFFFFFFF MUL NOT AND SWAP1 DUP4 PUSH20 0xFFFFFFFFFFFFFFFFFFFFFFFFFFFFFFFFFFFFFFFF AND MUL OR SWAP1 SSTORE POP PUSH2 0x2B6 DUP1 PUSH2 0x5C PUSH0 CODECOPY PUSH0 RETURN INVALID PUSH1 0x80 PUSH1 0x40 MSTORE PUSH1 0x4 CALLDATASIZE LT PUSH2 0x3E JUMPI PUSH0 CALLDATALOAD PUSH1 0xE0 SHR DUP1 PUSH4 0x12065FE0 EQ PUSH2 0x42 JUMPI DUP1 PUSH4 0x3CCFD60B EQ PUSH2 0x6C JUMPI DUP1 PUSH4 0x8DA5CB5B EQ PUSH2 0x76 JUMPI DUP1 PUSH4 0xB60D4288 EQ PUSH2 0xA0 JUMPI JUMPDEST PUSH0 DUP1 REVERT JUMPDEST CALLVALUE DUP1 ISZERO PUSH2 0x4D JUMPI PUSH0 DUP1 REVERT JUMPDEST POP PUSH2 0x56 PUSH2 0xAA JUMP JUMPDEST PUSH1 0x40 MLOAD PUSH2 0x63 SWAP2 SWAP1 PUSH2 0x197 JUMP JUMPDEST PUSH1 0x40 MLOAD DUP1 SWAP2 SUB SWAP1 RETURN JUMPDEST PUSH2 0x74 PUSH2 0xB1 JUMP JUMPDEST STOP JUMPDEST CALLVALUE DUP1 ISZERO PUSH2 0x81 JUMPI PUSH0 DUP1 REVERT JUMPDEST POP PUSH2 0x8A PUSH2 0x116 JUMP JUMPDEST PUSH1 0x40 MLOAD PUSH2 0x97 SWAP2 SWAP1 PUSH2 0x1EF JUMP JUMPDEST PUSH1 0x40 MLOAD DUP1 SWAP2 SUB SWAP1 RETURN JUMPDEST PUSH2 0xA8 PUSH2 0x139 JUMP JUMPDEST STOP JUMPDEST PUSH0 SELFBALANCE SWAP1 POP SWAP1 JUMP JUMPDEST PUSH0 DUP1 SLOAD SWAP1 PUSH2 0x100 EXP SWAP1 DIV PUSH20 0xFFFFFFFFFFFFFFFFFFFFFFFFFFFFFFFFFFFFFFFF AND PUSH20 0xFFFFFFFFFFFFFFFFFFFFFFFFFFFFFFFFFFFFFFFF AND PUSH2 0x8FC SELFBALANCE SWAP1 DUP2 ISZERO MUL SWAP1 PUSH1 0x40 MLOAD PUSH0 PUSH1 0x40 MLOAD DUP1 DUP4 SUB DUP2 DUP6 DUP9 DUP9 CALL SWAP4 POP POP POP POP ISZERO DUP1 ISZERO PUSH2 0x113 JUMPI RETURNDATASIZE PUSH0 DUP1 RETURNDATACOPY RETURNDATASIZE PUSH0 REVERT JUMPDEST POP JUMP JUMPDEST PUSH0 DUP1 SLOAD SWAP1 PUSH2 0x100 EXP SWAP1 DIV PUSH20 0xFFFFFFFFFFFFFFFFFFFFFFFFFFFFFFFFFFFFFFFF AND DUP2 JUMP JUMPDEST PUSH1 0x64 CALLVALUE LT ISZERO PUSH2 0x17D JUMPI PUSH1 0x40 MLOAD PUSH32 0x8C379A000000000000000000000000000000000000000000000000000000000 DUP2 MSTORE PUSH1 0x4 ADD PUSH2 0x174 SWAP1 PUSH2 0x262 JUMP JUMPDEST PUSH1 0x40 MLOAD DUP1 SWAP2 SUB SWAP1 REVERT JUMPDEST JUMP JUMPDEST PUSH0 DUP2 SWAP1 POP SWAP2 SWAP1 POP JUMP JUMPDEST PUSH2 0x191 DUP2 PUSH2 0x17F JUMP JUMPDEST DUP3 MSTORE POP POP JUMP JUMPDEST PUSH0 PUSH1 0x20 DUP3 ADD SWAP1 POP PUSH2 0x1AA PUSH0 DUP4 ADD DUP5 PUSH2 0x188 JUMP JUMPDEST SWAP3 SWAP2 POP POP JUMP JUMPDEST PUSH0 PUSH20 0xFFFFFFFFFFFFFFFFFFFFFFFFFFFFFFFFFFFFFFFF DUP3 AND SWAP1 POP SWAP2 SWAP1 POP JUMP JUMPDEST PUSH0 PUSH2 0x1D9 DUP3 PUSH2 0x1B0 JUMP JUMPDEST SWAP1 POP SWAP2 SWAP1 POP JUMP JUMPDEST PUSH2 0x1E9 DUP2 PUSH2 0x1CF JUMP JUMPDEST DUP3 MSTORE POP POP JUMP JUMPDEST PUSH0 PUSH1 0x20 DUP3 ADD SWAP1 POP PUSH2 0x202 PUSH0 DUP4 ADD DUP5 PUSH2 0x1E0 JUMP JUMPDEST SWAP3 SWAP2 POP POP JUMP JUMPDEST PUSH0 DUP3 DUP3 MSTORE PUSH1 0x20 DUP3 ADD SWAP1 POP SWAP3 SWAP2 POP POP JUMP JUMPDEST PUSH32 0x4E6F7420656E6F756768206D6F6E657920706169642100000000000000000000 PUSH0 DUP3 ADD MSTORE POP JUMP JUMPDEST PUSH0 PUSH2 0x24C PUSH1 0x16 DUP4 PUSH2 0x208 JUMP JUMPDEST SWAP2 POP PUSH2 0x257 DUP3 PUSH2 0x218 JUMP JUMPDEST PUSH1 0x20 DUP3 ADD SWAP1 POP SWAP2 SWAP1 POP JUMP JUMPDEST PUSH0 PUSH1 0x20 DUP3 ADD SWAP1 POP DUP2 DUP2 SUB PUSH0 DUP4 ADD MSTORE PUSH2 0x279 DUP2 PUSH2 0x240 JUMP JUMPDEST SWAP1 POP SWAP2 SWAP1 POP JUMP INVALID LOG2 PUSH5 0x6970667358 0x22 SLT KECCAK256 0xC4 DUP7 MSIZE DUP16 0xA7 0x4C MSTORE8 NOT 0xC 0x49 0xD9 EXTCODEHASH 0x4A 0xD4 0xEB PUSH29 0x8F2B7EA78376E1BD5841A39C177BD3C564736F6C634300081400330000 "
				},
				"gasEstimates": {
					"creation": {
						"codeDepositCost": "138800",
						"executionCost": "24446",
						"totalCost": "163246"
					},
					"external": {
						"fund()": "472",
						"getBalance()": "312",
						"owner()": "2527",
						"withdraw()": "infinite"
					}
				},
				"methodIdentifiers": {
					"fund()": "b60d4288",
					"getBalance()": "12065fe0",
					"owner()": "8da5cb5b",
					"withdraw()": "3ccfd60b"
				}
			},
			"storageLayout": {
				"storage": [
					{
						"astId": 3,
						"contract": "experiences/0005/Transaction.sol:Transaction",
						"label": "owner",
						"offset": 0,
						"slot": "0",
						"type": "t_address"
					}
				],
				"types": {
					"t_address": {
						"encoding": "inplace",
						"label": "address",
						"numberOfBytes": "20"
					}
				}
			},
			"userdoc": {
				"kind": "user",
				"methods": {},
				"version": 1
			}
		}
	}
}